:020000040000FA
:10000000401320208D0100009101000093010000A9
:1000100000000000000000000000000000000000E0
:10002000000000000000000000000000950100003A
:10003000000000000000000097010000990100008E
:100040009B01000069370000F54C00009B01000097
:100050000D1300009D1C00009B0100009B0100008F
:10006000000000009B0100009B0100000000000058
:10007000000000009B0100009B010000314D0000CA
:100080009B0100009B0100009B0100009B01000000
:100090009B0100009B010000000000000000000028
:1000A0009B0100009B010000000000000000000018
:1000B0009B010000000000009B0100009B0100006C
:1000C00000F002F800F052F812A030C808382418E6
:1000D0002D18AC4201D100F049F80FCCA246AB4636
:1000E0000CA730CF2D1B083F3F197C427F1E544484
:1000F0002D090426F441641EAC4201D300F036F809
:100100000126334200D0FB1A3343984754465D46DC
:10011000DFE70000AC5C0000DC5C000000000000D9
:10012000103A02D378C878C1FAD8520701D330C840
:1001300030C101D504680C60704700000000000069
:100140007047000000000000002300240025002666
:10015000103A01D378C1FBD8520700D330C100D583
:100160000B6070471FB51FBD10B510BD01F050F8F2
:100170001146FFF7F7FF04F059FF01F068F803B4E8
:10018000FFF7F2FF03BC01F0B9F800000648004792
:10019000FEE7FEE7FEE7FEE7FEE7FEE70348044969
:1001A000024A044B70470000C100000040122020AA
:1001B0004013202040122020034610B50B439B071C
:1001C0000FD1042A0DD308C810C9121FA342F8D0BA
:1001D00018BA21BA884201D9012010BD0020C043BD
:1001E00010BD002A03D0D30703D0521C07E0002023
:1001F00010BD03780C78401C491C1B1B07D10378E9
:100200000C78401C491C1B1B01D1921EF1D11846D1
:1002100010BD0000002203098B422CD3030A8B423D
:1002200011D300239C464EE003460B433CD40022EE
:1002300043088B4231D303098B421CD3030A8B4200
:1002400001D394463FE0C3098B4201D3CB01C01ACE
:10025000524183098B4201D38B01C01A5241430999
:100260008B4201D34B01C01A524103098B4201D387
:100270000B01C01A5241C3088B4201D3CB00C01AF4
:10028000524183088B4201D38B00C01A524143086C
:100290008B4201D34B00C01A5241411A00D2014691
:1002A0005241104670475DE0CA0F00D0494203102A
:1002B00000D3404253409C46002203098B422DD379
:1002C000030A8B4212D38901FC2212BA030A8B4221
:1002D0000CD3890192118B4208D3890192118B4270
:1002E00004D389013AD0921100E08909C3098B42F5
:1002F00001D3CB01C01A524183098B4201D38B0138
:10030000C01A524143098B4201D34B01C01A5241DA
:1003100003098B4201D30B01C01A5241C3088B421F
:1003200001D3CB00C01A524183088B4201D38B000A
:10033000C01A5241D9D243088B4201D34B00C01A94
:100340005241411A00D201465241104663465B10A9
:1003500001D34042002B00D54942704763465B10F1
:1003600000D3404201B50549002802DC491C084081
:1003700000E00846C046C04602BD00BFFFFFFF7F49
:1003800070477047704700000246C80FC00781439E
:100390004B0030B54B405B009B0D20D01923DB0692
:1003A000C91801231B05994220DB0324A407042557
:1003B0001346AB400BD3002B04D1EB0613409B003C
:1003C000E34204D401246407002312195941FF2396
:1003D0001B0599420BD2C9000143500F09E0CB0223
:1003E00004D501430803024305D0054830BDFF2171
:1003F000C905084330BD084607210905884330BDBB
:100400000000C07FF0B50C46871A9C410D46861A45
:100410009D4103D2C01BA141D21963410D0D1F0D97
:10042000C94EEC1BAE435CD07F057F0D0026002F2C
:1004300051D02D05AC46A943DD020123ED0A1B0571
:100440001D4320231B1B24D41746E7403818714155
:100450002F46E740CC199D402818314661410C0DCC
:1004600027D161449A4013D50023401C59415200C2
:100470000ED14008400001224B005205D34207D361
:1004800005204007C14201D5B04900E0B0493046DF
:10049000F0BD6B00002A00D001229A181F23203CD7
:1004A0001B1B01D5002302E0E540281871410C0D0B
:1004B000D7D0012424050919C407CD0740084908ED
:1004C000E40F28436144002CD5D00024401C614136
:1004D0009A40D0D1CDE76A05520DD9D1C90FC907CD
:1004E000D5E79C4D4E00002801D0012400E00024F7
:1004F00034195F00002A01D0012600E00026BE1951
:10050000954FAC420CD8AE420AD8B44206D0012571
:100510006D05EC42BCD010461946F0BD9942FCD0A6
:1005200000203946F0BDF0B51FB40C460F46811AC5
:100530009F412546861A9D4106D20125ED076F4051
:10054000401ABC4152187B41210D1E0D8D1BAC463B
:100550007D4D8D437ED075056D0D7CD00D05AE466D
:10056000AC431B031B0B794D52429D412023664631
:100570009B1B14D31746F74038180026009074418F
:1005800060462F460741E41900989D4028186641AF
:1005900016D4714671189A4025D5012320E093188E
:1005A0002A466A415200002B00D0521C1E23203ED6
:1005B0009B1B002B61DD3541EE1728186641E8D5FD
:1005C000001876415B1C9A4000D3401C4B05F31881
:1005D0001524E34010D3002B52D071467118D30F6D
:1005E000C01802D3491C05B0F0BD0123DB079A42B5
:1005F000F9D140084000F6E701225205B21801D1B6
:10060000002853D00123CC0ADB029943891E002A1B
:1006100008D1020C03D0020C0004103902E002469B
:10062000002020390023550B05D112020823550B59
:1006300001D152010D23550C01D112011B1DD50C06
:1006400001D192009B1C150D01D152005B1C20258D
:10065000EE1A01E02CE022E00546F54015439840F3
:10066000CA1AE10769181305C918002ABBDA032062
:1006700040070818C10FC9070FE071466118B2E7BB
:10068000F10740080843711071444A000CD001235F
:100690005B059A42A7D2C90FC9070020A3E7490505
:1006A000490D26D1002001E00028F4D100219AE76D
:1006B000284D6600002801D0012100E000217118BA
:1006C0005F00002A01D0012600E00026BE19224F5B
:1006D000A94210D8AE420ED8B14208D001256D050E
:1006E000E94206D01946A802414010467BE79C42E9
:1006F00001D0214677E70020394674E710B50C4653
:100700005C4005D50124E4076340FFF70CFF10BDF2
:10071000FFF778FE10BD30B40C465C4004D50124D0
:10072000E407634030BC6DE630BCFCE670B50124E4
:10073000E40761400D465D4002D4FFF763FE70BDE3
:100740006340FFF7F0FE70BDFF0700000000F0FF00
:100750000000F07F0000E0FF0000F87FF0B5F94DE9
:100760000C091E092C402E402F468BB0A7437DD08C
:10077000B543FCD0002E7AD0002CFCD00D465D4055
:10078000ED0F2543AC1BFF25AD0464190894C50289
:10079000440DC9022143500DDC0204430120C0076F
:1007A00001430443D2020191200C110C00958C46A8
:1007B000010423468B430A9161460904E24D8A43B2
:1007C0000991010A7D4449198039097805464D434C
:1007D00001266D18F605751B6943C90C640B891C4D
:1007E0004C436418B5012C1B250C2E04B4434C4318
:1007F0004D43210C691889090591009DE90701D035
:100800000121C90704912C4601996708CD072F43A0
:100810004C08059DE10B4D432D0C2946664675435A
:1008200002950D4645432E46029D7D1BB441009521
:100830000D465D4301942C0C2F040D465543AE46E6
:100840002D0C3D43029503947546049C2D04641BB6
:10085000049406D2029C039D641C002675410395F6
:10086000029401AC70CC009F7D1B01E03EE162E18F
:10087000B44109040095079101940599A4086143C6
:10088000090C0C464443650BE7040C46664674436A
:10089000A646640B3C43039502947446049DE4040D
:1008A0002C1B049406D2029C039D641C00267541F7
:1008B0000395029401AC70CC009F7D1BB441019460
:1008C0000C465C430095650FE7000C465443A64672
:1008D000640F3C43039502947446049DE4002C1B72
:1008E000049406D2029C039D641C00267541039566
:1008F000029401AC70CC009F7D1BB441AE09AF06E1
:10090000049DC900AD092F43049DA406AD060495BE
:10091000079D344369180791059DE10B4D432D0C4C
:1009200029466646754302950D4645432E46029D6F
:100930007D1BB44100950D465D4301942C0C2F04A2
:100940000D465543AE462D0C3D4302950394754626
:10095000049C2D04641B049406D2029C039D641C19
:10096000002675410395029401AC70CC009F7D1B5D
:10097000B44101948C050694079C890A611800957E
:100980000791019C0599A4086143090C0D46454354
:10099000680BEF040D46644665436C0B3C43049FB3
:1009A000ED047D1BAC4602D20025641C6841009E0C
:1009B000019D371B85410846584301950C46460F5B
:1009C000C5005443600F28436546E4002C1B02D247
:1009D0000025401C6E41019D3F1AB5412846BD09C6
:1009E000800628438446A009BF064E020699A40645
:1009F00076180743079D002068410A99079019431C
:100A00000020099B00906046FF1913434041E20F0C
:100A100064003A43A4460446D71A8C41A04203D945
:100A20000120009020463A46C70F94184041624684
:100A3000D20F2243644664000494009CBE466400C6
:100A4000D71AA446044602978C417746002F01D15D
:100A5000A04204D96046401C8446029A2046C40F36
:100A6000A64694184041049A0546D20F2243644694
:100A70006400D31A8D417146002901D1A84202D9E0
:100A800028461A46641C10430122002800D0164351
:100A900061020020079B891904465C410223002C57
:100AA00002DB491813466441089DCE0A2D145D19D6
:100AB0004B056705E10A2C050D1908993E43C90746
:100AC0006940002B08D0934006D30022761C514188
:100AD000002B01D1760876001C4A002D43DB15421D
:100AE00041D0AA433FD030460BB0F0BD06180D46AA
:100AF0004D41174C7642AC411AD395181C465C41C7
:100B0000134A6D42A24113D3012252054C00D44234
:100B10000AD15C00D4420BD04B4002D59202114363
:100B2000E2E749004908DFE75940C90FC90718E063
:100B300000200849D8E7054801420DD10342F7D00B
:100B4000F2E700000000FF07384B00000000F07FD4
:100B50000000E0FF0000F87F114859400143C01237
:100B600041400020C0E70123089A9B069A4205DC19
:100B7000032252078918C90FC907B5E70522520792
:100B80008918074A1143D2125140ADE770B5154696
:100B90001C4602460B4628462146FFF7DFFD70BD86
:100BA000FFFFFF7F1F22030C02D10F22000402D09F
:100BB000030E03D004E00020014670470002083A0B
:100BC000030F01D10001121F830F01D18000921E7B
:100BD000002801DB4000521E120551184205C012C8
:100BE000411810467047C10FC90700D0404201228A
:100BF00092071143D6E701218907D3E7F0B58B4C63
:100C00000F09254689B0BD437BD01D092646AE435A
:100C1000FAD00E465E402740F60F3E43254071D085
:100C200024012142FBD0FF24AD19A4042D1B039500
:100C300001252D05DB02DB0AC9022B43C90A294322
:100C40001E010901040F130F050121431701880B31
:100C5000820391432D098C46A90B1E438A039543B9
:100C6000B30B9A0396433F09BA0B9403A74302962A
:100C70002E467E430497B6464E19D7190C46019668
:100C8000544305977E43371B7646BF1B3601B64655
:100C9000BE0B361900967646BC043719009C01D36A
:100CA000641C00946400002F01D001263443029E8E
:100CB000049F754366467E430496760034196E00A1
:100CC00034190094029C019E1C196643751BAE46A4
:100CD000069465464519059C05956C435943754630
:100CE0000891691A0191049E01465143A41B049185
:100CF000611A009C0791E10605D0610901221143A8
:100D000002E072E06EE06109089D00272C0A2D06C2
:100D10006918049D7C412A0A2D066918019D6241CB
:100D2000AC0DAD026D185441079A910D9202551900
:100D30006141029A644658435443069B059A5A43BC
:100D4000121A131B9A0E9B015B187A41010B0005C6
:100D5000C3185141220A200644195A419A4200D22E
:100D6000491C01204002814203D315230226F64389
:100D700002E014230326F6432020C51AA940174693
:100D8000AF40DA400A4320460399D840091473184B
:100D900019055118039A3843D2075140AC4009D085
:100DA0000122944006D30022401C5141002C01D165
:100DB000400840001E4A934212D301220398920633
:100DC000904207DB0520400709181A480143C0126A
:100DD000414004E0032040070818C10FC907002064
:100DE00009B0F0BD0020F107FAE705180C464C41A8
:100DF00011486D42A04115D394181A465A410E4825
:100E0000644290410ED301204A004005824209D33A
:100E10005A00824206D35940C90F084AC907002028
:100E20001143DDE700200649DAE700000000FF0774
:100E3000FE070000FFFFFF7F0000E0FF0000F07FE3
:100E40000000F87F0121C9050123411842001B065B
:100E5000D3185B0E0AD0C1100722D20689184007AA
:100E60005242D14201D5520089187047090208D573
:100E70000146002A03D0C10FC90700207047104661
:100E80007047420202D0002002497047072109053D
:100E90000143F4E70000F87FF0B5FF252D04C609F3
:100EA000C209FF2704462E400137CB093E43484084
:100EB0002A402B400746002A6BD0002B69D0AA425B
:100EC00067D0AB4265D0002800DA32460125ED0537
:100ED00029432C4309022002090AD21A4B0C7F2411
:100EE000E31A434C000A7C44E35C7D242404121979
:100EF00014145B00A218884201D3521C00E0400089
:100F000049420C465C4324115C43DB016415E31841
:100F1000040A5C43C502200D0C4644436419250AAB
:100F20005D432303EC0C0D46654300030019EB18E9
:100F30004C42A34201D35B18401CD4052018002B5F
:100F400007D05B00C91804D3401C002901D1400818
:100F500040003F2189048A4209D3002A08DC110697
:100F6000090F04D0032149074018C00FC007F0BD86
:100F700001224100120689187F2252069142F6D2C0
:100F800005214907C84201D59010F0BDFF20C005DA
:100F9000F0BD002F00DA32461648AA4207D2AB4213
:100FA00005D21902090E17D0F80FC007F0BDFF25B2
:100FB00063002D06AB42F9D84900A942F6D8AB42EE
:100FC00001D1A942F2D0A94201D1002101E0610082
:100FD0004908D0050843F0BD1102090EFBD0FF20DF
:100FE0000243D005F0BD0A460146104654E7000012
:100FF000964400000000C07F0102C21504D0012306
:10100000DB071943002A0ADB9E239A1A02D40846FA
:10101000D0407047FF2241001206914201D90020C2
:101020007047C017C04370471F22030C02D10F2224
:1010300000041CD0030E01D10002083A030F01D1B5
:101040000001121F830F01D18000921E002801DBD6
:101050004000521ED2055118021251181922904018
:1010600004D3491C002801D14908490008467047AB
:10107000C10FC90700D04042012292071143D3E7B4
:1010800001218907D0E710B500F088F8006810BD8D
:1010900010B5044600F082F8046010BDF0B53D4B79
:1010A00002460C461C400020002C63D03A4D8B4376
:1010B00066D000296BDB0B0D1D05A94301252D050D
:1010C00029430124FD33E34001D392184941FF3302
:1010D00081339C468B02940D0121234389074C42A6
:1010E000920200271B198C105D1A04D42D1B02D408
:1010F0002B466500491992185B416408F4D15C1ACB
:1011000008D40125ED07EE175519744102D42A467B
:101110002346491C94185B41012292071D46E61B99
:101120008D4106D4B61A854103D42B46550034466A
:101130007F1924195B415208802AEFD1234300D044
:10114000022338460A22D04001D3012213438A05E4
:1011500010436246890A12058918002B09D0012222
:10116000D34002D30022401C5141002B01D1400842
:101170004000F0BD0B03134307D0C90FC907F0BDF2
:101180000803104303D1002901DB1046F0BD002005
:101190002946F0BD0000F07F0000F87F004870474E
:1011A0005800202010B5FF231B0644009C421DD888
:1011B0004C009C421AD80346124A0B4307D4401AEB
:1011C00002D3EFF3008010BDEFF3008010BD081ACA
:1011D00003D3EFF30080904305E0EFF3008001219B
:1011E0009043C907084380F3008810BD0D231B04FA
:1011F0001A4204D01146002000F031F810BD00F072
:1012000045F810BD000000900048704758002020AD
:101210007546FFF7F9FFAE46050069465346C0081C
:10122000C000854618B020B5FEF7B8FF60BCB646D2
:1012300000260027C0C5C0C5C0C5C0C5C0C5C0C543
:10124000C0C5C0C5403D490849008D46704710B52E
:101250000446C046C0462046FEF791FF10BDC802B6
:1012600012D54803400F002804D0C803C043012111
:1012700088407047EFF3008000010009032109074F
:10128000084380F3008870470020704710B502487B
:1012900000F004F810BD00000000C07F10B50C463F
:1012A0001107090F092904D00A290AD008290CD1ED
:1012B00004E011460820FFF7D2FF06E0510606D5EC
:1012C00001E0510601D50120C007214610BDD1061D
:1012D00007D501010909CC084907000E000604439F
:1012E00009E0410F20024907000A0143200E0006D1
:1012F0001D22D14101430846E7E7000001491820BB
:10130000ABBEFEE7260002007047000080B501205A
:10131000800700F05FFF06280AD1FFE7054901209A
:101320000870830704480021032200F0C3FB00E09B
:10133000FFE780BDBA0020203204000080B598B0DD
:1013400016AA107015910020119010900D900C901D
:10135000159800280AD0FFE716A80078002809D0C1
:10136000FFE716A80078012804D0FFE717A900209E
:1013700008709FE016A8007800F080F9139014A977
:1013800032200880FFE714A800884C49884215D80D
:10139000FFE7139814A909884900405AFFF72BFC6E
:1013A00002460B4610981199FFF7A8F91191109079
:1013B000FFE71498401C14A90880E4E710981199DD
:1013C00000223F4BFFF71AFC0F910E9014A9322018
:1013D0000880FFE714A800883849884223D8FFE72F
:1013E000139814A909884900405AFFF704FC0E9A83
:1013F0000F9BFFF790F909910890089A099B0C98A8
:1014000006900D98079010461946FFF7F7FB069ACD
:10141000079BFFF773F90D910C90FFE71498401CA0
:1014200014A90880D6E70C980D9900220292244B4B
:10143000FFF7E4FB03F068FE0B910A901599012079
:101440000590800208800E980F99FEF79DFF159970
:1014500048600A980B99FEF797FF159988600B98DA
:1014600001900A98009000F031F8FFF7EBFC02467B
:1014700000980B460199FFF7C1FB029A114BFFF749
:10148000BDFB0390049100F025F8FFF7DBFC029A06
:101490000D4BFFF7B3FB024603980B460499FFF789
:1014A0005DF9FEF771FF01460598159AD16017A9FD
:1014B0000870FFE717A8007818B080BD310400005D
:1014C0000000503F00408F4000FEAF400048704792
:1014D0003333B33F104800687047C04680B50249B7
:1014E000012000F075FA80BD545D000080B582B027
:1014F00001900198064903F0FBFD002803D1FFE7A6
:1015000004480190FFE701980349086002B080BDDC
:101510000AD7233C85EBB1404000202080B58AB03B
:10152000099005A9002088700820088009980028E3
:1015300004D1FFE7192040020990FFE709984749C5
:10154000884203D3FFE746480990FFE70999480816
:10155000654A8018FEF75EFE08900898002803D1BF
:10156000FFE701200890FFE708983E49884204D32E
:10157000FFE7012000060890FFE708983A49401865
:10158000000C07900798002803D1FFE7012007907F
:10159000FFE70798FF210231884204D3FFE70120CB
:1015A00000020790FFE708980799FEF733FE0690C0
:1015B0000698002803D1FFE701200690FFE7069870
:1015C0002A49884204D3FFE7012000040690FFE780
:1015D0000798401E2649019108700698401E25492B
:1015E000039108800798069941433F48FEF712FE91
:1015F000014603983A4A116000881F490880EB4869
:10160000009001F0ABFE009801990A7805A90291BB
:101610008A7001F00FFE00980399098801F03AFEE4
:1016200000980399098801F067FEE148049001F0F1
:1016300095FE019A0299049812788A7001F0FAFDD9
:1016400003990498098801F025FE039904980988F4
:10165000C91D01F051FE0AB080BDC04601093D0020
:1016600000093D0001000001FFFF00000100010032
:10167000D1002020480020205400202082B00146C4
:1016800001A801700078012804D1FFE7064800682E
:10169000009003E0034800680090FFE7009802B064
:1016A0007047C0464C0020205000202080B582B0FA
:1016B0000B480068002803D1FFE70B4801900CE0BD
:1016C000074801680748FEF7A5FD009000996431BE
:1016D0007D20800148430190FFE7019802B080BD62
:1016E000440020205063100000127A0083B00146AD
:1016F00002A801700178012080070090EC480129C0
:10170000019001D000980190019803B07047C04645
:1017100080B582B00146684601700078C007002895
:1017200016D0FFE7A348002100F056FF002804D19F
:10173000FFE79D4901200870FFE79B480078C0073C
:10174000002804D1FFE701A90020087020E0FFE78E
:10175000684600788007002816D5FFE795480121E4
:1017600000F03AFF002804D1FFE7EE49012008709D
:10177000FFE7EC480078C007002804D1FFE701A983
:101780000020087004E0FFE701A901200870FFE7CE
:1017900001A8007802B080BD80B596B015A912915D
:1017A0000870DF4900200B900870DE490870BE49C0
:1017B0000870DD4801F0D2FD7D4801F0CFFD012029
:1017C0000A9080070C9000F0C7FDB9480D9000F01A
:1017D000C3FD0C9800F01AFC0D9800F017FC0B9953
:1017E00074480F9000F0BFFE0A990F9800F0BBFEFE
:1017F0000B990C98C9430E9100F0BEFB0D980E9901
:1018000000F0BAFB0F986C4900F064FE04201090C1
:1018100003F0B0FB0520119003F0ACFB109803F02F
:1018200067FB119803F064FB12980078C00700284A
:1018300018D0FFE713A900200870FFE713A800786D
:1018400007280ED8FFE701208007002100F098FC50
:1018500014A908801498FFE71398401C13A9087076
:10186000ECE7FFE715A800788007002817D5FFE709
:1018700013A900200870FFE713A8007807280DD8E7
:10188000FFE7DC48002100F07BFC14A908801498D5
:10189000FFE71398401C13A90870EDE7FFE74748DE
:1018A00009900188D24801F027FD09980088C11DE0
:1018B000D14801F021FD15A80078C007002805D007
:1018C000FFE70120800700F013FCFFE715A8007870
:1018D0008007002804D5FFE7EF4800F009FCFFE788
:1018E000082000F067FD15A80078C007002825D063
:1018F000FFE701200790800708900021069100F083
:1019000057FC069902462B48059000F0ADFE05985D
:1019100006992B4A00F094FE05980699EA4A00F0D1
:10192000B7FE0598069900F044FE089800F0ECFB1D
:1019300007990898090200F0F3FBFFE715A8007863
:101940008007002823D5FFE7DD480490002100F040
:101950002FFC0246174802900121039100F084FEFB
:1019600002980399174A00F06BFE02980399D64A31
:1019700000F08EFE0298039900F01BFE049800F020
:10198000C3FB03990498090200F0CAFBFFE700209B
:101990000190FFF7ABFE019903460122084600F0D3
:1019A00089F816B080BDC046BA002020004008402B
:1019B0000080864000A04240030000034800202031
:1019C000D20020203609202081B0009001B070475D
:1019D00080B58CB00AAA079210700991FFF766FED5
:1019E00008900998FFF7F0FF07980078FFF7D4FEFA
:1019F0002B48FFF7E9FF2B48FFF7E6FF0798007831
:101A000000F096F8FFE70AA80078FFF781FE0028AB
:101A100029D1FFE70898002820D1FFE70AA8039002
:101A2000007800F0EBF803980178012001404B4268
:101A30000A465A4104928007A14A0592002906905D
:101A400001D1059806900499069B0020029005227A
:101A500000F030F802980BA908701DE00898401EAD
:101A6000089030BFCFE70AA8007800F0C7F80E4909
:101A700001200190087000200090FFF737FE0099C8
:101A800003469148042200F015F80848FFF79CFF30
:101A900001980BA90870FFE70BA800780CB080BD77
:101AA000385D0000415D0000B80020204F5D00005F
:101AB0000020004010B586B005AC208004A801705D
:101AC00003A80270029305981449019108800498B4
:101AD00088700398C870124800780122104008717D
:101AE0007848007810404871DC48009001F058FBBD
:101AF000019A01460098917101F0CCFA0199886031
:101B000002980021C94300F06FFB0199C860029858
:101B1000064A8058086106B010BDC046BC002020AF
:101B2000BA002020D000202000400840041100000E
:101B300080B58AB009A908910870874801210791EA
:101B400000F0E6FF0799C54801F002FA089800780E
:101B5000C007002813D0FFE7012080070490202150
:101B6000059100F009FA0498059900F0E7FA0420BD
:101B7000069003F0BDF9069803F02EFAFFE709A8D6
:101B800000788007002812D5FFE74D4801902021FA
:101B9000029100F0F1F90198029900F0CFFA0520C6
:101BA000039003F0A5F9039803F016FAFFE709A8DC
:101BB0000078C007002804D0FFE7A84801F0B0FB78
:101BC000FFE709A800788007002804D5FFE731481F
:101BD00001F0A6FBFFE700200090FFF787FD0099CA
:101BE000034602220846FFF765FF0AB080BDC046E3
:101BF00000400840002000400080864080B588B04A
:101C000007A9069108709548049001F0A7FB2148A8
:101C100001F0A4FB04980121059101F099F90599BF
:101C20004D4800F075FF06980078C007002815D0D1
:101C3000FFE701208007029000F08EFB029800F081
:101C4000E5F902980021C94300F096F904200390B9
:101C500003F090F9039803F04BF9FFE707A8007829
:101C60008007002814D5FFE71548009000F074FBAA
:101C7000009800F0CBF900980021C94300F07CF9EE
:101C80000520019003F076F9019803F031F9FFE7A0
:101C900008B080BD008086400020004080B5084824
:101CA00000F098FA062809D1FFE7064801210170E3
:101CB00005480322024BFFF7FDFE00E0FFE780BD71
:101CC00000200040D00020203204000080B582B007
:101CD00001A9002008700120C1061F4800F0E0FFA4
:101CE0000001002806D5FFE701980121084301A95A
:101CF0000870FFE701204106174800F0D1FF80017E
:101D0000002806D5FFE701980221084301A90870C1
:101D1000FFE701200106114800F0C2FFC0010028C2
:101D200006D5FFE701980421084301A90870FFE7E1
:101D300001208104094800F0B3FF4003002806D5C4
:101D4000FFE701980821084301A90870FFE701A8EF
:101D5000007802B080BDC04600000A4000200A4062
:101D600080B58CB00AA909910870EFF3108072B6A3
:101D70000B9001200490810200913748019001F0FE
:101D80003BFB0099019801F0FFFA0F2003F09CF84B
:101D9000019801F00FFB019801F03CFB2F480290E5
:101DA00001F0D2FA0298049901F0E8F80298049937
:101DB00001F0BAF8029801F0F9F8294803900021DF
:101DC000059100F0BDFB0398049900F0B9FB03985E
:101DD000022100F0B5FB04988007079000F0B0FAEC
:101DE000079800F008F9079800F026F90499079879
:101DF000090200F039F90798202100F04DF9059902
:101E00000798C94300F0A0F80420069003F09AF860
:101E1000069803F059F8079800F014FA079800F0B4
:101E200053F91048089001F025FC089801F06EFC69
:101E3000089801F035FC09980078C007002803D104
:101E4000FFE702F0BAFAFFE700F0BAFF00F0CAFFBE
:101E500000F0C2FF0CB080BD008010400040084080
:101E600000A042400000034080B582B00190009184
:101E700001980078C007002801D1FFE714E000981E
:101E80000068002805D0FFE700990868401E086038
:101E9000FFE700980068002806D1FFE702F08DFAFE
:101EA000019900200870FFE702B080BD80B586B0C0
:101EB00002F02EF9059002F094FA02F053FA059818
:101EC000002806D0FFE70598007CC007002806D14F
:101ED000FFE71C4A0121084602F023FC29E005988F
:101EE000C0683F21090603F033F9FFF785F8049035
:101EF000114A01210091084602F013FC0098049A4F
:101F0000062102910523039302F0CEFB00980B4AB1
:101F10000C2102F006FC0099094A0220019002F00F
:101F200000FC01980299039B059A126802F0BCFB21
:101F3000FFE706B080BDC046215A00002E5A0000BF
:101F40001C5A0000265A000082B001900091009BAC
:101F50000199154A88581843885002B07047C04606
:101F600082B001900091009B01990F4A8858184354
:101F7000885002B07047C04682B001900091009B2B
:101F80000199094A88581843885002B07047C046E2
:101F900082B001900091009B0199034A8858184330
:101FA000885002B07047C0464810000010B585B098
:101FB0000092024600980B9C0A9C099C089C079C76
:101FC000049203AA117002900193029801990843A8
:101FD0000799084308990843099908430A9908434F
:101FE0000B99084304991278920089182322D20190
:101FF000885005B010BD81B00090009911200202F8
:10200000885801239843885001B0704781B00090F0
:10201000009911200202885801239843885001B08A
:10202000704781B000900099112002028858012366
:102030009843885001B0704781B000900099AA4A37
:10204000885801231B029843885001B07047C0464E
:1020500081B000900099A44A885801231B0298433C
:10206000885001B07047C04682B001900091009B3B
:102070000199314A88589843885002B07047C04649
:1020800082B001900091009B01992B4A8858984397
:10209000885002B07047C04682B001900091009B0A
:1020A00001992C4A88589843885002B07047C0461E
:1020B00082B001900091009B0199264A885898436C
:1020C000885002B07047C04681B00090009901204E
:1020D000C20213204006885001B0704781B00090C2
:1020E00000990120C20213204006885001B07047B9
:1020F00081B00090009911200202885801231843F2
:10210000885001B07047000081B000900099764A75
:10211000885801231B021843885001B07047C046FD
:1021200082B001900091009B0199034A885818439E
:10213000885002B07047C0468810000082B00190FD
:102140000091009B0199034A88581843885002B0B7
:102150007047C0462810000081B00090009901200F
:10216000C202D548885001B07047C04681B0009087
:1021700000990120C202D048885001B07047C04683
:1021800084B0009101460098039102A90870039859
:102190000978890040182521C9014018019001984B
:1021A0000249405880B204B07047C0460050550004
:1021B00083B0009101460098029101A9087002982D
:1021C0000978890040180249401803B07047C0469A
:1021D0008062550081B000900098812149014058EB
:1021E000C0B201B07047000082B001900091019828
:1021F000024940580099084002B070473010000072
:1022000010B584B0079C069C039002910192009344
:1022100003985D4940180299019A1143009A1143AD
:10222000064A00F0D1F803982F4940180699079AFA
:102230001143034A00F0C8F804B010BD01001300B8
:1022400007001F1F81B000900099A04AA048885045
:1022500001B0704781B0009000999C4A9C4888501A
:1022600001B0704781B000900099984A9848885012
:1022700001B0704780B582B00190009101980D497E
:10228000401800990978A922120689180A4A00F014
:10229000AFF80198112109024018009949680722F6
:1022A000120600F0A5F8009840780199034A88507A
:1022B00002B080BD08080000030000FF10110000FC
:1022C00080B584B0019101460198039102A908707C
:1022D0000398054A80180978C9021F22D20200F02B
:1022E00073F804B080BDC0460811000080B582B00C
:1022F00001900091019811210902401800990122D2
:10230000120400F061F802B080BD000082B00190BC
:102310006846018000880199014A885002B07047E0
:102320001411000082B001906846017000780F21FE
:102330000840019901229202885002B070470000C3
:1023400081B000900099104A885801231B029843DD
:10235000885001B07047C04681B0009000990A4A89
:10236000885801231B029843885001B07047C0462B
:1023700081B000900099044A885801231B029843B9
:10238000885001B07047C0460411000083B002902D
:102390000191009202980199084300990843F0497D
:1023A000086003B07047C046ED4800680721084048
:1023B0007047C04682B001900199881E001F00BF7F
:1023C000FCD2009002B0704784B003900291019259
:1023D0000398006800900098019988430090009845
:1023E0000299019A114008430399086004B07047AC
:1023F00084B00390029101920398006800900098C5
:1024000001998843009000980299019A114008436D
:102410000399086004B0704784B003900291019260
:1024200003980068009000980199884300900098F4
:102430000299019A114008430399086004B070475B
:1024400084B0039002910192039800680090009874
:1024500001998843009000980299019A114008431D
:102460000399086004B0704784B003900291019210
:1024700003980068009000980199884300900098A4
:102480000299019A114008430399086004B070470B
:1024900081B0009000990120C202132040068850AC
:1024A00001B0704781B0009000990120C20202483B
:1024B000885001B07047C0460100002681B00090EE
:1024C0000099024A0248885001B070470408000091
:1024D000030000B182B00190009100980199024A76
:1024E000885002B07047C0464810000070B587B0F1
:1024F000009314460D46009902460E980D980C98CC
:102500000B9B069205AA15700494039102A90B80F7
:1025100001AB18800498039C20430E9C24012043A7
:102520000D9C20431B881B0118430988084306990A
:1025300012781201891809225202885007B070BD22
:1025400083B0009101460098029101A90870029899
:10255000097809014118092042028858022398434A
:10256000885003B0704783B00091014600980291F3
:1025700001A908700298097809014118092042024E
:10258000885802239843885003B0704783B0009165
:1025900001460098029101A9087002980978090182
:1025A000411809204202885802239843885003B0FA
:1025B000704783B0009101460098029101A908700C
:1025C000029809780901411809204202885802231B
:1025D0001843885003B0704783B0009101460098BB
:1025E000029101A90870029809780901401833493D
:1025F000405880B203B07047F0B589B004910146ED
:102600000498089107A9059108700692089809781E
:10261000069F7A68BB68BC89FD893E697F6903971C
:10262000029601950094FFF761FF059908980978D3
:10263000069B1A785B7800F043F809B0F0BD000003
:1026400084B0009202460098039202AA1170019091
:1026500001980399127812018918024A885004B02F
:102660007047C0460812000084B0009202460098ED
:10267000039202AA11700190019803991278120135
:102680008918024A885004B07047C04604120000FE
:1026900085B000920A460099019202460198049280
:1026A00003AA107002A80180008804991278120110
:1026B0008918024A885005B07047C0460C120000C5
:1026C00010B586B0019303460198059304AB1970C9
:1026D00003A90A7002AA107005981B789B00C01805
:1026E000044BC018097812781143BF22FFF794FEFB
:1026F00006B010BD1011000080B582B0FFF754FE87
:102700000190012000210422FFF740FE13480168D8
:1027100004480140684601800199114A116000880F
:1027200002B080BDFF0F000080B582B0FFF73CFE15
:102730000190012000210422FFF728FE07480068CD
:10274000032109030840000B411C684601700199F0
:10275000034A1160007802B080BDC0461800C44131
:102760000013404080B584B00390029101A802702C
:102770000078022108430399724A8850039802990D
:1027800000F0F6F8039802F0ADFC04B080BDC0463E
:1027900081B0009000996B4A052088500099112063
:1027A000020201208850FFE70F4800684007002818
:1027B00001D5FFE7F8E701B07047C04681B000904F
:1027C0000099604A052088500099112002020120DA
:1027D0008850FFE7044800684007002801D5FFE75C
:1027E000F8E701B07047C046D0E30C4082B00190DA
:1027F00000910098800A02B0704780B588B00790B9
:102800000691FFF791FF05A900910870FFF774FF8B
:10281000049007980699FFF7E9FF01460098039195
:10282000007802280CDBFFE7049805A90978FDF77A
:10283000F1FC029003980299FDF7ECFC019102E093
:1028400003980190FFE7019808B080BD80B584B07F
:10285000039002910192009303980299019A00F06B
:102860005DF8009800680399044A88500098406811
:102870000399034A885004B080BDC046301100005F
:102880003411000010B588B004460A9807940691E8
:102890000592049303A9088002A9042008700498F3
:1028A000002806D0FFE704A80078C007002804D05D
:1028B000FFE702A901200870FFE7FFE70499002065
:1028C0000029019007D0FFE702A80078401E411EB2
:1028D00088410190FFE70198C00700281AD0FFE760
:1028E0000798FFF755FF0798069903AA128800F08A
:1028F00049F807980699059A00F028F802A9087087
:102900000498801E049005980830059006980830B9
:102910000690D3E702A8007808B010BD80B584B057
:102920000390029101920399064A01208850019870
:102930000399054A88500398029900F019F804B0E9
:1029400080BDC046041100002411000080B584B091
:1029500003900291019203980299019B034AFFF7A9
:1029600075FF039802F0BEFB04B080BDFF010000BC
:1029700082B00190009100980199892252018850FB
:1029800002B0704780B58AB00990089107A80090FE
:10299000028009980899FFF729FF0690099808997D
:1029A000FFF72BFF0590FFF7BFFE04A90870FFF7A4
:1029B000A3FE0146009803910021029100880121A5
:1029C000490288426BD1FFE700F042FA002818D094
:1029D000FFE704A80078022813DBFFE706980399B5
:1029E0004908884206D9FFE7069803994908401A22
:1029F000029005E006980399490840180290FFE705
:102A000002E006980290FFE702981F280BD8FFE724
:102A10000299012088400190019B09992F4A88580A
:102A2000984388503AE00598FF281FD8FFE7FFF742
:102A30007BFE01280DD1FFE705982038C108012051
:102A400088400190019B0999234A885898438850EF
:102A50000BE00598C108012088400190019B09996D
:102A60001D4A885898438850FFE716E00598FF21D3
:102A7000490088420FD8FFE70598FF21C943401855
:102A8000C108012088400190019B0999114A88588A
:102A90009843885000E0FFE7FFE7FFE715E007A84D
:102AA00000880121890288420DD1FFE706991F2085
:102AB0000140012088400190019B0999044A8858EF
:102AC0009843885000E0FFE7FFE70AB080BDC046AA
:102AD00010120000D8110000D4110000D011000025
:102AE00082B001900091009B0199034A88581843D5
:102AF000885002B07047C0464810000082B0019074
:102B000000910098019995225201885002B07047B7
:102B100082B001900091009801999522520188504D
:102B200002B0704782B001900091009801999522FF
:102B30005201885002B0704782B001900091009815
:102B4000019995225201885002B0704782B00190DD
:102B50000091009B0199034A88581843885002B09D
:102B60007047C0462810000082B001900091009884
:102B70000199074A885002B07047C04682B0019060
:102B8000009100980199024A885002B07047C046EF
:102B9000D012000081B0009000990120C20281484B
:102BA000885001B07047C04682B0019000910198F2
:102BB000024940580099084002B0704738100000A0
:102BC00010B584B0069C0390029101920093029884
:102BD0000199084300990843069908431949084395
:102BE000039989002D4A885004B010BD10B584B0F7
:102BF000069C039002910192009302980199084368
:102C000000990843069908430E490843039989002F
:102C1000224A885004B010BD10B584B0069C0390C1
:102C20000291019200930298019908430099084388
:102C3000069908430349084303998900174A8850B5
:102C400004B010BD8100040081B0009000988100A4
:102C5000124A8120885001B07047C04681B0009070
:102C6000009881000D4A8120885001B07047C0460D
:102C700081B0009000988100084A0020885001B07F
:102C80007047C04682B001900091009880210843AF
:102C900001998900014A885002B07047048042407F
:102CA00082B00190009101982721C90140580099F4
:102CB000084002B0704782B001900091019827212E
:102CC000C90140580099084002B0704782B0019095
:102CD000009101982721C90140580099084002B08D
:102CE0007047000081B000900099334A3348885003
:102CF00001B0704782B001900091009B0199034A96
:102D000088581843885002B07047C046901300009E
:102D100082B00190009100980199074A885002B052
:102D20007047C04682B00190009100980199024A14
:102D3000885002B07047C0469012000082B0024630
:102D400001A802700091009B007830214143034AA2
:102D500088581843885002B07047C0462811404038
:102D600081B001466846017001783020484302492D
:102D7000405801B07047C0460011404081B00090FB
:102D800000990120C20213204006885001B070470C
:102D900081B0009000990120C202B248885001B071
:102DA0007047C0460100002681B000900099024A99
:102DB0000248885001B0704704080000030000B1C9
:102DC0001449086801229043086070471149086857
:102DD000012290430860704712490868102290430E
:102DE000086070470B49086801221202904308608E
:102DF0007047C046074908680122120290430860E4
:102E00007047C046034908680122120290430860D7
:102E10007047C04608010B40024908681022104361
:102E2000086070473C010B40084800687047C04686
:102E3000064800687047C04681B004480068032116
:102E4000084000906846007801B0704704020B40CB
:102E50000020704781B00146684601700078024941
:102E6000086001B07047C04608030B4080B582B0CF
:102E7000014601A8017001782A480F22FFF7A4FA41
:102E800002B080BD80B582B0014601A801800188F2
:102E9000012042020248FFF797FA02B080BDC04607
:102EA00038010B4080B500F025F80B490868042272
:102EB0009043086080BDC046064801220260064972
:102EC000086804231843086016490868520510432F
:102ED0000860704740010B4010ED00E080B582B003
:102EE000014601A8017001780D480322FFF76CFA32
:102EF00002B080BD80B50A49086801229302984358
:102F0000086008490868120590430860FFE7FFF76A
:102F10008FFF8003002801D5FFE7F8E780BDC0469A
:102F200000010B4004010B4082B001900091009819
:102F30000199114A885002B07047C04682B0019092
:102F40000091009801990C4A885002B07047C04621
:102F500082B00190009100980199074A885002B010
:102F60007047C04682B00190009100980199024AD2
:102F7000885002B07047C0464810000082B00190EF
:102F80000091009B01992C4A88589843885002B0C0
:102F90007047C04682B001900091009B0199264A7B
:102FA00088589843885002B07047C04681B000905E
:102FB00000990120C20213204006885001B07047DA
:102FC00081B0009000990120C20213204006885071
:102FD00001B0704781B000900099064A01208850E6
:102FE00001B0704781B000900099024A01208850DA
:102FF00001B070470811000084B0039002A801706E
:1030000001920399054A89180091019B0099007863
:10301000820088581843885004B070475810000048
:1030200082B001900091009B0199034A885818438F
:10303000885002B07047C0462810000081B0009050
:1030400000990120C2020748885001B07047C0466D
:1030500081B0009000990120C2020248885001B05E
:103060007047C0460100002681B000900098812181
:1030700049014058C0B201B07047000082B00190D1
:1030800000910198024940580099084002B07047E9
:103090003010000081B0009000980321C902405810
:1030A00001B0704780B584B00390029103980299F3
:1030B000496800F0E5F8029800780190222856D877
:1030C0000198810001A040588746C0466531000044
:1030D0006F310000653100006F3100006F3100007A
:1030E0006F3100006F3100006F3100006F31000060
:1030F0006F3100006F3100006F3100006F31000050
:103100006F3100006F3100006F3100005931000055
:103110006F310000593100006F3100006F31000045
:103120006F3100006F3100006F3100006F3100001F
:103130006F3100006F3100006F3100006F3100000F
:103140006F3100006F3100006F3100005931000015
:103150006F3100005931000003980121490700F048
:1031600081F805E00398002100F07CF800E0FFE71B
:103170000398029909690022009200F045F8009B2B
:1031800003980299C9681A4600F020F80299087855
:10319000097A084303997B4A885004B080BDC04631
:1031A00081B000900098774940580121084001B053
:1031B0007047C04681B000900099024A024888508A
:1031C00001B0704704080000030000B110B586B0DC
:1031D00005900491039202A803700599084A891882
:1031E0000191017801988900401801900198049993
:1031F000039A1143034AFFF723F906B010BDC046F6
:10320000301800007777020084B00390029101A883
:1032100002700399064A8918009101780098890084
:103220004018009002980099086004B07047C046AA
:103230001018000082B00190009100980078019968
:10324000E74A88500098407801990122120388507B
:10325000009880780199024A885002B07047C046B1
:103260000C11000080B582B0019000910198454991
:103270004018009903221207FFF7E2F802B080BD60
:1032800082B001900091009801990C4A885002B0D8
:103290007047C04682B00190009100980199074A9A
:1032A000885002B07047C04682B0019000910098EB
:1032B0000199024A885002B07047C04608180000C1
:1032C00086B000920A460099019202460198059242
:1032D00004AA107003A801700599064BC918029141
:1032E00000780F210840029912789200885006B0A9
:1032F0007047C0464404000082B0019000910098DD
:1033000001990322D202885002B0704782B0019026
:103310000091009801990322D202885002B07047B0
:1033200081B000900099174A8858012318438850AB
:1033300001B0704781B000900099124A885801236B
:103340001843885001B0704781B0009000990D4A31
:10335000885801239843885001B0704781B000908D
:103360000099084A885801239843885001B0704753
:1033700081B000900099034A8858012398438850EF
:1033800001B070470418000082B0019000910098CD
:103390000199074A885002B07047C04682B0019038
:1033A000009100980199024A885002B07047C046C7
:1033B0004810000081B00090009911200202885846
:1033C00001239843885001B0704781B00090009964
:1033D00011200202885801239843885001B0704799
:1033E00081B00090009911200202885801235B04EB
:1033F0009843885001B0704782B001900091009BC3
:103400000199034A88589843885002B07047C046D3
:103410002810000081B0009000990120C202132002
:103420004006885001B0704781B00090009901209B
:10343000C20213204006885001B0704781B000904E
:10344000009911200202885801231843885001B0C6
:103450007047000081B0009000990120C202A4488A
:10346000885001B07047C04681B00090009901209B
:10347000C2029F48885001B07047C04681B000909A
:103480000098812149014058C0B201B07047000046
:1034900080B582B0019000910198FFF796FF0198E6
:1034A000112109024018009A1188937819439288D3
:1034B0001143084AFEF7D8FF019893494018009A33
:1034C0009179D3791943127A11437E22FEF7CCFF0A
:1034D00002B080BD1867020081B000900098644976
:1034E00040580121084001B07047C04681B00090AB
:1034F00000985F4940580121084001B07047C0461C
:1035000081B0009000985A4940580121084001B00C
:103510007047C04681B0009000985549405804213A
:103520000840800801B0704781B000900098504971
:10353000405840210840800901B0704781B0009098
:1035400000984B494058C0B2C00901B07047C0460E
:1035500081B00090009802494058C0B201B0704755
:103560002411000081B000900099744A01488850ED
:1035700001B07047030000B180B584B003900291A0
:10358000019203980B49401802990B4AFEF71CFF61
:1035900003980A49401801993F22FEF715FF039945
:1035A000594A8818895801221140FEF70DFF04B0CE
:1035B00080BDC04610110000FFFF00001411000084
:1035C00082B001900091009800780199654A885076
:1035D00000984078019901221203885002B0704788
:1035E0000810000080B582B001900091019811216F
:1035F0000902401800990322D203FEF7E5FE02B04B
:1036000080BD82B0019068460170007801998922DE
:103610005201885002B0704780B582B00190684670
:103620000170FFE70198FFF789FF002801D0FFE74D
:10363000F8E7019869460978FFF7E3FF02B080BD1B
:1036400082B001900091009908784A781043498827
:10365000084301991122120288500099486889682C
:10366000090408430199024A885002B07047C046D5
:103670000811000081B000900099112002028858C2
:1036800001239843885001B0704781B000900099A1
:1036900011200202885801239843885001B07047D6
:1036A00081B0009000990120C2021320400688508A
:1036B00001B0704781B0009000990120C202132030
:1036C0004006885001B0704781B0009000990120F9
:1036D000C2020748885001B07047C04681B00090D0
:1036E00000990120C2020248885001B07047C046CC
:1036F0000100002681B00090009803494058012144
:10370000084001B07047C0460411000081B000902D
:1037100000990A4A0A48885001B0704781B0009069
:103720000099064A0648885001B0704781B0009061
:103730000099024A0248885001B07047040800000E
:10374000010000B182B001900091009800780199C9
:10375000044A885000984078019901221203885049
:1037600002B070470810000080B584B00120FFF758
:10377000F7FA0390039802281BD1FFE71048019045
:1037800008210091FFF710FA009902460198029271
:10379000FFF7A6F901200221FFF7D0FA02A800786E
:1037A0000007002804D5FFE7064902200870FFE75C
:1037B00004E001200321FFF7C1FAFFE704B080BD58
:1037C00000200A403A12202083B001900091019815
:1037D000009A7D210901891A884204D9FFE77D20DA
:1037E0000001029004E00198009940180290FFE760
:1037F000029803B07047000080B584B001A9002092
:10380000087000F011F94B48FEF7D4FD01200102C9
:10381000E74800F033F900280FD1FFE700F03CF94A
:1038200003900398FDF72CFC4349FDF735FBFDF7AA
:103830005DFE00F0E3F804B080BD00F02DF90390C8
:103840000398FDF71DFC3C49FDF726FBFDF74EFEF6
:1038500000F0C7FD039801A909780122114000F08A
:1038600021FA00F051F9FFE700F04EF9014602A8F5
:1038700001700078C007002809D0FFE703980121F4
:10388000FFF7A2FF039001A900200870FFE702A83C
:1038900000788007002809D5FFE70398012100F090
:1038A00055FA039001A900200870FFE702A80078EC
:1038B0004007002809D5FFE703980A21FFF784FF96
:1038C000039001A900200870FFE702A80078000714
:1038D000002809D5FFE703980A2100F037FA039082
:1038E00001A900200870FFE702A80078C0060028A0
:1038F00006D5FFE7039800F05FF901A90870FFE71C
:1039000002A80078002810D0FFE70398FDF7B8FB65
:103910000949FDF7C1FAFDF7E9FD039801A9097806
:103920000122114000F0BEF9FFE70248FEF742FD18
:103930009AE7C046801A06000000C84282B0009094
:103940000098632803D8FFE7642001900BE00098FB
:103950006C49884204D3FFE77D200001019002E01A
:1039600000980190FFE7019802B0704786B004907C
:1039700003910020C04302900498002803D1FFE780
:103980000020059035E000200190FFE701980399A1
:1039900088422AD2FFE704980199415C0298484086
:1039A0000290694600200870FFE768460078072803
:1039B00016D8FFE702A80078C007002806D0FFE766
:1039C000029840080C494840029003E002984008E1
:1039D0000290FFE7FFE70098401C69460870E4E7A3
:1039E000FFE70198401C0190D0E70298C043059082
:1039F000FFE7059806B070472083B8ED0549002021
:103A000008600549086005490860054908600549DE
:103A1000086070474C804240408042403C804240B9
:103A2000388042401880424080B584B00023039320
:103A3000009301204204029212201946FFF7ECF88D
:103A4000029A039B00930F201946FFF7E5F8029AAC
:103A5000039B00930E201946FFF7DEF8029A039BA2
:103A600000930D201946FFF7D7F8029A039B0093A5
:103A700005201946FFF7D0F804B080BD80B582B0AC
:103A80000190009101980099FFF720F900990840F2
:103A90004142484102B080BD80B584B03F20C002A1
:103AA0000290029800687D49884210D1FFE7029891
:103AB000406801280BD1FFE702988068642806D38C
:103AC000FFE7029880680F49884204D3FFE78B2004
:103AD0008000039012E002980C21FFF747FF01904D
:103AE00001980299C968884204D0FFE78B208000C2
:103AF000039003E0029880680390FFE7039804B006
:103B000080BDC046D107000080B582B001A9002069
:103B10000870012001022648FFF7B0FF002806D0F8
:103B2000FFE701980121084301A90870FFE7A948B0
:103B30000821FFF7A3FF002806D0FFE70198022124
:103B4000084301A90870FFE7A2480421FFF796FF88
:103B5000002806D0FFE701980421084301A9087056
:103B6000FFE713488021FFF789FF002806D0FFE711
:103B700001980821084301A90870FFE70120C10747
:103B80000B48FFF77BFF002806D0FFE701981021C4
:103B9000084301A90870FFE70199064A107881439C
:103BA0006846017001991170007802B080BDC0466E
:103BB00000000A40B900202080B596B013900BA8F1
:103BC0000A900020C04303901290119010900F9023
:103BD0000E900D900C900B900A99304808600A994D
:103BE0000120049048601398FFF7A8FE0A998860A6
:103BF0000A980C21FFF7BAFE0A99C860EFF310800B
:103C000072B6159026480590FEF7D8FD049A0598DF
:103C10003F21C90206915202FEF7B4FE05980699AB
:103C20004022FEF79FFD014609A801700078032895
:103C300011D1FFE71A480290FEF7C0FD029801215A
:103C4000490200913F21C9020BAA0823FEF71AFE80
:103C500008A9087003E008A901200870FFE762B610
:103C600008A80078032804D0FFE714A900200870F2
:103C700010E03F20C0020BA91022FCF79DFA01467C
:103C80004842414107A8017000780121084014A969
:103C90000870FFE714A8007816B080BD4E49414770
:103CA00000D00C4080B586B0059004A80390017048
:103CB00000F058FB1F4A01210291084600F031FD37
:103CC000059864210091FCF7A5FA024602980621A6
:103CD0000223019300F0E8FC0298174A082100F043
:103CE00020FD00990598FCF795FA019B02980A4679
:103CF000092100F0D9FC01980299104A00F011FD49
:103D000002990F4A032000F00CFD03980078C007C9
:103D1000002806D0FFE70C4A0420012100F001FD35
:103D200005E0084A0420012100F0FBFCFFE706B093
:103D300080BDC046AC5D00008A5D00009C5D000057
:103D40008C5D0000B85D0000B25D000083B00190A2
:103D50000091019800996431884203D2FFE7642002
:103D6000029004E001980099401A0290FFE702983F
:103D700003B07047E94900200870704780B582B0F1
:103D80000120C10600914204C3040F200021FEF768
:103D90002DFF10488021FEF7ADFFEC480078C007EA
:103DA000002808D1FFE7F1480821FEF799FEE7490E
:103DB00001200870FFE7ED480821FEF7C7FE01204B
:103DC00001900221FEF7BAFF019801F019F902B043
:103DD00080BDC04600200A4080B586B005A90870A5
:103DE000D9480078C00700280ED0FFE705A8007862
:103DF000C007002808D1FFE71F480121FFF710F98D
:103E0000022001F0FDF835E01B480390FFF720F990
:103E10000398FFF7ADFA039801210491FFF7BAF870
:103E200003980499FFF79EF80220029001F074F8BD
:103E300003981249FFF7FEF903981149FFF732F989
:103E4000039810490191FFF72FFA01990398FFF7A2
:103E50005DFA0398FFF7C6F803980499FFF7E0F8B6
:103E6000029801F0CDF80398FFF764FA0498B64978
:103E70000870FFE706B080BD00000940C053000095
:103E8000C4530000FF7F000080B588B0C548009093
:103E9000FFF76EFA29480790FFF76AFA00980121A8
:103EA0000291FFF777F800980299FFF75BF8009806
:103EB000FFF786F82248019000210391FEF766FB88
:103EC00001980299FEF762FB01980221FEF75EFB62
:103ED000029880070590FEF74BFA1A480690FEF705
:103EE00047FA0598FEF79DF80698FEF79AF80598A8
:103EF000FEF7AEF8029905980902FEF7C1F8059899
:103F00002021FEF7D5F803990598C943FEF740F83C
:103F10000420049001F046F8049800F0FDFF059895
:103F2000FEF7A0F90598FEF7D9F80698FEF7D6F83F
:103F30000798FFF745F808B080BDC046008086406E
:103F400000A042400020004080B582B000F0D0F9CF
:103F50000C48FEF713FF0C48FEF79AFA0B48009046
:103F6000FFF706FA0098FFF72BF809480190FFF7D2
:103F7000FFF90198FFF724F8ED48FFF755FA02B072
:103F800080BDC04600804640008001400020864041
:103F90000000864080B582B042480190FFF775FB73
:103FA0000198FFF7C3FB0198FFF784FB02B080BDC7
:103FB00080B58AB0FDF78AFE04A9087000F068F8A1
:103FC000012000F065F900F03FF8FDF787FA0028BE
:103FD0000CD1FFE70020039000F05AF9FFF754FFDF
:103FE000FFF7D8FF039809A9087029E00020029084
:103FF00000F04EF9029805A9FDF7A0F9002808D1B4
:10400000FFE7FFF741FFFFF7C5FF09A90020087090
:1040100016E06D490868401C08600498087105980E
:10402000C880089888600898C860012001900874CA
:10403000FFF72AFFFFF7AEFF019809A90870FFE715
:1040400009A800780AB080BD80B501208007FEF77E
:104050008DF85448FEF7FCFF1020FEF7ABF900F096
:10406000E1FB00F053FC00F083F80248FEF7A2F9F0
:1040700080BDC0460071020080B5AD48FFF7F4F97D
:104080001020FEF797F900F0ADFC00F081FE80BD36
:1040900080B50448FFF722FB1020FEF78BF900F0F3
:1040A000C1FC80BD0000034080B582B0EFF31080FA
:1040B00072B60190FFF762FE0020FFF78DFEFFF75A
:1040C00043FF00F0C3F800F099F870480078022828
:1040D00004D0FFE7012000F01FFFFFE76B480078E6
:1040E000012804D0FFE7022000F016FFFFE7FEF7EB
:1040F00089FEFEF7E1FE62B664480078002802D12E
:10410000FFE730BFFFE7FEF7CDFE02B080BDC0463F
:104110002D4870475D4800787047C0463A1220200D
:1041200080B55A4900200870574908602649086040
:1041300008740549087005490870FFF71FFE012043
:10414000FFF74AFE80BDC0463B1220209B11202075
:1041500080B582B03C4808210191FEF7ACFD019981
:1041600008404142484102B080BDC04600200A409C
:1041700080B582B00B480090FFF7FAF80098012153
:104180000191FEF707FF00980199FEF7EBFE102062
:1041900000F0C2FE00F07EFB19204002FDF7BEF9E0
:1041A00002B080BD0040084080B5FFF7E3FDFFF797
:1041B000FFFE00F0CBF80348034900F007F800F0D9
:1041C000B9F880BD7C5D00009C11202080B582B0D4
:1041D000019000910098002806D0FFE70098007C2D
:1041E000C007002801D1FFE705E000990879C968F8
:1041F00000F0CDFCFFE702B080BD000080B582B0CA
:1042000011480821FEF7D0FC019001A800780007B2
:1042100000280DD5FFE70C480821FEF761FC0120BE
:1042200002210091FEF78AFD00981849087009E004
:10423000FFF78EFF002804D0FFE714490220087022
:10424000FFE7FFE702B080BD00200A4080B582B0E2
:104250000C480121FEF712FF019001A80078C00769
:1042600000280DD0FFE7074801210091FEF77AFEF4
:104270000098054A1168491C116004490870FFE75D
:1042800002B080BD000009403C1220203A122020DC
:1042900080B582B0014601A801700078C0070028EF
:1042A00006D0FFE7012081036148FEF73BFD05E0F2
:1042B000012081035E48FEF73FFCFFE702B080BDAE
:1042C00080B582B0014601A801700078C0070028BF
:1042D00006D0FFE7012041035548FEF723FD05E026
:1042E000012041035248FEF727FCFFE702B080BDE2
:1042F00080B582B00D480190FFE70D48FFF7F6F852
:10430000014600200029009005D0FFE70198411EDA
:1043100088410090FFE70098C007002804D0FFE71D
:104320000198401E0190E8E702B080BD00350C0006
:104330000080104080B50448FEF73CF8FFF7D8FF36
:104340000020FFF7BDFF80BD8038010080B501204F
:10435000FFF7B6FFFFF790FE0148FEF72BF880BD90
:10436000003FAB0180B584B002A900200870FFE7D0
:1043700002A8007807281EDCFFE702A800780021C9
:10438000019100F01BF9019803A90870FFE703A849
:1043900000787F2809DCFFE7002000F02EFAFFE715
:1043A0000398401C03A90870F1E7FFE70298401C3E
:1043B00002A90870DCE704B080BD80B582B0AE20F1
:1043C00000F006FA8D2000F003FA102000F000FA49
:1043D0000120019000F0CAF9019800F0DFF902B065
:1043E00080BD80B58D2000F0F3F9142000F0F0F9C5
:1043F000AF2000F0EDF980BD80B584B00720FEF756
:104400002DFC0820FEF72AFCF048019018210291AB
:10441000FEF788FB01980299FEF7B0FB012003909C
:1044200000F0A4F9039800F0B9F904B080BDC046CB
:1044300000000A4080B582B001A9087069460020DA
:104440000870FFE768460078072815DCFFE701A839
:10445000007869460A788021D140084000F09EF932
:10446000012000F083F9002000F080F9FFE70098B8
:10447000401C69460870E5E7012000F077F900204C
:1044800000F074F902B080BD80B582B001200090C8
:1044900000F084F9009800F069F90020019000F024
:1044A0007DF9019800F062F902B080BD80B582B05C
:1044B000002000F073F90120019000F057F90198F5
:1044C00000F06CF902B080BD80B582B00020019090
:1044D000FFE70198C0087C2812D8FFE70020009071
:1044E000FFE70098C0087C2805D8FFE7FFE70098A1
:1044F000401C0090F5E7FFE70198401C0190E8E7B9
:10450000FFF77AFFAE2000F063F9D52000F060F9E4
:10451000802000F05DF9A82000F05AF93F2000F05B
:1045200057F9D32000F054F9002000F051F9402051
:1045300000F04EF9A12000F04BF9C82000F048F936
:10454000DA2000F045F9122000F042F9812000F055
:104550003FF9CF2000F03CF9D92000F039F9F120E3
:1045600000F036F9DB2000F033F9302000F030F9AC
:10457000A42000F02DF9A62000F02AF98D2000F0EB
:1045800027F9142000F024F9FFF72BFFFFF7EAFECC
:1045900002B080BD83B00290019101200090FFE73E
:1045A0000198411E0191002805D0FFE7029800996B
:1045B00048430090F4E7009803B0704780B584B09A
:1045C000024603A8027002AA019211700078B0217D
:1045D000084300F0FDF8019800780009103000F061
:1045E000F7F8019800780F21084000F0F1F804B0C6
:1045F00080BD000080B584B003AB187002A80170C4
:1046000001A8027003984000801E0299C900083971
:10461000C0B2C9B2FFF7D2FF694600200870FFE7B9
:1046200068460078072812DCFFE701A8007800013F
:104630001A4940186946097840181A49405C00F048
:10464000DCF8FFE70098401C69460870E8E703982B
:104650004000401E0299C9000839C0B2C9B2FFF734
:10466000ADFF694600200870FFE76846007807281C
:1046700012DCFFE701A800780001084940186946EC
:10468000097840180649405C00F0B7F8FFE7009849
:10469000401C69460870E8E704B080BDD8530000AC
:1046A00008FEFFFF00FEFFFF10B58AB009AC2070C6
:1046B00008A80170079206A8037005A900200870D9
:1046C000FFE705A8007806A90978884227DAFFE7FE
:1046D00009A800780390089905A8007809180491A2
:1046E0000799019106A90978C04341180A20029050
:1046F000FFF750FF01460198FBF78CFD0299FBF78D
:1047000089FD03980A46049930231A43C9B2FFF77A
:1047100071FFFFE70598401C05A90870D1E70AB0B2
:1047200010BD80B584B003AB187002A8017001926F
:10473000694600200870FFE7019869460978405CE7
:10474000002811D0FFE703A8007802996A46137881
:10475000C918019AD25CC9B2FFF74CFFFFE7009875
:10476000401C69460870E7E704B080BD80B582B0A0
:10477000014601A801700078002805D0FFE7E44851
:104780001021FEF7C5FA04E0E1481021FEF7CAF94E
:10479000FFE70820FDF70EFE02B080BD80B582B0B5
:1047A000014601A801700078002805D0FFE7D8482D
:1047B0000821FEF7ADFA04E0D5480821FEF7B2F96A
:1047C000FFE70820FDF7F6FD02B080BD00000A40BB
:1047D00080B582B001A900910870FFF755FE7820DE
:1047E000FFF728FE0020FFF725FE00980078FFF76E
:1047F00021FEFFF75BFE02B080BD80B582B001A94B
:1048000000910870FFF740FE7820FFF713FE40206C
:10481000FFF710FE00980078FFF70CFEFFF746FE4A
:1048200002B080BD80B588B019490120069080078C
:104830000790FDF71FFD069B079800210591019148
:10484000009159041A05FDF7DBFC0599069A0798B3
:104850000491039102910191009153020722FDF707
:10486000A5FB069907980904FDF740FD079802216A
:10487000FDF74CFD06990798FDF722FD069907986C
:10488000FDF750FD07982021FDF76AFB08B080BDB9
:10489000C859000080B584B01449A0480090FEF7C4
:1048A000C9FC00981249FEF7FDFB0098FEF792FB49
:1048B00000980021039101220192FEF79DFB0098D0
:1048C000019A0399FEF7FCFC00980199FEF736FB6C
:1048D000019A039992480290FEF78EFB0298039981
:1048E0000222FEF7EDFC04B080BDC046D0590000A6
:1048F000D459000080B5034A03480021FDF77CFE2F
:1049000080BDC046E859000000A0424080B5FFF7D6
:10491000F1FF80BD80B588B014200221FEF7B2F906
:104920002320FEF791F90120059081030291784838
:104930000390FEF7E3F802990398FEF715F9222099
:10494000FEF782F90398059949030491FEF7D6F81A
:1049500003980499FEF708F92E20FEF789F9342010
:10496000FEF786F905980023079300930204069248
:104970003B201946FEF724F9069A079B0093362040
:104980001946FEF71DF9069A079B00933320194636
:10499000FEF716F9069A079B00932B201946FEF79F
:1049A0000FF908B080BDC04680B582B000200190EC
:1049B000FEF750FA0198FEF791FA019800F06EF9AF
:1049C0000320FEF753FAFEF701FAFEF713FAFEF79B
:1049D00023FA0198FEF756FA019800F031F902B077
:1049E00080BD000080B582B00C49E8480190FEF718
:1049F000E7FD01980A49FEF74BFD01980021FEF7FB
:104A0000F1FD019804211622FEF7B6FD0198FEF78C
:104A1000E7FC0198FEF712FD02B080BD005A0000CD
:104A2000025A000080B582B0094940480190FEF763
:104A300089FE01980749FEF703FEFFE73B48FEF7B2
:104A400059FE012801D0FFE7F8E702B080BDC0465B
:104A50000C5A0000105A000080B58CB02C48009011
:104A6000FEF740F92B480190FEF73CF92A480290E6
:104A7000FEF7A0FB29480390FEF79CFB2848049012
:104A8000FEF798FB27480590FEF794FBD648069062
:104A9000FEF768FD24480790FEF786F92348089042
:104AA000FEF73CFE012080070990FDF7D3FB20486C
:104AB0000A90FDF7CFFB1F480B90FDF7FFFC009815
:104AC000FEF768F80198FEF765F80298FEF7B6FA67
:104AD0000398FEF7B3FA0498FEF7B0FA0598FEF7CC
:104AE000ADFA0698FEF7B6FC0798FEF751F908985C
:104AF000FEF7EAFD0998FDF72FFB0A98FDF72CFB5E
:104B00000B98FDF7CFFC1020FDF754FC0CB080BDD6
:104B100000000A4000200A40000086400040084093
:104B20000080864000208640008046400000034010
:104B3000002000400080014010B586B004AC207019
:104B40000391029201A803800298002805D0FFE794
:104B500001A80088062804D8FFE705A900200870EE
:104B600011E00299A52008700498029948700298F3
:104B7000811C039800F050F802995A20887105A909
:104B800001200870FFE705A8007806B010BD80B5C9
:104B900086B0024604A8027003910078039901AA26
:104BA0000723FFF7C9FF002804D1FFE705A900206C
:104BB000087009E001A8072100F018F900F008F8D2
:104BC00005A901200870FFE705A8007806B080BDA0
:104BD00080B582B0BA480190FFE7BA48FEF7A4FC5E
:104BE000002809D0FFE7B748FEF78AFC01460020FD
:104BF0000029009005D0FFE70198411E88410090F0
:104C0000FFE70098C007002804D0FFE70198401E86
:104C10000190E2E702B080BD83B00290019102985A
:104C2000009000980199087068464178019A517087
:104C30008178019A9170C0780199C87003B070476B
:104C400080B582B00090009800280CD1FFE7FFE704
:104C5000FEF7EAF80005002801D4FFE7F8E701A90C
:104C60000120087016E0FFE7009800280ED0FFE74B
:104C7000FEF7DAF80005002804D5FFE701A90120B6
:104C8000087007E00098401E0090EDE701A90020A1
:104C90000870FFE701A8007802B080BD80B582B03F
:104CA0000090009800280BD1FFE7FFE7FEF7C4F85B
:104CB000002801D0FFE7F9E701A90120087015E0FD
:104CC000FFE7009800280DD0FFE7FEF7B5F80028B1
:104CD00004D1FFE701A90120087007E00098401EF9
:104CE0000090EEE701A900200870FFE701A8007816
:104CF00002B080BD80B582B00A48FEF7B5F9012840
:104D00000DD1FFE7074801210191FEF72BF901982A
:104D1000054A1168491C11600449087000E0FFE76A
:104D200002B080BD000009403C1220203A12202031
:104D300080B500F001F880BD80B582B06148FEF713
:104D40009DFB01460191012809D0FFE70198801ED3
:104D5000042812D3FFE701980B2813D1FFE7FFE7E0
:104D60005848FEF7D7FB002806D1FFE75548FEF765
:104D7000EFFB00F061F8F3E705E052481E21FEF773
:104D80000DFB00E0FFE702B080BDC0460080104090
:104D900080B53849002008803749088038490870B4
:104DA00006490880064908700649087006490870D7
:104DB00044480649FEF7F2FA80BDC046B0112020F3
:104DC000B3112020B21120209A1120201F040000CE
:104DD00080B582B0014601A8017001783948FEF71C
:104DE0001BFC02B080BDC0460080104080B584B07E
:104DF000039002A801800398002801D1FFE718E082
:104E000001A900200880FFE701A8008802A90988FD
:104E100088420EDAFFE7039801A90988405CFFF792
:104E2000D7FF00F02FF8FFE70198401C01A9088088
:104E3000EAE704B080BD000082B001A908700D4807
:104E40000088411C7F2001406846018000880A4993
:104E50000988884204D1FFE709490120087007E06A
:104E6000019804490B88054AD05400980880FFE750
:104E700002B070473812202036122020B4112020B2
:104E80003412202080B582B00D480190FFE70D4814
:104E9000FEF722FB014600200029009005D0FFE725
:104EA0000198411E88410090FFE70098C007002844
:104EB00004D0FFE70198401E0190E8E702B080BDF2
:104EC00000350C000080104081B00146684601703A
:104ED00000214056002809D4FFE7684601781F20CA
:104EE00001400120884016490860FFE701B0704783
:104EF00081B001466846017000214056002809D45F
:104F0000FFE7684601781F200140012088400C49D6
:104F10000860FFE701B0704781B001466846017044
:104F200000214056002809D4FFE7684601781F2079
:104F300001400120884002490860FFE701B0704746
:104F400080E200E081B001466846017000214056D1
:104F500000280DD4FFE7684601781F20014001209A
:104F600088401C490860BFF34F8FBFF36F8FFFE786
:104F700001B0704781B0014668460170002140567B
:104F800000280DD4FFE7684601781F20014001206A
:104F9000884010490860BFF34F8FBFF36F8FFFE762
:104FA00001B0704781B0014668460170002140564B
:104FB00000280DD4FFE7684601781F20014001203A
:104FC000884004490860BFF34F8FBFF36F8FFFE73E
:104FD00001B0704780E100E081B001466846017091
:104FE00000214056002809D4FFE7684601781F20B9
:104FF0000140012088400C490860FFE701B070477C
:1050000081B001466846017000214056002809D44D
:10501000FFE7684601781F200140012088400249CF
:105020000860FFE701B0704700E100E080B584B0A0
:105030000020039002A9087001900090FFF70CFD7A
:10504000FFF768FCFFF7B0FCFFF724FCFFF7CAFC92
:10505000FFF7E8FCFFF7E6FBFFF758FCFFF734FA31
:10506000FEF7CAFB1E4A01210846FFF75AFBFFF76D
:10507000A4F9FFF755F8FFE702A8007801210840DE
:10508000FCF76EFEFFF710F8FFF744F8012813D184
:10509000FFE7FEF76FFE0098401C00900098002884
:1050A00005D0FFE700200090FFF77EF8FFE702A899
:1050B00001A9FCF7D9FE12E0FFF72CF802280AD16B
:1050C000FFE7FEF757FEFCF7F1FE02A9012008708A
:1050D0000620019002E0FEF74DFEFFE7FFE7CBE779
:1050E000315A000003B40148019001BD01002020A5
:1050F00010B500F073F8EFF30080800001D50120B7
:1051000010BD002010BD0000F8B506460C46FBF7A8
:10511000C5FF051E0F4600D00120014349000B4882
:105120004908411AC90F0DD0002E01D0012100E01D
:1051300000210C4361004908401AC00F02D1012030
:10514000FBF7A6FF28463946F8BD00000000F07FB7
:1051500070B50125ED0704004C4020D4441A01D25B
:10516000001B0919C60D4B00F2B2FF2A29D01B0EF5
:105170002CD000020C0228432C43D31ADC40051922
:1051800010D2280A02D3401C6D0611D0761EF605F7
:105190008019FF2A00DA70BDC00DC00570BD6940DE
:1051A00000F04CF801200543C541521C761CE8E78D
:1051B00064089C40C90161408900E7D10124A043F3
:1051C000E4E71B0E440200D0034870BD002AFCD166
:1051D000C00FC00770BD00BF0000C07F0123DB050A
:1051E00002000A430DD4DA4203D49A4207D488421B
:1051F0007047D84214D4D94212D4884270478042B2
:105200007047DA4203D59A42F9D5814270475B0074
:105210004200DA4204D24A00DA4201D281427047A7
:1052200010B5024AFBF7BEFF10BD00BF0900130412
:1052300070B50125ED0704004C4022D4441A02D277
:105240006C40001B0919C60D4B00F2B2FF2A4BD06F
:105250001B0E50D000020C02A8432C43D31ADC4092
:10526000051B05D5AD0019D36D08761E521E37D02B
:10527000F605280A01D2801970BD70416D0603D071
:1052800070BD6940FFF76AFF9C4009026140490018
:1052900001D0401E70BD0124A04370BD6D081DD01B
:1052A00001202B0C01D12D0410302B0E01D12D0229
:1052B00008302B0F01D12D01001DAB0F01D1AD0026
:1052C000801CEB0F01D16D00401C361A121A6D00C4
:1052D000680AF5054019012A02DB70BD002070BD87
:1052E000C036300AC00770BD1B0E440201D1FF2B2F
:1052F00000D1024870BD002AF0D070BD0000C07F10
:1053000080807F7E7D7C7B7A797877767675747302
:10531000727171706F6E6E6D6C6C6B6A6A696868C1
:10532000676666656464636362616160605F5F5E57
:105330005E5D5D5C5C5B5B5A5A59595858575756CD
:105340005655555554545353525252515150505032
:105350004F4F4F4E4E4D4D4D4C4C4C4B4B4B4A4A84
:105360004A494949484848474747474646464545C8
:105370004544444444434343434242424241414101
:105380008182838485868788898B8C8D8E8F91928C
:1053900093959697999A9C9D9FA0A2A3A5A7A8AA2A
:1053A000ACAEB0B2B3B5B7B9BCBEC0C2C5C7C9CC4C
:1053B000CED1D4D7D9DCDFE2E6E9ECF0F3F7FAFEA0
:1053C0000200000002000000FF7F0000000000005B
:1053D00000000000000000000000000000000000CD
:1053E0000000000000000000000000F800000000C5
:1053F000000000333000000000100C06100C060006
:10540000000000000000000040C07840C07840006C
:10541000043F04043F040400007088FC08300000CE
:10542000001820FF211E0000F008F000E018000026
:1054300000211C031E211E0000F0088870000000DF
:105440001E2123241927211010160E000000000031
:105450000000000000000000000000E0180402004E
:10546000000000071820400000020418E0000000BF
:105470000040201807000000404080F080404000BD
:105480000202010F01020200000000F00000000013
:105490000101011F010101000000000000000000E7
:1054A00080B070000000000000000000000000005C
:1054B00000010101010101010000000000000000E5
:1054C0000030300000000000000000008060180480
:1054D000006018060100000000E010080810E0005D
:1054E000000F102020100F00001010F80000000026
:1054F0000020203F2020000000700808088870006D
:1055000000302824222130000030088888483000EC
:105510000018202020110E000000C02010F800000C
:1055200000070424243F240000F8088888080800A5
:105530000019212020110E0000E0108888180000BA
:10554000000F112020110E0000380808C83808008C
:105550000000003F0000000000708808088870000C
:10556000001C222121221C0000E010080810E0008D
:105570000000312222110F00000000C0C000000016
:10558000000000303000000000000080000000003B
:105590000000806000000000000080402010080033
:1055A00000010204081020004040404040404000FC
:1055B00004040404040404000008102040800000D7
:1055C0000020100804020100007048080808F000DC
:1055D0000000003036010000C030C828E810E000AC
:1055E0000718272423140B000000C038E000000037
:1055F000203C23020227382008F8888888700000A1
:10560000203F202020110E00C03008080808380074
:10561000071820202010080008F808080810E000EB
:10562000203F202020100F0008F88888E80810008C
:10563000203F20202320180008F88888E808100060
:10564000203F200003000000C03008080838000098
:1056500007182020221E020008F808000008F80899
:10566000203F210101213F20000808F80808000020
:105670000020203F2020000000000808F808080053
:10568000C08080807F00000008F888C028180800CB
:10569000203F20012638200008F808000000000004
:1056A000203F20202020300008F8F800F8F80800FB
:1056B000203F003F003F200008F830C00008F808F5
:1056C000203F200007183F00E01008080810E00005
:1056D0000F10202020100F0008F808080808F0001C
:1056E000203F210101010000E01008080810E0003F
:1056F0000F18242438504F0008F8888888887000D4
:10570000203F2000030C3020007088080808380073
:105710000038202121221C00180808F80808180069
:105720000000203F2000000008F808000008F808EA
:10573000001F202020201F000878880000C838089B
:10574000000007380E010000F80800F80008F80013
:10575000033C0700073C03000818688080681808AD
:1057600020302C03032C30200838C800C83808002B
:105770000000203F2000000010080808C83808007A
:105780002038262120201800000000FE020202001E
:105790000000007F40404000000C30C000000000CE
:1057A000000000010638C00000020202FE000000F6
:1057B000004040407F00000000000402020204009C
:1057C00000000000000000000000000000000000D9
:1057D00080808080808080800002020400000000C1
:1057E00000000000000000000000808080800000B9
:1057F0000019242222223F2008F8008080000000A7
:10580000003F112020110E00000000808080000069
:10581000000E112020201100000000808088F80078
:10582000000E112020103F200000808080800000AA
:10583000001F222222221300008080F0888888180E
:105840000020203F20200000000080808080800019
:10585000006B94949493600008F8008080800000AE
:10586000203F210000203F20008098980000000089
:105870000020203F202000000000008098980000B9
:1058800000C08080807F000008F8000080808000D9
:10589000203F24022D302000000808F800000000FE
:1058A0000020203F202000008080808080808000B9
:1058B000203F20003F20003F80800080808000004B
:1058C000203F210000203F200000808080800000D9
:1058D000001F202020201F0080800080800000000A
:1058E00080FFA12020110E00000000808080800039
:1058F000000E112020A0FF8080808000808080002A
:1059000020203F2120000100000080808080800056
:105910000033242424241900008080E080800000CB
:105920000000001F20200000808000000080800018
:10593000001F202020103F20808080000080808079
:1059400000010E3008060100808000800080808009
:105950000F300C030C300F0000808000808080002E
:105960000020312E0E312000808080000080808059
:1059700080818E7018060100008080808080800009
:105980000021302C2221300000000000807C020227
:1059900000000000003F404000000000FF00000049
:1059A00000000000FF0000000002027C80000000F8
:1059B0000040403F00000000000601010202040414
:1059C00000000000000000000105000000000000D1
:1059D0000800000002000000760200000000000045
:1059E0000000000000000000170000000000002080
:1059F00000000000000100010000000000000300A2
:105A00000800000010000000003000000800000046
:105A10000180000000000000000000005345513AE2
:105A2000004355523A004E4F2044415441006D41CD
:105A3000004C50205265616479006368300D0A00A3
:105A4000424547494E3A4144435F4652414D452CF9
:105A500053414D504C455F4E3D25752C46535F4894
:105A60005A3D25752C54494D45525F504552494F7A
:105A7000443D25752C54494D45525F505245534382
:105A8000414C453D25752C4D4F44453D54494D45B0
:105A9000525F4556454E545F53494E474C455F440F
:105AA0004D412C4348414E4E454C5F53495A453D6C
:105AB000322C4348303D504132325F414443302C18
:105AC0004348313D504132315F414443310D0A007A
:105AD0004D53504D304733353037204144432072C9
