:020000040000FA
:10000000601920208D010000910100009301000083
:1000100000000000000000000000000000000000E0
:10002000000000000000000000000000950100003A
:10003000000000000000000097010000990100008E
:100040009B010000793E0000BD5A00009B010000AA
:1000500005160000AD2000009B0100009B01000080
:10006000000000009B0100009B0100000000000058
:10007000000000009B0100009B0100001D610000CA
:100080009B010000995A00009B0100009B010000A9
:100090009B010000015A0000000000000000000069
:1000A0009B0100009B010000000000000000000018
:1000B0009B010000000000009B0100009B0100006C
:1000C00000F002F800F052F812A030C808382418E6
:1000D0002D18AC4201D100F049F80FCCA246AB4636
:1000E0000CA730CF2D1B083F3F197C427F1E544484
:1000F0002D090426F441641EAC4201D300F036F809
:100100000126334200D0FB1A3343984754465D46DC
:10011000DFE700004C8800006C8800000000000051
:10012000103A02D378C878C1FAD8520701D330C840
:1001300030C101D504680C60704700000000000069
:100140007047000000000000002300240025002666
:10015000103A01D378C1FBD8520700D330C100D583
:100160000B6070471FB51FBD10B510BD01F0C2F97F
:100170001146FFF7F7FF06F0A1FD01F0DAF903B42D
:10018000FFF7F2FF03BC01F035FA00000648004714
:10019000FEE7FEE7FEE7FEE7FEE7FEE70348044969
:1001A000024A044B70470000C10000006018202084
:1001B00060192020601820204343514330B55C185B
:1001C000010C130C0D4692B25D4380B251432C19C1
:1001D000054655430A0C09044D1962415843010C68
:1001E00000044019514130BDFEB5044610460D468D
:1001F000184373D0A6468C460020A41A01469D41A0
:1002000067D36646002701243D46B61A9D4102D3B6
:1002100013463A462124654676462F04360C3E4363
:100220002D0CB61A9D4104D3150C1B042B4312044C
:100230001034654676462F06360A3E432D0AB61A16
:100240009D4104D3150E1B022B4312020834654650
:1002500076462F0736093E432D09B61A9D4104D331
:10026000150F1B012B431201241D65467646AF076F
:10027000B6083E43AD08B61A9D4104D3950F9B00C6
:100280002B439200A41C65467646EF0776083E4352
:100290006D08B61A9D411AD392185B41641C16E092
:1002A0000018764665464941B71A9D410191009074
:1002B00009D36046B11A98418E4684460098019948
:1002C0000025401C6941DD0752082A435B08641E73
:1002D000E6D57246634603B0F0BDFFE720462843EB
:1002E00007D00020C0430146C046C04622462B46E8
:1002F000F1E700200146F7E7002203098B422CD3E7
:10030000030A8B4211D300239C464EE003460B4365
:100310003CD4002243088B4231D303098B421CD3C7
:10032000030A8B4201D394463FE0C3098B4201D3B9
:10033000CB01C01A524183098B4201D38B01C01AF1
:10034000524143098B4201D34B01C01A5241030968
:100350008B4201D30B01C01A5241C3088B4201D317
:10036000CB00C01A524183088B4201D38B00C01AC4
:10037000524143088B4201D34B00C01A5241411AEB
:1003800000D201465241104670475DE0CA0F00D0CE
:100390004942031000D3404253409C4600220309C7
:1003A0008B422DD3030A8B4212D38901FC2212BA4D
:1003B000030A8B420CD3890192118B4208D3890125
:1003C00092118B4204D389013AD0921100E089093D
:1003D000C3098B4201D3CB01C01A524183098B421E
:1003E00001D38B01C01A524143098B4201D34B0107
:1003F000C01A524103098B4201D30B01C01A52416A
:10040000C3088B4201D3CB00C01A524183088B42F0
:1004100001D38B00C01A5241D9D243088B4201D379
:100420004B00C01A5241411A00D2014652411046B7
:1004300063465B1001D34042002B00D54942704710
:1004400063465B1000D3404201B50549002802DC39
:10045000491C084000E00846C046C04602BD00BF37
:10046000FFFFFF7F70477047704700000246C80FCC
:10047000C00781434B0030B54B405B009B0D20D043
:100480001923DB06C91801231B05994220DB03242D
:10049000A40704251346AB400BD3002B04D1EB0675
:1004A00013409B00E34204D4012464070023121983
:1004B0005941FF231B0599420BD2C9000143500F3C
:1004C00009E0CB0204D501430803024305D00548E7
:1004D00030BDFF21C905084330BD08460721090585
:1004E000884330BD0000C07FF0B50C46871A9C41A0
:1004F0000D46861A9D4103D2C01BA141D21963410A
:100500000D0D1F0DC94EEC1BAE435CD07F057F0D5A
:100510000026002F51D02D05AC46A943DD02012352
:10052000ED0A1B051D4320231B1B24D41746E7405F
:10053000381871412F46E740CC199D4028183146A4
:1005400061410C0D27D161449A4013D50023401C12
:10055000594152000ED14008400001224B00520583
:10056000D34207D305204007C14201D5B04900E07E
:10057000B0493046F0BD6B00002A00D001229A1825
:100580001F23203C1B1B01D5002302E0E540281857
:1005900071410C0DD7D0012424050919C407CD07DA
:1005A00040084908E40F28436144002CD5D00024BA
:1005B000401C61419A40D0D1CDE76A05520DD9D196
:1005C000C90FC907D5E79C4D4E00002801D0012472
:1005D00000E0002434195F00002A01D0012600E069
:1005E0000026BE19954FAC420CD8AE420AD8B44290
:1005F00006D001256D05EC42BCD010461946F0BD71
:100600009942FCD000203946F0BDF0B51FB40C462D
:100610000F46811A9F412546861A9D4106D2012523
:10062000ED076F40401ABC4152187B41210D1E0D51
:100630008D1BAC467D4D8D437ED075056D0D7CD0F8
:100640000D05AE46AC431B031B0B794D52429D4139
:10065000202366469B1B14D31746F7403818002604
:100660000090744160462F460741E41900989D4070
:100670002818664116D4714671189A4025D5012371
:1006800020E093182A466A415200002B00D0521CE9
:100690001E23203E9B1B002B61DD3541EE172818E1
:1006A0006641E8D5001876415B1C9A4000D3401C97
:1006B0004B05F3181524E34010D3002B52D071469C
:1006C0007118D30FC01802D3491C05B0F0BD012327
:1006D000DB079A42F9D140084000F6E701225205B3
:1006E000B21801D1002853D00123CC0ADB02994370
:1006F000891E002A08D1020C03D0020C0004103914
:1007000002E00246002020390023550B05D11202D9
:100710000823550B01D152010D23550C01D11201B3
:100720001B1DD50C01D192009B1C150D01D152004F
:100730005B1C2025EE1A01E02CE022E00546F54086
:1007400015439840CA1AE10769181305C918002A09
:10075000BBDA032040070818C10FC9070FE0714634
:100760006118B2E7F10740080843711071444A006C
:100770000CD001235B059A42A7D2C90FC9070020FC
:10078000A3E74905490D26D1002001E00028F4D156
:1007900000219AE7284D6600002801D0012100E0E1
:1007A000002171185F00002A01D0012600E0002618
:1007B000BE19224FA94210D8AE420ED8B14208D07D
:1007C00001256D05E94206D01946A80241401046B0
:1007D0007BE79C4201D0214677E70020394674E749
:1007E00010B50C465C4005D50124E4076340FFF7D3
:1007F0000CFF10BDFFF778FE10BD30B40C465C4016
:1008000004D50124E407634030BC6DE630BCFCE64F
:1008100070B50124E40761400D465D4002D4FFF746
:1008200063FE70BD6340FFF7F0FE70BDFF07000080
:100830000000F0FF0000F07F0000E0FF0000F87F04
:10084000F0B5F94D0C091E092C402E402F468BB0F7
:10085000A7437DD0B543FCD0002E7AD0002CFCD02D
:100860000D465D40ED0F2543AC1BFF25AD0464191B
:100870000894C502440DC9022143500DDC02044313
:100880000120C00701430443D2020191200C110C46
:1008900000958C46010423468B430A916146090466
:1008A000E24D8A430991010A7D444919803909784A
:1008B00005464D4301266D18F605751B6943C90CA5
:1008C000640B891C4C436418B5012C1B250C2E04A9
:1008D000B4434C434D43210C691889090591009D8F
:1008E000E90701D00121C90704912C460199670845
:1008F000CD072F434C08059DE10B4D432D0C294698
:100900006646754302950D4645432E46029D7D1B66
:10091000B44100950D465D4301942C0C2F040D4607
:100920005543AE462D0C3D43029503947546049CF9
:100930002D04641B049406D2029C039D641C0026B3
:1009400075410395029401AC70CC009F7D1B01E0C2
:100950003EE162E1B44109040095079101940599D3
:10096000A4086143090C0C464443650BE7040C469C
:1009700066467443A646640B3C4303950294744652
:10098000049DE4042C1B049406D2029C039D641C69
:10099000002675410395029401AC70CC009F7D1B2D
:1009A000B44101940C465C430095650FE7000C468A
:1009B0005443A646640F3C43039502947446049D39
:1009C000E4002C1B049406D2029C039D641C0026A8
:1009D00075410395029401AC70CC009F7D1BB4411E
:1009E000AE09AF06049DC900AD092F43049DA406BE
:1009F000AD060495079D344369180791059DE10BE9
:100A00004D432D0C29466646754302950D464543D8
:100A10002E46029D7D1BB44100950D465D43019419
:100A20002C0C2F040D465543AE462D0C3D4302952C
:100A300003947546049C2D04641B049406D2029C06
:100A4000039D641C002675410395029401AC70CC93
:100A5000009F7D1BB44101948C050694079C890A74
:100A6000611800950791019C0599A4086143090C40
:100A70000D464543680BEF040D46644665436C0B19
:100A80003C43049FED047D1BAC4602D20025641C50
:100A90006841009E019D371B8541084658430195DA
:100AA0000C46460FC5005443600F28436546E400DA
:100AB0002C1B02D20025401C6E41019D3F1AB541FE
:100AC0002846BD09800628438446A009BF064E0279
:100AD0000699A40676180743079D002068410A99E5
:100AE000079019430020099B00906046FF191343AB
:100AF0004041E20F64003A43A4460446D71A8C41B1
:100B0000A04203D90120009020463A46C70F94180E
:100B100040416246D20F2243644664000494009C24
:100B2000BE466400D71AA446044602978C41774615
:100B3000002F01D1A04204D96046401C8446029A8D
:100B40002046C40FA64694184041049A0546D20F89
:100B5000224364466400D31A8D417146002901D1B5
:100B6000A84202D928461A46641C104301220028D4
:100B700000D0164361020020079B891904465C419E
:100B80000223002C02DB491813466441089DCE0A5B
:100B90002D145D194B056705E10A2C050D190899FF
:100BA0003E43C9076940002B08D0934006D300227A
:100BB000761C5141002B01D1760876001C4A002D8D
:100BC00043DB154241D0AA433FD030460BB0F0BDC5
:100BD00006180D464D41174C7642AC411AD3951874
:100BE0001C465C41134A6D42A24113D301225205B7
:100BF0004C00D4420AD15C00D4420BD04B4002D509
:100C000092021143E2E749004908DFE75940C90F62
:100C1000C90718E000200849D8E7054801420DD16E
:100C20000342F7D0F2E700000000FF075C7000000D
:100C30000000F07F0000E0FF0000F87F11485940FD
:100C40000143C01241400020C0E70123089A9B06DF
:100C50009A4205DC032252078918C90FC907B5E774
:100C6000052252078918074A1143D2125140ADE7B5
:100C700070B515461C4602460B4628462146FFF72E
:100C8000DFFD70BDFFFFFF7F30B50346CA02400D98
:100C90001043164D164C0A1502D02043002A06DBDD
:100CA000AA1A002A12DDD040FF2A0BDC30BD520503
:100CB000520D01D140004008AA1A07D4D04040424A
:100CC000FF2A01DD002030BD0028FCDD4A00002B9A
:100CD00001D0012000E00020101801225205D0426E
:100CE000F0D8C817C043604030BD00001E040000AB
:100CF000000000800346CA02400D10B510430A15DB
:100D000004D00124E4072043002A05DB0A4CA21A80
:100D100004D4D040FF2A00DD002010BD4A00002B83
:100D200001D0012000E00020101801225205D0421D
:100D3000F2D8C817C04310BD1E0400001F22030CC8
:100D400002D10F22000402D0030E03D004E00020E1
:100D5000014670470002083A030F01D10001121F3B
:100D6000830F01D18000921E002801DB4000521E3B
:100D7000120551184205C012411810467047C10FA4
:100D8000C90700D04042012292071143D6E7012152
:100D90008907D3E7F0B58B4C0F09254689B0BD43D1
:100DA0007BD01D092646AE43FAD00E465E40274052
:100DB000F60F3E43254071D024012142FBD0FF2491
:100DC000AD19A4042D1B039501252D05DB02DB0ABB
:100DD000C9022B43C90A29431E010901040F130F3D
:100DE000050121431701880B820391432D098C468D
:100DF000A90B1E438A039543B30B9A0396433F09FD
:100E0000BA0B9403A74302962E467E430497B64638
:100E10004E19D7190C460196544305977E43371B4C
:100E20007646BF1B3601B646BE0B3619009676468F
:100E3000BC043719009C01D3641C00946400002F8B
:100E400001D001263443029E049F754366467E43CB
:100E50000496760034196E0034190094029C019EA9
:100E60001C196643751BAE46069465464519059CDC
:100E700005956C43594375460891691A0191049E82
:100E800001465143A41B0491611A009C0791E1069D
:100E900005D061090122114302E072E06EE06109B0
:100EA000089D00272C0A2D066918049D7C412A0AFA
:100EB0002D066918019D6241AC0DAD026D185441BB
:100EC000079A910D920255196141029A644658435E
:100ED0005443069B059A5A43121A131B9A0E9B0100
:100EE0005B187A41010B0005C3185141220A200604
:100EF00044195A419A4200D2491C012040028142C1
:100F000003D315230226F64302E014230326F643F7
:100F10002020C51AA9401746AF40DA400A432046B0
:100F20000399D8400914731819055118039A3843C6
:100F3000D2075140AC4009D00122944006D3002290
:100F4000401C5141002C01D1400840001E4A9342F0
:100F500012D3012203989206904207DB0520400736
:100F600009181A480143C012414004E00320400719
:100F70000818C10FC907002009B0F0BD0020F10713
:100F8000FAE705180C464C4111486D42A04115D3B3
:100F900094181A465A410E48644290410ED30120DB
:100FA0004A004005824209D35A00824206D3594082
:100FB000C90F084AC90700201143DDE70020064990
:100FC000DAE700000000FF07FE070000FFFFFF7FD9
:100FD0000000E0FF0000F07F0000F87F0121C9055C
:100FE0000123411842001B06D3185B0E0AD0C11022
:100FF0000722D206891840075242D14201D5520039
:1010000089187047090208D50146002A03D0C10F8C
:10101000C9070020704710467047420202D00020E6
:1010200002497047072109050143F4E70000F87FF2
:10103000F0B5FF252D04C609C209FF2704462E403E
:101040000137CB093E4348402A402B400746002A3F
:101050006BD0002B69D0AA4267D0AB4265D0002884
:1010600000DA32460125ED0529432C43090220020E
:10107000090AD21A4B0C7F24E31A434C000A7C4421
:10108000E35C7D242404121914145B00A218884226
:1010900001D3521C00E0400049420C465C4324113D
:1010A0005C43DB016415E318040A5C43C502200DB0
:1010B0000C4644436419250A5D432303EC0C0D469A
:1010C000654300030019EB184C42A34201D35B189F
:1010D000401CD4052018002B07D05B00C91804D38E
:1010E000401C002901D1400840003F2189048A4268
:1010F00009D3002A08DC1106090F04D0032149078F
:101100004018C00FC007F0BD012241001206891827
:101110007F2252069142F6D205214907C84201D5E5
:101120009010F0BDFF20C005F0BD002F00DA324660
:101130001648AA4207D2AB4205D21902090E17D0AF
:10114000F80FC007F0BDFF2563002D06AB42F9D8AC
:101150004900A942F6D8AB4201D1A942F2D0A94236
:1011600001D1002101E061004908D0050843F0BD2C
:101170001102090EFBD0FF200243D005F0BD0A4644
:101180000146104654E70000066900000000C07FD9
:1011900010B501469E240002CA15A307002A02D0FA
:1011A0001843002A04DBA21A002A0CDDD04010BD2F
:1011B0001206120E01D140004008A21A03D4D040FA
:1011C00040420028F3DDFF2248001206904201D978
:1011D000002010BDC817C043584010BD0102C21501
:1011E00004D00123DB071943002A0ADB9E239A1A45
:1011F00002D40846D0407047FF22410012069142B7
:1012000001D900207047C017C04370471F22030C4C
:1012100002D10F2200041CD0030E01D10002083AB3
:10122000030F01D10001121F830F01D18000921E14
:10123000002801DB4000521ED2055118021251183D
:101240001922904004D3491C002801D149084900C3
:1012500008467047C10FC90700D0404201229207DB
:101260001143D3E701218907D0E710B500F088F8D2
:10127000006810BD10B5044600F082F8046010BD8F
:10128000F0B53D4B02460C461C400020002C63D0BC
:101290003A4D8B4366D000296BDB0B0D1D05A9432E
:1012A00001252D0529430124FD33E34001D3921884
:1012B0004941FF3381339C468B02940D0121234326
:1012C00089074C42920200271B198C105D1A04D426
:1012D0002D1B02D42B466500491992185B41640806
:1012E000F4D15C1A08D40125ED07EE1755197441A5
:1012F00002D42A462346491C94185B4101229207D6
:101300001D46E61B8D4106D4B61A854103D42B46F3
:10131000550034467F1924195B415208802AEFD1C9
:10132000234300D0022338460A22D04001D30122B1
:1013300013438A0510436246890A12058918002B57
:1013400009D00122D34002D30022401C5141002B7E
:1013500001D140084000F0BD0B03134307D0C90F73
:10136000C907F0BD0803104303D1002901DB104673
:10137000F0BD00202946F0BD0000F07F0000F87F9E
:101380000048704718002020F8B5264C4E00069DF6
:10139000A6420AD8A64201D1002806D15E00A64284
:1013A00003D8A6420AD1002A08D00D2424042542DD
:1013B00033D02946002000F0C4F8F8BD0C461C4389
:1013C00011D4994207D0C81A02D3EFF30080F8BDB8
:1013D000EFF30080F8BD801A02D3EFF30080F8BD70
:1013E000EFF30080F8BD09242407E5008B4207D005
:1013F000581A02D3EFF3008006E0EFF3008007E015
:10140000101A03D3EFF30080A04303E0EFF3008052
:10141000A043284380F30088F8BD009500F0A8F8A9
:10142000F8BD00000000E0FF70B505464800440D1F
:10143000124B0020002C0AD0634008D09A4206DAF2
:101440006642B24203DD12054019514170BD002CC5
:1014500008D0002B09D0C90FC907002AF6DB084ABB
:10146000114370BDC90FC90770BD28460A03104358
:1014700002D00020034970BD284670BDFF07000060
:101480000000F07F0000F87F10B5FF231B0644002A
:101490009C421DD84C009C421AD80346124A0B436A
:1014A00007D4401A02D3EFF3008010BDEFF30080A1
:1014B00010BD081A03D3EFF30080904305E0EFF36B
:1014C000008001219043C907084380F3008810BDC4
:1014D0000D231B041A4204D01146002000F031F8FD
:1014E00010BD00F04FF810BD00000090004870479C
:1014F000180020207546FFF7F9FFAE460500694643
:101500005346C008C000854618B020B5FEF746FE19
:1015100060BCB64600260027C0C5C0C5C0C5C0C552
:10152000C0C5C0C5C0C5C0C5403D490849008D46BD
:10153000704710B50446C046C0462046FEF71FFE61
:1015400010BDC80212D54803400F002804D0C803BC
:10155000C043012188407047EFF30080000100097B
:1015600003210907084380F3008870470020704773
:1015700010B500200249029A00F00CF810BD0000DE
:101580000000F87F10B5024800F004F810BD00001C
:101590000000C07F10B50C461107090F092904D0BF
:1015A0000A290AD008290CD104E011460820FFF7C7
:1015B000C8FF06E0510606D501E0510601D501201D
:1015C000C007214610BDD10607D501010909CC0885
:1015D0004907000E0006044309E0410F20024907B5
:1015E000000A0143200E00061D22D1410143084696
:1015F000E7E7000001491820ABBEFEE72600020025
:101600007047000080B50120800700F089FE0628A1
:101610000AD1FFE70549012008708307E648002149
:10162000032200F06DFC00E0FFE780BD8004202075
:1016300080B584B002AA10700191019800280AD0E8
:10164000FFE702A80078002809D0FFE702A8007889
:10165000012804D0FFE703A90020087013E002A8C6
:10166000007800F03FFA6430009000F06FF9FFF767
:10167000F9FD02460098019B0121890203F08CF9D3
:1016800003A90870FFE703A8007804B080BD00003C
:1016900080B598B016AA1070159100201190109086
:1016A0000D900C90159800280AD0FFE716A8007836
:1016B000002809D0FFE716A80078012804D0FFE72A
:1016C00017A9002008709FE016A8007800F00AFA19
:1016D000139014A932200880FFE714A800884C4911
:1016E000884215D8FFE7139814A909884900405A81
:1016F000FFF74DFB02460B4610981199FFF770F863
:1017000011911090FFE71498401C14A90880E4E799
:101710001098119900223F4BFFF792F80F910E900D
:1017200014A932200880FFE714A8008838498842AD
:1017300023D8FFE7139814A909884900405AFFF7F6
:1017400026FB0E9A0F9BFFF758F809910890089A0C
:10175000099B0C9806900D98079010461946FFF7C4
:1017600019FB069A079BFFF73BF80D910C90FFE7DA
:101770001498401C14A90880D6E70C980D990022F3
:101780000292244BFFF75CF805F00EFF0B910A90D4
:10179000159901200590800208800E980F99FEF798
:1017A00065FE159948600A980B99FEF75FFE15993A
:1017B00088600B9801900A98009000F0C3F8FFF73A
:1017C0000DFC024600980B460199FFF7E3FA029AD6
:1017D000114BFFF7DFFA0390049100F0ADF8FFF72B
:1017E000FDFB029A0D4BFFF7D5FA024603980B4614
:1017F0000499FFF725F8FEF739FE01460598159A7A
:10180000D16017A90870FFE717A8007818B080BD4D
:10181000310400000000904000408F4000FEAF40C7
:1018200080B58AB0034608A8037007910692007835
:10183000002809D0FFE708A80078012804D0FFE7B6
:1018400009A9002008703DE00798002805D0FFE7AF
:1018500007989C49884204D3FFE709A90020087033
:1018600030E000F073F80590079800F0A7F808A89A
:1018700001780120022201920029029001D00198F2
:101880000290029904A801700078104900F0C6FA8D
:1018900003A90870059800F091F8069800280AD06E
:1018A000FFE703A8007801210840411E884180021B
:1018B00006990880FFE703A800780121084009A9DC
:1018C0000870FFE709A800780AB080BD048900000D
:1018D00080B584B002900298002804D1FFE703A9E4
:1018E0000020087024E07D480078411C7C48008876
:1018F000401C484301900198002806D1FFE7029957
:101900000020086003A9087012E001996F48FEF7F3
:10191000F3FC00900098FFF7A5FC0299086000987E
:101920008A490968401A4142484103A90870FFE703
:1019300003A8007804B080BD014800687047C04625
:101940000000202000487047000020407F480068C9
:101950007047C046624800887047C0465F480078BC
:101960007047C04680B586B01920400200F026F8C6
:1019700003F04EF90120049083070022104611461F
:1019800000F0BEFAFFF7E2FF0590FFF7E3FF0390D8
:10199000FFF7E4FF039A0499034605980293019226
:1019A000009004488B020449322204F0E5FD06B0A1
:1019B00080BDC046808600003204000080B588B03B
:1019C000079003A900208870082008800798002845
:1019D00004D1FFE7192040020790FFE70798394933
:1019E000884203D3FFE738480790FFE70799480884
:1019F000364A8018FEF780FC06900698002803D12E
:101A0000FFE701200690FFE706983149884204D39A
:101A1000FFE7012000060690FFE706982D494018D1
:101A2000000C05900598002803D1FFE701200590E0
:101A3000FFE70598FF210231884204D3FFE7012028
:101A400000020590FFE706980599FEF755FC049003
:101A50000498002803D1FFE701200490FFE70498D1
:101A60001D49884204D3FFE7012000040490FFE7EA
:101A70000598401E1949009108700498401EE249DB
:101A8000019108800598049941431048FEF734FC01
:101A90002E490860D948029001F0D4FF00990298BD
:101AA0000A7803A98A7001F04FFF0199029809880A
:101AB00001F078FF01990298098801F09BFF08B0B6
:101AC00080BDC04601093D0000093D000048E80115
:101AD00001000001FFFF0000010001009904202027
:101AE0000800202082B0014601A80170007801287A
:101AF00004D1FFE706480068009003E0034800684F
:101B00000090FFE7009802B07047C0460C0020200C
:101B10001000202080B582B00C480068002806D153
:101B2000FFE77D20C00003F041FE01900BE0074875
:101B300001680748FEF7E0FB00900098643003F06E
:101B400035FE0190FFE7019802B080BD040020201F
:101B50005063100083B0014602A801700178012093
:101B600080070090E5480129019001D0009801907C
:101B7000019803B07047C04680B582B00146684600
:101B800001700078C007002816D0FFE79C480021AC
:101B900000F0BEFE002804D1FFE7F44901200870E0
:101BA000FFE7F2480078C007002804D1FFE701A949
:101BB0000020087020E0FFE76846007880070028D2
:101BC00016D5FFE78E48012100F0A2FE002804D1BF
:101BD000FFE7E74901200870FFE7E5480078C00704
:101BE000002804D1FFE701A90020087004E0FFE706
:101BF00001A901200870FFE701A8007802B080BDAC
:101C000080B594B013A910910870D84900200990AC
:101C10000870D7490870B7490870D64801F012FF1C
:101C20000120089080070A9000F01EFCB3480B903A
:101C300000F01AFC0A9800F0D4FA0B9800F0D1FAE0
:101C400009996F480D9000F029FE08990D9800F051
:101C500025FE09990A98C9430C9100F08FFA0B9858
:101C60000C9900F08BFA0D98664900F0E3FD042012
:101C70000E9004F083FF05200F9004F07FFF0E9874
:101C800004F052FF0F9804F04FFF10980078C0073F
:101C9000002818D0FFE711A900200870FFE711A85D
:101CA000007807280ED8FFE701208007002100F008
:101CB0000DFB12A908801298FFE71198401C11A98A
:101CC0000870ECE7FFE713A800788007002817D515
:101CD000FFE711A900200870FFE711A80078072886
:101CE0000DD8FFE7F048002100F0F0FA12A90880B3
:101CF0001298FFE71198401C11A90870EDE7FFE763
:101D000041480188E74801F075FE13A80078C00734
:101D1000002805D0FFE70120800700F078FAFFE7F0
:101D200013A800788007002804D5FFE7E84800F0F2
:101D30006EFAFFE7012003F045FE13A80078C00704
:101D4000002825D0FFE7012006908007079000219A
:101D5000059100F0D3FA05990246F348049000F08B
:101D60001FFE04980599294A00F006FE049805997B
:101D7000D94A00F029FE0498059900F0B5FD0798AE
:101D800000F05CFA06990798090200F06FFAFFE785
:101D900013A800788007002823D5FFE7CC480390DC
:101DA000002100F0ABFA0246DF48019001210291C8
:101DB00000F0F6FD01980299154A00F0DDFD01984A
:101DC0000299C54A00F000FE0198029900F08CFDCE
:101DD000039800F033FA02990398090200F046FADA
:101DE000FFE700200090FFF7B5FE009903460122AF
:101DF000084600F085F814B080BDC0460040084099
:101E000000A0424003000003080020209A04202084
:101E1000FE0C202081B0009001B0704780B58CB0DE
:101E20000AAA079210700991FFF774FE08900998AA
:101E3000FFF7F0FF07980078FFF7E2FE2B48FFF767
:101E4000E9FF2B48FFF7E6FF0798007800F096F8C7
:101E5000FFE70AA80078FFF78FFE002829D1FFE7E7
:101E60000898002820D1FFE70AA80390007800F026
:101E7000D5F803980178012001404B420A465A41A7
:101E800004928007924A05920029069001D1059894
:101E900006900499069B00200290052200F030F87D
:101EA00002980BA908701DE00898401E089000BF1A
:101EB000CFE70AA8007800F0B1F80E4901200190A0
:101EC000087000200090FFF745FE00990346824805
:101ED000042200F015F80848FFF79CFF01980BA9B1
:101EE0000870FFE70BA800780CB080BDE888000000
:101EF000F188000078002020FF88000000200040CA
:101F000010B586B005AC208004A8017003A802704B
:101F100002930598144901910880049888700398E9
:101F2000C870124800780122104008716948007892
:101F3000104048715B48009001F03AFC019A01465C
:101F40000098917101F094FA01998860029800213B
:101F5000C94300F0EFF90199C8600298064A805819
:101F6000086106B010BDC0468404202080042020F3
:101F700098042020004008400411000080B58AB079
:101F800009A9089108704748012101F0A9F90898AA
:101F90000078C007002813D0FFE7012080070590D4
:101FA0002021069100F0EAF80598069900F078F9EA
:101FB0000420079004F0B8FD079804F011FEFFE735
:101FC00009A800788007002812D5FFE74048029052
:101FD0002021039100F0D2F80298039900F060F9F3
:101FE0000520049004F0A0FD049804F0F9FDFFE73B
:101FF00009A800788007002804D0FFE7294801F0ED
:1020000003FDFFE700200190FFF7A4FD01990346BF
:1020100002220846FFF774FF0AB080BD80B588B081
:1020200007A9069108701F48059001F00BFD05985F
:10203000012101F055F906980078C007002815D055
:10204000FFE701208007039000F00EFA039800F0EC
:10205000C8F803980021C94300F090F804200490C8
:1020600004F08CFD049804F05FFDFFE707A80078FA
:102070008007002814D5FFE71548019000F0F4F917
:10208000019800F0AEF801980021C94300F076F8FD
:102090000520029004F072FD029804F045FDFFE770
:1020A00008B080BD004008400020004080B50848CE
:1020B00000F036F9062809D1FFE706480121017032
:1020C00005480322024BFFF71BFF00E0FFE780BD3E
:1020D00000200040980420203204000080B584B025
:1020E00003A9019108800F48029000F021FB0E48DF
:1020F000022100F0E6FB029800F002FB029800F0DB
:102100000BFB0198094A00211170008800F012F8B9
:102110000246029806490A80098800F071FB04B063
:1021200080BDC0460080014000A042406A152020CA
:102130000A00202082B00146684601800088000B1A
:10214000002804D0FFE701A90548088003E00098B3
:1021500001A90880FFE701A8008802B07047C046C7
:10216000FF0F000082B001900091009B0199094A85
:1021700088581843885002B07047C04682B001901A
:102180000091009B0199034A88581843885002B077
:102190007047C0464810000010B585B00092024656
:1021A00000980B9C0A9C099C089C079C049203AA1B
:1021B000117002900193029801990843079908430E
:1021C00008990843099908430A9908430B99084359
:1021D00004991278920089182322D201885005B000
:1021E00010BD81B00090009911200202885801238F
:1021F0009843885001B0704781B000900099112039
:102200000202885801231843885001B0704781B0FA
:102210000090009911200202885801231843885029
:1022200001B0704781B000900099C44A88580123DA
:102230001B021843885001B07047C04681B000901F
:102240000099BE4A885801231B021843885001B0E8
:102250007047C04682B001900091009B0199094AE5
:1022600088581843885002B07047C04682B0019029
:102270000091009B0199034A88581843885002B086
:102280007047C0468810000082B001900091009B0A
:102290000199864A88581843885002B07047C04652
:1022A00082B001900091009B0199804A88581843A0
:1022B000885002B07047C04681B00090009901205C
:1022C000C2028048885001B07047C04684B0009177
:1022D00001460098039102A90870039809788900C3
:1022E00040182521C9014018019001980249405821
:1022F00080B204B07047C0460050550083B00091D2
:1023000001460098029101A9087002980978890095
:1023100040180249401803B07047C046806255001B
:1023200081B000900098812149014058C0B201B0AD
:102330007047000082B00190009101980249405816
:102340000099084002B070473010000010B584B00A
:10235000079C069C039002910192009303986B499D
:1023600040180299019A1143009A1143064A00F05D
:102370000FF90398714940180699079A1143034AC7
:1023800000F006F904B010BD0100130007001F1F84
:1023900081B0009000996F4A6F48885001B0704733
:1023A00080B582B00190009101980D4940180099C4
:1023B0000978A922120689180A4A00F0FDF8019846
:1023C000112109024018009949680722120600F0FD
:1023D000F3F8009840780199034A885002B080BD14
:1023E00008080000030000FF1011000080B584B051
:1023F000019101460198039102A9087003984F4A80
:1024000080180978C9021F22D20200F0C1F804B076
:1024100080BDC04680B582B0019000910198112125
:102420000902401800990122120400F0B1F802B02C
:1024300080BD000082B0019068460180008801994B
:10244000014A885002B070471411000082B0019018
:102450006846017000780F2108400199012292021C
:10246000885002B07047000081B000900099274A60
:10247000885801231B029843885001B07047C0461A
:1024800081B000900099214A885801231843885050
:1024900001B0704782B001900091009B0199034AFE
:1024A00088581843885002B07047C0462810000072
:1024B00081B0009000990120C202AD48885001B05F
:1024C0007047C0460100002680B582B0019000919F
:1024D0000198112109024018009A117AD368194312
:1024E00052681143084A00F053F801980749401810
:1024F000009A1178137C1943527C1143E22200F0B8
:1025000047F802B080BDC046078007800411000074
:1025100080B582B001900091019808494018009A56
:102520001178537819439378194353681943926883
:102530001143034A00F02CF802B080BD08110000DE
:10254000B900030081B000900099B84AB84888509B
:1025500001B0704704080000030000B180B582B0EC
:10256000019000910198044940180099FF2200F061
:102570000FF802B080BDC0460C11000082B001907F
:102580000199881E001F00BFFCD2009002B0704766
:1025900084B0039002910192039800680090009823
:1025A00001998843009000980299019A11400843CC
:1025B0000399086004B0704784B0039002910192BF
:1025C0000398006800900098019988430090009853
:1025D0000299019A114008430399086004B07047BA
:1025E00084B00390029101920398006800900098D3
:1025F00001998843009000980299019A114008437C
:102600000399086004B0704784B00390029101926E
:102610000398006800900098019988430090009802
:102620000299019A114008430399086004B0704769
:1026300084B0039002910192039800680090009882
:1026400001998843009000980299019A114008432B
:102650000399086004B0704784B00390029101921E
:1026600003980068009000980199884300900098B2
:102670000299019A114008430399086004B0704719
:1026800084B0039002910192039800680090009832
:1026900001998843009000980299019A11400843DB
:1026A0000399086004B0704784B0039002910192CE
:1026B0000398006800900098019988430090009862
:1026C0000299019A114008430399086004B07047C9
:1026D00080B584B00092024600980392029101AA4C
:1026E00010800398112109024018029912881143A1
:1026F000024AFFF775FF04B080BDC046000101002B
:1027000081B00090009989204201885801231B065E
:102710009843885001B0704781B00090009989209B
:102720004201885801239843885001B07047000047
:1027300081B0009000992A4A885801239843885014
:1027400001B0704781B000900099112002028858B2
:1027500001231843885001B07047000081B00090F9
:1027600000990120C202D848885001B07047C04685
:102770000100002680B582B0019000910198009A76
:1027800091689288FFF7A4FF0198A8494018009A21
:10279000116893891943927B11430F4AFFF720FF79
:1027A0000198892149014018009AD17B1369194386
:1027B00053691943128B1143084AFFF711FF01981F
:1027C00007494018009A917E928B1143054AFFF702
:1027D00007FF02B080BDC0460303000101030301EF
:1027E00030110000010F000082B0019000910098AC
:1027F00009490840019909225202885002B07047E5
:1028000082B0019000910098034908400199092283
:102810005202885002B07047FF0F000081B0009054
:102820000099F34AF348885001B07047040800004B
:10283000030000B182B00190009100980199824A92
:10284000885002B07047C04670B587B000931446F8
:102850000D46009902460E980D980C980B9B069217
:1028600005AA15700494039102A90B8001AB18808E
:102870000498039C20430E9C240120430D9C20437C
:102880001B881B0118430988084306991278120116
:10289000891809225202885007B070BD83B0009198
:1028A00001460098029101A908700298097809016F
:1028B000411809204202885802239843885003B0E7
:1028C000704783B0009101460098029101A90870F9
:1028D0000298097809014118092042028858022308
:1028E0009843885003B0704783B000910146009828
:1028F000029101A90870029809780901411809207C
:102900004202885802231843885003B070470000E1
:1029100083B0009101460098029101A908700298C5
:102920000978090140183349405880B203B0704714
:10293000F0B589B0049101460498089107A9059162
:102940000870069208980978069F7A68BB68BC8967
:10295000FD893E697F690397029601950094FFF710
:1029600073FF059908980978069B1A785B7800F040
:1029700043F809B0F0BD000084B000920246009810
:10298000039202AA11700190019803991278120122
:102990008918024A885004B07047C04608120000E7
:1029A00084B0009202460098039202AA117001902E
:1029B00001980399127812018918024A885004B0CC
:1029C0007047C0460412000085B000920A46009984
:1029D000019202460198049203AA107002A8018095
:1029E00000880499127812018918024A885005B0AB
:1029F0007047C0460C12000010B586B00193034624
:102A00000198059304AB197003A90A7002AA10700B
:102A100005981B789B00C018044BC01809781278E1
:102A20001143BF22FFF7F0FD06B010BD10110000EA
:102A300082B001900091009B0199034A8858184385
:102A4000885002B07047C0464810000082B0019024
:102A500000910098019995225201885002B0704768
:102A600082B00190009100980199952252018850FE
:102A700002B0704782B001900091009801999722AE
:102A80005201885002B0704782B0019000910098C6
:102A90000199074A885002B07047C04682B0019041
:102AA000009100980199024A885002B07047C046D0
:102AB000D012000081B0009000990120C20281482C
:102AC000885001B07047C0460100002682B00190D6
:102AD00000910198024940580099084002B070479F
:102AE0003810000081B0009000988100304A1848EA
:102AF000885001B07047C04610B584B0069C039062
:102B000002910192009302980199084300990843A9
:102B1000069908430E49084303998900244A8850BE
:102B200004B010BD10B584B0069C039002910192D0
:102B300000930298019908430099084306990843B5
:102B40000349084303998900194A885004B010BD0D
:102B50008100040081B0009000988100144A812017
:102B6000885001B07047C04681B000900098810045
:102B70000F4A0020885001B07047C04682B00190D3
:102B8000009100980349084301998900084A885038
:102B900002B070478000040082B00190009100985C
:102BA0008021084301998900014A885002B070478A
:102BB0000480424082B00190009101982721C90110
:102BC00040580099084002B0704782B001900091CF
:102BD00001982721C90140580099084002B0704768
:102BE00081B000900099304A3048885001B0704759
:102BF00004080000030000B182B0024601A8027080
:102C00000091009B007830214143034A88581843C3
:102C1000885002B07047C0462811404081B001463C
:102C2000684601700178302048430249405801B09D
:102C30007047C0460011404081B0009000991120BB
:102C40000202885801231843885001B070470000E1
:102C500081B0009000990120C2021A48885001B04A
:102C60007047C04680B582B00190009101989549A7
:102C70004018009A11785378194393781943938830
:102C80001943D388194312891143024AFFF780FC84
:102C900002B080BDFFFF000081B000900099C44ADF
:102CA000C448885001B0704704080000030000B118
:102CB00081B0009000990120C2020248885001B002
:102CC0007047C0460100002681B000900098B149CD
:102CD00040583F2109040840000C01B07047C0462D
:102CE00081B000900098AB4940581F21090208406C
:102CF000000A01B07047C04681B000900098A54915
:102D000040580721084001B07047C04681B000908C
:102D10000098A04940580721084001B07047C046BC
:102D200081B0009000988921490140583F21090253
:102D30000840000A01B0704781B0009000988921D6
:102D4000490140581F21084001B0704781B00090F0
:102D50000098B24940587F2109020840000A01B09A
:102D60007047C04681B000900098AC4940583F2160
:102D7000084001B07047C04681B000900098B44947
:102D800040581F2109020840000A01B07047C046A0
:102D900081B000900098AE4940580F21084001B022
:102DA0007047C04681B000900098B64940587F21D6
:102DB00009020840000A01B07047C04681B0009087
:102DC0000098B04940583F21084001B07047C046C4
:102DD00080B584B001900391039800F067F8014634
:102DE00002A801700078002824D1FFE70398FFF7BC
:102DF000E5FF019908700398FFF7B4FF0199487047
:102E00000398FFF799FF019988700398FFF77EFFF9
:102E10000199C8700398FFF763FF0199087103983F
:102E2000FFF7B6FF01994871039800F035F8019952
:102E3000C88023E00398FFF7B5FF01990870039855
:102E4000FFF784FF019948700398FFF769FF019924
:102E500088700398FFF750FF0199C8700398FFF737
:102E600033FF019908710398FFF786FF01994871B4
:102E7000039800F005F80199C880FFE704B080BD11
:102E800081B0009000988D49405802490840000CDC
:102E900001B070470000FF7F81B000900098874923
:102EA00040588549084001B07047C04682B0019043
:102EB0000198894940588021084000906846007870
:102EC00002B070470811000010B588B0144606AA79
:102ED0009480240CD4801180090C5180059004A9A1
:102EE00003910B700598097800F0EAF803980078D0
:102EF000002826D1FFE7059806A90291097800F07D
:102F0000B5F802990598497800F07CF8029905987F
:102F1000897800F05EF8029A05981E494018D17829
:102F20001279120289181D4AFFF782FB029905984F
:102F3000497900F081F802990598C98800F0B0F845
:102F400025E0059806A90191097800F083F8019918
:102F50000598497800F04AF801990598897800F0B9
:102F60002BF8019A05980B494018D1781279120470
:102F70008918094AFFF75CFB01990598497900F027
:102F80004FF801990598C98800F07EF8FFE708B06E
:102F900010BDC0462411000007003F00071F0000BD
:102FA00081B000900099024A0248885001B07047F1
:102FB00004080000030000B182B00190684601706F
:102FC00000988006800C019989225201885002B035
:102FD000704782B001906846017000781F21084058
:102FE000019989225201885002B0704782B0019045
:102FF0006846017000984006400C0199074A8850C5
:1030000002B0704782B001906846017000783F219D
:1030100008400199014A885002B070471C11000015
:1030200082B00190684601700098C006C00C0199FA
:10303000074A885002B0704782B00190684601701C
:1030400000780F2108400199014A885002B070476A
:103050002811000082B00190684601700098400677
:10306000400C0199074A885002B0704782B0019025
:103070006846017000783F2108400199014A885054
:1030800002B070471811000082B0019068460180BC
:103090000098400440080199084A885002B07047DF
:1030A00082B0019068460180008803490840019978
:1030B000024A885002B07047FF0F00002C11000038
:1030C00082B001906846017003780199934A88584C
:1030D0001843885002B0704708110000064908687C
:1030E00001229043086070470349086801221202D8
:1030F000904308607047C04608010B4002490868C9
:1031000010221043086070473C010B4001490248FF
:103110000860704710030B400300002A0548006850
:103120007047C046034800687047C04601480068C1
:103130007047C04604020B4081B0014668460170EA
:1031400000780249086001B07047C04608030B4090
:1031500080B582B0019001990878C007C00D8978C8
:103160004118FF2204321048FFF79EFA0F49104819
:103170000860FFE7FFF7D2FF01218902084088427B
:1031800001D0FFE7F6E701984078C007002806D095
:10319000FFE705490868102210430860FFE703496C
:1031A0000448086002B080BD14010B4014030B40BA
:1031B000010000910200009180B582B0014601A893
:1031C00001800188012042020248FFF7E1F902B0C4
:1031D00080BDC04638010B4080B582B0014601A8D1
:1031E0000170017802480322FFF7D2F902B080BDD6
:1031F00000010B4080B58CB00B900A910A98407981
:10320000C00700285BD0FFE70A98007907900028E4
:1032100004D0FFE7079820280CD017E00B988821EE
:103220000691022200F008FB06990B98032200F099
:1032300003FB18E00B9829490591022200F0FCFAE3
:1032400005990B98032200F0F7FA0CE00B98052182
:10325000C9010491022200F0EFFA04990B980322AD
:1032600000F0EAFAFFE70B98002202920223019392
:10327000114600F0FBFA029A0B98032303931146C0
:1032800000F0F4FA0199029B0B98009119461A4636
:1032900000F024FB029B03990B98009119461A46F3
:1032A00000F01CFB019B029A0B98114600F0FCFAFF
:1032B000029A039B0B98114600F0F6FAFFE70A9872
:1032C000006808900A98007908A908710A9880791E
:1032D00048710B9800F068F90CB080BD0104000043
:1032E00082B00190009100980199074A885002B07D
:1032F0007047C04682B00190009100980199024A3F
:10330000885002B07047C0464810000081B000905D
:103310000099024A0120885001B07047081100004E
:1033200084B0039002A8017001920399054A89189C
:103330000091019B009900788200885818438850BA
:1033400004B070475810000082B001900091009BBB
:103350000199034A88581843885002B07047C04604
:103360002810000081B0009000990120C20202489C
:10337000885001B07047C0460100002683B002901B
:1033800001A801700299064A8918009101780098F5
:103390008900401800900098006803B07047C0464C
:1033A0001018000083B0024602A802700191007854
:1033B000009003283ED80098810001A0405887461D
:1033C000D1330000E7330000013400001B3400005B
:1033D000019900200870019A0221516001998860CA
:1033E0000199C86027E00199012008700199002027
:1033F0004860019A4921C90191600199C8601AE0A9
:103400000199022008700199486001994920000241
:10341000886001990020C8600DE0019903200870C0
:10342000019900204860019ADB21C901916001994E
:10343000C86000E0FFE703B0704781B000900098DB
:10344000812149014058C0B201B0704781B000905D
:103450000098812149014058C0B201B0704781B045
:1034600000900098812149014058C0B201B07047D6
:1034700081B0009000980321C902405801B0704704
:1034800080B588B0079006910698807A02A90091CD
:10349000FFF788FF009B07980699C968039A1B7875
:1034A00000F002FA07980699496800F071FA069848
:1034B00000780190002814D0FFE7019801281AD065
:1034C000FFE70198022834D0FFE70198032808D0CD
:1034D000FFE7019804280ED0FFE70198052828D0BF
:1034E00040E0079806994A7A02A90B78012149041D
:1034F00000F0BCF937E00698407A01280CD1FFE7CC
:10350000079806994A7A01210B02D21802AB1B7860
:10351000490400F0ABF90BE0079806994A7A0121BB
:103520004B02D21802AB1B78490400F09FF9FFE769
:1035300019E00698407A01280AD1FFE7079802A906
:103540000B78012149048122520000F08FF908E034
:10355000079802A90B7801214904124A00F086F964
:10356000FFE700E0FFE70798059900F043F90698A8
:103570000078C01E022805D8FFE7049820210843E0
:10358000049000E0FFE707988E4940180499069AD6
:10359000127A114302221143454AFFF75DF808B041
:1035A00080BDC0460102000080B58AB00990089134
:1035B000089800790790002804D0FFE70798202892
:1035C00012D029E0099808990968491E00F0E0F92D
:1035D000099888210691002200F02EF90699099891
:1035E000012200F029F92AE0099808990968491E82
:1035F00000F0CEF909982D490491002200F01CF941
:10360000049909980122059200F016F90599099884
:10361000490700F0AFF912E00998089909684908CC
:1036200000F0B6F909980521C9010391002200F0C4
:1036300003F903990998012200F0FEF8FFE70998C1
:103640000023019319461A4600F010F9019A0998CF
:1036500001230293114600F009F9019B0998009398
:1036600019461A4600F03AF9019B0299099800910F
:1036700019461A4600F032F9019B099819461A4674
:1036800000F012F9019A029B0998114600F00CF91A
:103690000998F1494018089A117952791143022288
:1036A0001143034AFEF7D8FF0AB080BD01040000B1
:1036B000BFFF003080B584B0039002910398029957
:1036C000496800F065F9029800780190222856D8E0
:1036D0000198810001A040588746C0467537000018
:1036E0007F370000753700007F3700007F3700000C
:1036F0007F3700007F3700007F3700007F370000F2
:103700007F3700007F3700007F3700007F370000E1
:103710007F3700007F3700007F37000069370000E7
:103720007F370000693700007F3700007F370000D7
:103730007F3700007F3700007F3700007F370000B1
:103740007F3700007F3700007F3700007F370000A1
:103750007F3700007F3700007F37000069370000A7
:103760007F3700006937000003980121490700F006
:1037700001F905E00398002100F0FCF800E0FFE704
:103780000398029909690022009200F0C7F8009B93
:1037900003980299C9681A4600F068F802990878F7
:1037A000097A08430399B74A885004B080BDC046DF
:1037B00081B000900098B34940580121084001B001
:1037C0007047C0460418000081B000900099024A7A
:1037D0000248885001B0704704080000030000B19F
:1037E00082B0019000910098019911221202885034
:1037F00002B0704782B001900091009801991122A7
:103800001202885002B0704780B584B003900291D4
:1038100001A802700399224A891800910178009842
:103820008900401800900098029907229204FEF740
:1038300013FF04B080BDC04680B584B003900291F0
:1038400001A802700399074A89180091017800982D
:1038500089004018009000980299034AFEF7FCFE88
:1038600004B080BD70180000DBB6C1FF10B586B093
:1038700005900491039202A803700599084A8918DB
:1038800001910178019889004018019001980499EC
:10389000039A1143034AFEF7DFFE06B010BDC0468F
:1038A000301800007777020010B586B005900491BB
:1038B000039202A8037005993122D201891801915F
:1038C0000178019889004018019001980499039AA1
:1038D00011438F22FEF7C0FE06B010BD10B587B0B1
:1038E0000091044600980999069405900492039368
:1038F00002A801700699084A891801910178019877
:1039000089004018019005980499084303990843D9
:103910000199086007B010BD5018000084B00390F2
:10392000029101A802700399064A89180091017852
:10393000009889004018009002980099086004B02F
:103940007047C0461018000082B0019000910098A6
:1039500000780199B54A8850009840780199012271
:1039600012038850009880780199CB4A885002B0A1
:103970007047C04680B582B00190009101984149DE
:103980004018009903221207FEF766FE02B080BDC0
:1039900082B00190009100980199074A885002B0C6
:1039A0007047C04682B00190009100980199024A88
:1039B000885002B07047C0460818000086B00092D8
:1039C0000A460099019202460198059204AA1070D5
:1039D00003A801700599064BC918029100780F21C0
:1039E0000840029912789200885006B07047C0468D
:1039F0004404000082B001900091009801990322D4
:103A0000D202885002B0704781B0009000991D4AE0
:103A1000885801231843885001B0704781B0009046
:103A20000099184A885801231843885001B07047FC
:103A300081B000900099134A885801231843885098
:103A400001B0704781B0009000990E4A8858012358
:103A50009843885001B070470418000081B000906E
:103A60000099084A885801239843885001B070474C
:103A700081B000900099034A8858012398438850E8
:103A800001B070470418000082B0019000910098C6
:103A90000199024A885002B07047C04648100000A1
:103AA00081B00090009911200202885801239843A8
:103AB000885001B0704781B0009000991120020237
:103AC000885801231843885001B0704781B0009096
:103AD000009911200202885801235B041843885082
:103AE00001B0704782B001900091009B0199034A98
:103AF00088581843885002B07047C046281000000C
:103B000081B0009000990120C2028648885001B01F
:103B10007047C04681B0009000988121490140580B
:103B2000C0B201B07047000080B582B00190009132
:103B30000198FFF7B5FF0198112109024018009A7A
:103B400011889378194392881143084AFEF798FD2B
:103B500001982D494018009A9179D3791943127A26
:103B600011437E22FEF78CFD02B080BD1867020073
:103B700081B00090009865494058042108408008B1
:103B800001B0704781B00090009860494058C0B2C1
:103B9000C00901B07047C04681B00090009802494A
:103BA0004058C0B201B070472411000081B00090AD
:103BB0000099614A0148885001B07047030000B184
:103BC00080B584B003900291019203980B4940188C
:103BD00002990B4AFEF7DCFC03980A494018019948
:103BE0003F22FEF7D5FC0399074A8818895801221D
:103BF0001140FEF7CDFC04B080BDC046101100009E
:103C0000FFFF0000141100000411000082B00190B9
:103C10000091009800780199514A885000984078A6
:103C2000019901221203885002B070470810000069
:103C300080B582B0019000910198112109024018CD
:103C400000990322D203FEF7A3FC02B080BD00005E
:103C500080B584B0019101460198039102A90870D2
:103C600003980D4A801809787022FEF791FC04B081
:103C700080BDC04680B584B0019101460198039192
:103C800002A908700398044A801809780722FEF7F1
:103C90007FFC04B080BDC0460C11000082B00190D2
:103CA000684601700078019989225201885002B05B
:103CB000704780B582B0019068460170FFE70198B7
:103CC000FFF760FF002801D0FFE7F8E70198694699
:103CD0000978FFF7E3FF02B080BD000082B00190D9
:103CE0000091009908784A7810434988084301995F
:103CF0001122120288500099486889680904084313
:103D00000199024A885002B07047C046081100006D
:103D100081B0009000990120C2020248885001B091
:103D20007047C0460100002681B000900099024A09
:103D30000248885001B0704704080000010000B13B
:103D400082B001900091009800780199044A88504F
:103D500000984078019901221203885002B0704700
:103D60000810000080B50A49002008602E4908703C
:103D70002E4908602E4908702E4908603D49087098
:103D8000152002F013FF3748FFF768FE80BDC046DC
:103D90007015202080B584B002900298002804D1CC
:103DA000FFE703A9002008702CE021480078029961
:103DB0000122104008701F480168029A51601B4997
:103DC0000968029AD160006801900198002806D025
:103DD000FFE717480078C007002806D1FFE70299DF
:103DE0000020886003A908700CE00198FDF73AFAFA
:103DF00001460648FDF71CF90299886003A90120D5
:103E00000870FFE703A8007804B080BD0024F44BDD
:103E100005490020087005490860054908700549F2
:103E200008601449087070477C1520206C1520200C
:103E30007D1520207815202080B582B015200190B6
:103E400002F086FE019802F0DFFE0648FFF7E6FD6D
:103E500002B080BD80B50348FFF700FE152002F0D8
:103E6000A5FE80BD0000874002480078012108407F
:103E70007047C0467415202080B584B00120FEF73D
:103E8000CDFE0390039802281BD1FFE71048019054
:103E900008210091FEF71AFE00990246019802924D
:103EA000FEF7C6FD01200221FEF7A6FE02A800785B
:103EB0000007002804D5FFE7064902200870FFE745
:103EC00004E001200321FEF797FEFFE704B080BD68
:103ED00000200A405918202080B584B002A9002093
:103EE0000870FFE702A8007807281FD8FFE702A89C
:103EF00000780021019100F0B9F8019803A9087039
:103F0000FFE7002103A84056002809D4FFE700205E
:103F100000F0B8FAFFE70398401C03A90870F0E727
:103F2000FFE70298401C02A90870DBE704B080BDDF
:103F300080B58D2000F088FA142000F085FAAF20BB
:103F400000F082FA80BD000080B5642001F030FDF1
:103F500001F028FA36483C210170007801F04CFA53
:103F6000014648424141364801700078C0070028A8
:103F70000BD1FFE72E483D210170007801F03CFA9B
:103F8000414248412E490870FFE72D480078C0079C
:103F9000002804D1FFE726490020087046E0AE2043
:103FA00000F052FAD52000F04FFA802000F04CFAD1
:103FB000A82000F049FA3F2000F046FAD32000F094
:103FC00043FA002000F040FA402000F03DFAA12022
:103FD00000F03AFAC82000F037FADA2000F034FA9C
:103FE000122000F031FA812000F02EFACF2000F0EC
:103FF0002BFAD92000F028FAF12000F025FADB2076
:1040000000F022FA302000F01FFAA42000F01CFA81
:10401000A62000F019FA8D2000F016FA142000F006
:1040200013FAFFF785FFFFF757FFFFE780BDC04694
:104030008815202002480078012108407047C046BA
:104040008915202083B00290019101200090FFE7A4
:104050000198411E0191002805D0FFE702980099C0
:1040600048430090F4E7009803B0704780B584B0EF
:10407000024603A8027002AA019211700078B021D2
:10408000084300F0E1F9019800780009103000F0D1
:10409000DBF9019800780F21084000F0D5F904B051
:1040A00080BD000080B584B0034603A8037002AB56
:1040B000197001A90A70007800280FD0FFE703A843
:1040C000007804280AD8FFE702A80078002805D065
:1040D000FFE702A80078112801D3FFE757E001A805
:1040E0000078202805DBFFE701A800787F2804DBA3
:1040F000FFE701A93F200870FFE703984000801EFA
:104100000299C9000839C0B2C9B2FFF7AFFF6946CA
:1041100000200870FFE768460078072812D8FFE7FC
:1041200001A8007800011B49401869460978401829
:104130001A49405C00F0A6F9FFE70098401C694668
:104140000870E8E703984000401E0299C90008394A
:10415000C0B2C9B2FFF78AFF694600200870FFE7C6
:1041600068460078072812D8FFE701A80078000108
:10417000084940186946097840180749405C00F032
:1041800081F9FFE70098401C69460870E8E704B031
:1041900080BDC046207B000008FEFFFF00FEFFFF41
:1041A00010B590B004460FA804700EAC21700D92AB
:1041B0000CA90B7001210B9106AA11700078002840
:1041C0000FD0FFE70FA8007804280AD8FFE70EA851
:1041D0000078002805D0FFE70EA80078112801D349
:1041E000FFE7AFE00CA80078072804D3FFE70CA98D
:1041F00006200870FFE705A900200870FFE705A862
:1042000000780CA9097888420ADAFFE70B990A209E
:1042100048430B90FFE70598401C05A90870EEE79E
:104220000D98002103F043F900280FD1FFE70FA8F4
:1042300000780EAB19784A1C1A702D22FFF732FF56
:104240000D980121C90748400D9009E00FA800789A
:104250000EAB19784A1C1A702B22FFF723FFFFE7D9
:104260000D9804900B98FCF7FDFF01469F20C005B8
:10427000FCF7DEFE0146049803F02FF9002808D170
:10428000FFE70FA800780EA909782F4A00F09BF8E5
:1042900058E00D9803900B98FCF7E4FF0146039853
:1042A00003F072FA3F21090603F0D4F9FCF796FFF8
:1042B0000A900A980B99FCF71FF809900A980B9935
:1042C000FCF71AF8089109980790FFE707980A2861
:1042D0000AD3FFE707980A21FCF70EF80790069823
:1042E000401C06A90870F1E70FA800780EA90291FA
:1042F0000978099A06AB1B7800F028F802990E9805
:10430000069A801808700CA8007800281AD0FFE7D9
:104310000EA80078102815D8FFE70FA800900078A5
:104320000EAB019319784A1C1A702E22FFF7BAFEC1
:104330000098019900780978089A0CAB1B7800F076
:1043400005F8FFE710B010BD2989000010B58AB04C
:1043500009AC207008A80170079206A8037005A98F
:1043600000200870FFE705A8007806A909788842B0
:1043700027DAFFE709A800780390089905A80078D4
:10438000091804910799019106A90978C0434118B9
:104390000A200290FFF756FE01460198FBF7ACFF9A
:1043A0000299FBF7A9FF03980A46049930231A43A0
:1043B000C9B2FFF777FEFFE70598401C05A9087012
:1043C000D1E70AB010BD80B588B007AB187006A859
:1043D000017005920598002801D1FFE732E004A999
:1043E00000200870FFE7059804A90978415C0020C7
:1043F0000029039010D0FFE706A8007804A90978E7
:1044000041180120002201921129029001D3019844
:10441000029002980390FFE70398C007002811D08C
:10442000FFE707A80078069904AA1378C918059A27
:10443000D25CC9B2FFF736FEFFE70498401C04A91E
:104440000870D0E708B080BD80B582B001A90870BF
:104450006946002008700198487019480078C00724
:1044600000280DD0FFE7174800786946022201F0C6
:1044700098F8002804D0FFE7114900200870FFE7F2
:1044800002B080BD80B582B001A9087069464020A5
:104490000870019848700A480078C00700280DD0BD
:1044A000FFE7084800786946022201F07AF8002800
:1044B00004D0FFE7024900200870FFE702B080BD8A
:1044C000891520208815202080B584B002900191A4
:1044D00000920298009903F000F8002803D1FFE74A
:1044E000009803900CE00298019902F0E0FF002888
:1044F00003D1FFE70198039002E002980390FFE7E1
:10450000039804B080BD10B586B0099C089C059046
:104510000491039202930598002801D1FFE720E05F
:104520000898099902F0D9FF002807D1FFE70898F9
:1045300001900998089001980990FFE7049805995F
:104540000860039805994860029805998860089862
:1045500005994861099805998861059800F003F864
:10456000FFE706B010BD81B000900098002801D18F
:10457000FFE707E000990020C860009908610099F2
:104580000877FFE701B0704710B594B01290119111
:1045900010920F9300200D901298002807D0FFE78B
:1045A0000F98002102F08EFF002803D1FFE70020C2
:1045B00013909AE01198109903F03EF90E9012981A
:1045C000C0680A900E980F9903F0DEF80A9903F07C
:1045D00041F80C901298007F00280AD0FFE70E984F
:1045E0001299096903F028F90F99FCF721FD0D9044
:1045F000FFE712980890016806910E9905914068AE
:104600000C9903F0C1F8059902460698079203F049
:10461000BBF8079903F01EF80146089809918068D5
:104620000D9903F0B1F8099903F014F80B900B9869
:104630001299896902F046FF002808D1FFE70B981C
:104640001299496902F033FF00281ED1FFE70B9849
:104650001299896902F041FF002807D1FFE70E98FF
:10466000002102F047FF00280FD1FFE70B981299B5
:10467000496902F01CFF00280BD1FFE70E980021CA
:1046800002F02BFF002804D1FFE70C981299C860B4
:10469000FFE712990391086801900E98009048680E
:1046A000C96803F071F8009902460198029203F07C
:1046B0006BF8029902F0CEFF0146039804918068DE
:1046C0000D9903F061F8049902F0C4FF0B900E9865
:1046D000129908611299012008771298826941693C
:1046E0000B98FFF7F1FE1390FFE7139814B010BD7D
:1046F00080B584B00290019100920298019902F075
:10470000D6FE002803D1FFE7019803900CE0029841
:10471000009902F0E2FE002803D1FFE70098039021
:1047200002E002980390FFE7039804B080BD000008
:10473000B0B594491CC91CC01CC91CC03CC93CC0B4
:10474000B0BDC046B0B586B005900598002801D12F
:10475000FFE733E0059989483CC93CC03CC93CC0EF
:104760003CC93CC0059843690269C168894C019401
:104770000020039000908548FFF7C5FE0398059937
:104780000B6ACA698969019400908148FFF7BBFEF2
:1047900003987C490491087048608860C860059A55
:1047A00012680A61059A52684A618861C8610862A4
:1047B00088842622885427228854FFE706B0B0BD9B
:1047C00080B570490120087000204860112002F077
:1047D0002FFA0748FFF72CF980BDC04680B5044882
:1047E000FFF746F9674900200870FDF777FC80BDA8
:1047F0000080864080B590B00F900E915F480D907C
:104800005F480C905F480078C007002801D1FFE79F
:10481000B1E00F985B4988600E98C8600D980068F9
:1048200007900D98406806900D98007A022836D1BE
:10483000FFE70D984068002102F04FFE00282DD1BF
:10484000FFE70E980D994968FCF7F2FB0590059873
:10485000002102F02CFE002803D1FFE70020059084
:10486000FFE705987F21C90502F037FE002804D133
:10487000FFE77F20C0050590FFE70D9800680490D2
:104880000598414902F080FF7F21C90502F0E2FE50
:104890000146049802F078FF0790FFE7FFE70798CA
:1048A0003849039108610698486107980F9902F00A
:1048B000C3FF0B900C9B0F9A07993448FFF764FED7
:1048C000039909900998886106980E9902F0B4FF3F
:1048D0000A900C9B0E9A06992D48FFF755FE0399F6
:1048E00008900898C8610D98007A401E421E9041B9
:1048F000262288540D98007A421E9041272288541F
:104900000D98007A00280CD0FFE70D98007A022855
:1049100014D1FFE70998089902F0D4FD00280DD1C1
:10492000FFE70998002102911A4AFFF7E1FE0246CB
:10493000029814490A62272288540CE00898002142
:104940000191144AFFF7D4FE024601980D490A620C
:1049500026228854FFE70B480090006A3F21090691
:1049600002F078FEFCF714FC014600988184808CEC
:10497000FDF7B4FBFFE710B080BDC046C016202095
:1049800017B75138101720209A9959BF381720208F
:10499000F016202000F07F4510B594B0129011A8B9
:1049A000018010920F930DA90020088009900890B3
:1049B0001298002810D0FFE70F9800280CD0FFE7CE
:1049C00011A80088032807D3FFE71098002102F000
:1049D00079FD002804D1FFE713A900200870E1E069
:1049E000129811A9098800F0E3F80A90129800883B
:1049F0000CA90880129800880BA908800EA9012034
:104A00000880FFE70EA8008811A9098888422ADAE1
:104A1000FFE712980EA909884900405A0CA9098895
:104A2000884208DAFFE712980EA909884900405A1F
:104A30000CA90880FFE712980EA909884900405A7E
:104A40000BA90988884208DDFFE712980EA909889A
:104A50004900405A0BA90880FFE7FFE70E98401C69
:104A60000EA90880CEE70BA800880CA90988884207
:104A700004D1FFE713A90020087093E00EA90120DC
:104A80000880FFE70EA8008811A9098888425FDA2C
:104A9000FFE712990EA80290008840004018801E7F
:104AA0000088FCF7DFFB0A9902F0C6FE0299079026
:104AB000129809884900405AFCF7D4FB0A9902F081
:104AC000BBFE06900798002102F0FCFC002839D1BB
:104AD000FFE70698002102F000FD002832D1FFE731
:104AE0000698079902F0A8FE05900020049005980A
:104AF0000121C90788432D4902F0EFFC002809D1A4
:104B0000FFE707980121C90748400599FCF790FA8B
:104B10000490FFE70EA80088401EFCF7A3FB049951
:104B200002F098FD03900DA80088002803D1FFE74C
:104B300003980990FFE7039808900D98401C0DA971
:104B40000880FFE7FFE70E98401C0EA9088099E750
:104B50000DA80088022807D3FFE70898099902F0FA
:104B6000B1FC002804D1FFE713A90020087019E068
:104B7000109800900DA80088401EFCF773FB0146BA
:104B8000009802F001FE01900898099902F054FE85
:104B900001460198FCF74CFA0F99086013A901200F
:104BA0000870FFE713A8007814B010BDCCBC8C2BA4
:104BB00080B586B0059004A801800020029003A96A
:104BC0000880FFE703A8008804A90988884212DA50
:104BD000FFE7059803A909884900405AFCF742FB02
:104BE0000146029802F036FD0290FFE70398401C50
:104BF00003A90880E6E70298019004A80088FCF762
:104C000031FB01460198FCF713FA06B080BD0000A5
:104C100080B5024802F022F880BDC0467C0020200A
:104C200080B58AB021490120079080070990FDF7DF
:104C3000B7FB079B09980022069201920092590443
:104C4000FDF784FB0699079A099804910391029154
:104C50000191009153020722FDF79EFA07990998E6
:104C60000904FDF7D7FB09981021FDF7E3FB09982C
:104C7000FDF7D8FA07990998FDF7B8FB0799099845
:104C80000902FDF7E7FA07990998FDF7DFFB099894
:104C900020210891FDF766FA08990998FDF7F4FAC2
:104CA0000998FDF7A9FA0AB080BDC0462881000026
:104CB00080B58AB0204921480990FDF771FB099819
:104CC0000022069201920092012307935904FDF7F6
:104CD0003DFB0699079A099804910391029101916D
:104CE000009153020722FDF757FA07990998090422
:104CF000FDF790FB09981021FDF79CFB0998FDF743
:104D000091FA07990998FDF771FB0799099809022B
:104D1000FDF7A0FA09980221FDF798FB09982021D8
:104D20000891FDF71FFA08990998FDF7ADFA09985F
:104D3000FDF762FA0AB080BD30810000002000401B
:104D400080B584B0114912480290FEF7FDFD02982B
:104D50001049FEF7AFFC0298FEF7D8FA029800213E
:104D6000019101220392FEF7DBFA01990298039A5E
:104D7000FEF724FE0298039A0C21FEF7D1FA02985E
:104D800003990222FEF71AFE04B080BD38810000AC
:104D9000004008403C81000080B582B00A490B48C1
:104DA0000190FDF791FB01980949FDF7B1FB0198CE
:104DB0000021FDF7D3FB01980221FDF76BFB019861
:104DC000FDF75EFB02B080BD5081000000A00040F6
:104DD0006481000080B582B0074908480190FDF762
:104DE000C9FC01980121C902FDF7FEFC0198FDF7FD
:104DF000A9FC02B080BDC046708100000080014067
:104E000080B5034A0D480021FDF792FD80BDC046E4
:104E10009081000080B5034A08480121FDF788FD14
:104E200080BDC046A881000080B5034A0348022126
:104E3000FDF77EFD80BDC046C081000000A042405D
:104E400080B5FFF7DDFFFFF7E5FFFFF7EDFF80BD62
:104E500080B582B0084909480190FEF775FD0198B8
:104E60000749FEF70DFB01981121FEF76DFA019835
:104E7000FEF74CFA02B080BDE881000000008740D8
:104E8000D881000080B58CB00720FDF76DFE0820AA
:104E9000FDF76AFE1F200621FDF77EFE0120099026
:104EA000C1034C480A90FDF7EFFD13200521019145
:104EB000FDF772FE0998410247480790FDF7E4FDAF
:104EC0001D2004210691FDF759FE142002210591B1
:104ED000FDF762FE05991520FDF750FE09980023A5
:104EE000049300934204029212201946FDF704FE37
:104EF000029A049B00930F201946FDF7FDFD029ACC
:104F0000049B00930E201946FDF7F6FD029A049BC0
:104F100000930D201946FDF7EFFD0198029A049BBE
:104F200000931946FDF7E8FD1E20FDF713FE029AD7
:104F3000049B009330201946FDF7DEFD0498FDF731
:104F4000D1FD0998FDF7CEFD2220FDF703FE2320B9
:104F5000FDF700FE049B09980093020403923B2096
:104F60001946FDF7C9FD039A049B009336201946A4
:104F7000FDF7C2FD039A049B009333201946FDF709
:104F8000BBFD039A049B00932B201946FDF7B4FD4B
:104F90000598FDF7DFFD0320FDF7DCFD0698FDF722
:104FA000D9FD3520FDF7D6FD07980C490891FDF78E
:104FB0004DFD07980899FDF767FD09990A9889033F
:104FC0000B91FDF743FD0A980B99FDF75DFD0CB0C1
:104FD00080BDC04600200A4000000A400060007109
:104FE00080B582B00849DD480190FEF7ADFC01981C
:104FF0000649FEF75FFB01980121FEF7A5F901982C
:10500000FEF784F902B080BDEE810000F48100005B
:1050100080B582B00449D6480190FDF723FE01987F
:10502000FDF70AFE02B080BD0882000080B582B0A4
:105030000849C9480190FEF787FC01980649FEF728
:1050400039FB01980121FEF77FF90198FEF75EF91F
:1050500002B080BD128200001882000080B584B0CA
:105060001349BA480390FEF76FFC03981149FEF705
:10507000C1F8039801210291009100230193194680
:105080001A46FEF72BFC0199029A0398FEF7BCFB27
:10509000029A03987D21C901FEF740FC0398FEF7B0
:1050A00035F903980221FEF79BFB04B080BDC04692
:1050B0002C8200003082000080B5074802884188B9
:1050C000090489188288C08800048218A94800232E
:1050D000FDF7FAFE80BDC0463882000080B584B07E
:1050E000124999480390FEF72FFC03981049FEF7E8
:1050F0005BFA039800230293009319461A46FEF7C1
:10510000EDFB029A03981146FEF77EFB029A039884
:105110007D21C901FEF702FC0398FEF7F7F803981A
:105120000121FEF75DFB04B080BDC0464082000057
:105130004482000080B582B000200190FDF7FCFFA2
:105140000198FEF749F8FDF7C9FFFDF7CDFF0548C7
:10515000FDF7FEFFFDF7D2FF0198FEF72DF802B034
:1051600080BDC046EB81000080B582B013497C4809
:105170000190FEF74BFD01981149FEF7D5FC01980F
:105180000021FEF755FD019811211722FEF718FDA9
:10519000019801218902FEF7A5FC0198FEF796FC13
:1051A00001982021FEF754FD01980221FEF762FDCF
:1051B0000198FEF780FC02B080BDC0465C82000012
:1051C0005E82000080B582B0054968480190FEF714
:1051D000B7FD01980349FEF781FD02B080BDC046CE
:1051E000688200006C82000080B500F033F8FFF7A1
:1051F00049FEFFF79FFFFFF771FFFFF72FFFFFF754
:1052000027FEFFF79DFDFFF711FFFFF7E9FEFFF710
:10521000ABFFFFF705FDFFF74BFDFFF7BDFDFFF708
:10522000D1FFFFF7F5FEFFF70BFEFFF745FFFFF796
:10523000D1FD05497422002088540449B823C8547C
:105240000349885480BDC046E01720200416202062
:105250008C15202080B590B090480090FDF7C0FCE0
:1052600038480190FDF7BCFC37480290FEF7ACFAD5
:1052700036480390FEF7A8FA35480490FEF7A4FAE2
:1052800034480590FEF7A0FA33480690FEF79CFAE2
:1052900032480790FEF798FA31480890FEF786FCEE
:1052A000012080070990FDF773F82E480A90FDF75A
:1052B0006FF82D480B90FDF745F92C480C90FEF740
:1052C00033FD2B480D90FDF7E7FC2A480E90FDF7C3
:1052D00067FE29480F90FDF7A1FA0098FDF7EAFB59
:1052E0000198FDF7E7FB0298FEF73CF80398FEF7FC
:1052F00039F80498FEF736F80598FEF733F8069863
:10530000FEF730F80798FEF72DF80898FEF7F8FB3F
:105310000998FCF7D1FF0A98FCF7CEFF0B98FDF730
:10532000C7F80C98FEF7F4FC0D98FDF791FC0E9869
:10533000FDF7BEFC0F98FDF711FA1020FDF71EF9DE
:1053400010B080BD00200A4000A0864000008640CA
:10535000000087400040084000808640000009406F
:10536000008010400020004000A0004000000340EA
:1053700000200240004009400080014080B5052027
:1053800000F02AFB80BD000080B582B00190019939
:1053900042480090FDF764FB00980199FDF77EFB01
:1053A00002B080BD80B584B00023029300931846FC
:1053B00019461A46FDF7B6FB029B009301201946D9
:1053C0001A46FDF7AFFB354803210391FDF748FB73
:1053D000039800F059F800F01BF804B080BDC046F7
:1053E00080B582B0019001992C48FDF7EEFB411E7B
:1053F000884102B080BDC04680B582B0014601A898
:10540000017000780022114600F0CBF802B080BD98
:1054100080B584B0012000F037F802A900200870A0
:10542000FFE702A8017800200829019008D8FFE7CB
:1054300001200090FFF7D4FF009948400190FFE75A
:105440000198C007002816D0FFE70220FFF79CFF55
:10545000FFF794FF00F024F8002804D1FFE703A928
:10546000032008700CE0FFF789FFFFE70298401C5B
:1054700002A90870D5E700F065F803A90870FFE7F6
:1054800003A8007804B080BD80B582B00190019976
:105490000248FDF7EFFA02B080BDC04600000A40A6
:1054A00080B584B00220019000F0C4F90146019853
:1054B0000291FFF7E9FFFFE70220FFF791FF0028C5
:1054C0000CD1FFE70298002804D1FFE703A90020D0
:1054D000087007E00298401E0290EDE703A9012042
:1054E0000870FFE703A8007804B080BD80B582B0E3
:1054F0000120FFF7C9FFFFF7D3FF002804D1FFE722
:1055000001A90320087019E0FFF738FF0120FFF719
:1055100067FF002804D1FFE701A9032008700DE010
:105520000120FFF731FFFFF729FF0220FFF72CFFD3
:10553000FFF724FF01A900200870FFE701A8007809
:1055400002B080BD80B584B00120FFF71DFFFFF7DA
:1055500015FFFFF7A5FF002807D1FFE70120FFF7A0
:1055600093FF03A90320087017E0FFF707FF01204E
:105570000090FFF789FFFFF701FF0098FFF730FF6A
:1055800001460020032201920029029001D10198D6
:105590000290029803A90870FFE703A8007804B0FE
:1055A00080BD80B58AB0034608A80370079106A99C
:1055B0000A8000214056002809D4FFE706A8008889
:1055C000002808D0FFE70798002804D1FFE709A9C1
:1055D000012008704BE0FFF789FF014605A8017024
:1055E0000078002808D1FFE708984000C0B200F01A
:1055F00042F805A90870FFE703A900200880FFE72B
:1056000003A8018806A8028800209142029006DAC9
:10561000FFE705A80078414248410290FFE7029861
:10562000C00700280ED0FFE7079803A90988405C4F
:1056300000F021F805A90870FFE70398401C03A9B2
:105640000880DDE7FFF77EFF04A9087005A8007851
:10565000002804D0FFE705A80078019003E004A823
:1056600000780190FFE7019809A90870FFE709A8F1
:1056700000780AB080BD80B588B006A9087005A979
:1056800000200870FFE705A8007807282BD8FFE75F
:105690000220FFF779FE06A800780006002804D54E
:1056A000FFE70120FFF7F0FE03E00120FFF76CFEAB
:1056B000FFE7FFF763FEFFF7F3FE002804D1FFE7E3
:1056C00007A9032008703AE0FFF758FE0220FFF711
:1056D0005BFE0698400006A90870FFE70598401C8D
:1056E00005A90870CFE70120FFF7CEFEFFF746FEC1
:1056F000FFF7D6FE002804D1FFE707A903200870B2
:105700001DE0FFF73BFE01200090FFF769FE0099C6
:10571000484004A90291087002200190FFF734FE6E
:10572000FFF72CFE02980078C107002000290390A3
:1057300001D101980390039807A90870FFE707A813
:10574000007808B080BD80B5FFF74EFDFDF7DEFCA8
:105750001E2000F04BF980BD80B5FDF7E3FC012170
:1057600009060840000E80BD80B586B005900598FA
:10577000874A002301931946FAF71EFD019B3E4A12
:1057800010437D22D200FAF72FFD03910290039877
:10579000002804D0FFE70020C043009002E00298F8
:1057A0000090FFE7009806B080BDC04680B586B087
:1057B00005900598764A002301931946FAF7FCFCF8
:1057C000019B2D4A10437D22D200FAF70DFD039173
:1057D00002900398002804D0FFE70020C043009007
:1057E00002E002980090FFE7009806B080BDC04636
:1057F00080B586B005900598654A00230193194647
:10580000FAF7DAFC019B1C4A10437D22D200FAF71A
:10581000EBFC039102900398002804D0FFE70020DE
:10582000C043009002E002980090FFE7009806B0A5
:1058300080BDC04680B586B005900598544A0023C7
:1058400001931946FAF7B8FC019B0B4A10437D22DD
:10585000D200FAF7C9FC039102900398002804D003
:10586000FFE70020C043009002E002980090FFE7AD
:10587000009806B080BDC046E703000080B586B042
:1058800004900498424A002301931946FAF794FCC5
:10589000019B404A801859413F4AFAF7A5FC039101
:1058A00002900398002804D0FFE70020C043059031
:1058B0000FE00498002809D0FFE7039902980843F5
:1058C000002803D1FFE70120059002E0029805902F
:1058D000FFE7059806B080BD80B586B004900498B7
:1058E0002B4A002301931946FAF766FC019B294ACB
:1058F00080185941284AFAF777FC039102900398DF
:10590000002804D0FFE70020C04305900FE0049872
:10591000002809D0FFE7039902980843002803D123
:10592000FFE70120059002E002980590FFE7059847
:1059300006B080BD80B586B004900498144A002358
:1059400001931946FAF738FC019B124A8018594115
:10595000114AFAF749FC039102900398002804D0F9
:10596000FFE70020C04305900FE00498002809D00D
:10597000FFE7039902980843002803D1FFE70120BD
:10598000059002E002980590FFE7059806B080BDFB
:105990000048E8013F420F0040420F0080B582B04E
:1059A00001900198FFF7E0FEFCF7E8FD02B080BD32
:1059B00080B582B001900198FFF71AFFFCF7DEFD79
:1059C00002B080BD80B582B001900198FFF756FF0C
:1059D000FCF7D4FD02B080BD80B582B00190019883
:1059E000FFF77AFFFCF7CAFD02B080BD80B582B038
:1059F00001900198FFF79EFFFCF7C0FD02B080BD4B
:105A000080B584B01D48FDF721FD014601910128B4
:105A100028D0FFE7019805282DD1FFE7174800217E
:105A2000FDF7ACFC039016480078C00700280ED0A4
:105A3000FFE7164800680399401A0290029814493B
:105A400008600298411E88410E490870FFE70398DC
:105A50000E4908600A49012008700E490868401C78
:105A6000086009E0064900200870064908700649E8
:105A70000120087000E0FFE704B080BD000087400F
:105A80007C1520207D1520207415202070152020E5
:105A9000781520206C15202080B50648FDF7DFFC26
:105AA000012805D1FFE704494868401C486000E030
:105AB000FFE780BD008086401017202080B582B0AF
:105AC0000A48FDF7BAFC01280DD1FFE7074801217C
:105AD0000191FDF70FFC0198054A1168491C1160FE
