:020000040000FA
:10000000001320208D0100009101000093010000E9
:1000100000000000000000000000000000000000E0
:10002000000000000000000000000000950100003A
:10003000000000000000000097010000990100008E
:100040009B010000552F0000B13E00009B01000005
:10005000F50F0000391900009B0100009B01000012
:10006000000000009B0100009B0100000000000058
:10007000000000009B0100009B010000ED3E00001D
:100080009B0100009B0100009B0100009B01000000
:100090009B0100009B010000000000000000000028
:1000A0009B0100009B010000000000000000000018
:1000B0009B010000000000009B0100009B0100006C
:1000C00000F002F800F052F812A030C808382418E6
:1000D0002D18AC4201D100F049F80FCCA246AB4636
:1000E0000CA730CF2D1B083F3F197C427F1E544484
:1000F0002D090426F441641EAC4201D300F036F809
:100100000126334200D0FB1A3343984754465D46DC
:10011000DFE70000BC4D0000DC4D000000000000E7
:10012000103A02D378C878C1FAD8520701D330C840
:1001300030C101D504680C60704700000000000069
:100140007047000000000000002300240025002666
:10015000103A01D378C1FBD8520700D330C100D583
:100160000B6070471FB51FBD10B510BD00F012FF2A
:100170001146FFF7F7FF04F04FF800F02AFF03B431
:10018000FFF7F2FF03BC00F02DFF00000648004718
:10019000FEE7FEE7FEE7FEE7FEE7FEE70348044969
:1001A000024A044B70470000C100000000122020EA
:1001B0000013202000122020002203098B422CD3A0
:1001C000030A8B4211D300239C464EE003460B43A7
:1001D0003CD4002243088B4231D303098B421CD309
:1001E000030A8B4201D394463FE0C3098B4201D3FB
:1001F000CB01C01A524183098B4201D38B01C01A33
:10020000524143098B4201D34B01C01A52410309A9
:100210008B4201D30B01C01A5241C3088B4201D358
:10022000CB00C01A524183088B4201D38B00C01A05
:10023000524143088B4201D34B00C01A5241411A2C
:1002400000D201465241104670475DE0CA0F00D00F
:100250004942031000D3404253409C460022030908
:100260008B422DD3030A8B4212D38901FC2212BA8E
:10027000030A8B420CD3890192118B4208D3890166
:1002800092118B4204D389013AD0921100E089097E
:10029000C3098B4201D3CB01C01A524183098B425F
:1002A00001D38B01C01A524143098B4201D34B0148
:1002B000C01A524103098B4201D30B01C01A5241AB
:1002C000C3088B4201D3CB00C01A524183088B4232
:1002D00001D38B00C01A5241D9D243088B4201D3BB
:1002E0004B00C01A5241411A00D2014652411046F9
:1002F00063465B1001D34042002B00D54942704752
:1003000063465B1000D3404201B50549002802DC7A
:10031000491C084000E00846C046C04602BD00BF78
:10032000FFFFFF7F70477047704700000246C80F0D
:10033000C00781434B0030B54B405B009B0D20D084
:100340001923DB06C91801231B05994220DB03246E
:10035000A40704251346AB400BD3002B04D1EB06B6
:1003600013409B00E34204D40124640700231219C4
:100370005941FF231B0599420BD2C9000143500F7D
:1003800009E0CB0204D501430803024305D0054828
:1003900030BDFF21C905084330BD084607210905C6
:1003A000884330BD0000C07FF0B50C46871A9C41E1
:1003B0000D46861A9D4103D2C01BA141D21963414B
:1003C0000D0D1F0DC94EEC1BAE435CD07F057F0D9C
:1003D0000026002F51D02D05AC46A943DD02012394
:1003E000ED0A1B051D4320231B1B24D41746E740A1
:1003F000381871412F46E740CC199D4028183146E6
:1004000061410C0D27D161449A4013D50023401C53
:10041000594152000ED14008400001224B005205C4
:10042000D34207D305204007C14201D5B04900E0BF
:10043000B0493046F0BD6B00002A00D001229A1866
:100440001F23203C1B1B01D5002302E0E540281898
:1004500071410C0DD7D0012424050919C407CD071B
:1004600040084908E40F28436144002CD5D00024FB
:10047000401C61419A40D0D1CDE76A05520DD9D1D7
:10048000C90FC907D5E79C4D4E00002801D00124B3
:1004900000E0002434195F00002A01D0012600E0AA
:1004A0000026BE19954FAC420CD8AE420AD8B442D1
:1004B00006D001256D05EC42BCD010461946F0BDB2
:1004C0009942FCD000203946F0BDF0B51FB40C466F
:1004D0000F46811A9F412546861A9D4106D2012565
:1004E000ED076F40401ABC4152187B41210D1E0D93
:1004F0008D1BAC467D4D8D437ED075056D0D7CD03A
:100500000D05AE46AC431B031B0B794D52429D417A
:10051000202366469B1B14D31746F7403818002645
:100520000090744160462F460741E41900989D40B1
:100530002818664116D4714671189A4025D50123B2
:1005400020E093182A466A415200002B00D0521C2A
:100550001E23203E9B1B002B61DD3541EE17281822
:100560006641E8D5001876415B1C9A4000D3401CD8
:100570004B05F3181524E34010D3002B52D07146DD
:100580007118D30FC01802D3491C05B0F0BD012368
:10059000DB079A42F9D140084000F6E701225205F4
:1005A000B21801D1002853D00123CC0ADB029943B1
:1005B000891E002A08D1020C03D0020C0004103955
:1005C00002E00246002020390023550B05D112021B
:1005D0000823550B01D152010D23550C01D11201F5
:1005E0001B1DD50C01D192009B1C150D01D1520091
:1005F0005B1C2025EE1A01E02CE022E00546F540C8
:1006000015439840CA1AE10769181305C918002A4A
:10061000BBDA032040070818C10FC9070FE0714675
:100620006118B2E7F10740080843711071444A00AD
:100630000CD001235B059A42A7D2C90FC90700203D
:10064000A3E74905490D26D1002001E00028F4D197
:1006500000219AE7284D6600002801D0012100E022
:10066000002171185F00002A01D0012600E0002659
:10067000BE19224FA94210D8AE420ED8B14208D0BE
:1006800001256D05E94206D01946A80241401046F1
:100690007BE79C4201D0214677E70020394674E78A
:1006A00010B50C465C4005D50124E4076340FFF714
:1006B0000CFF10BDFFF778FE10BD30B40C465C4057
:1006C00004D50124E407634030BC6DE630BCFCE691
:1006D00070B50124E40761400D465D4002D4FFF788
:1006E00063FE70BD6340FFF7F0FE70BDFF070000C2
:1006F0000000F0FF0000F07F0000E0FF0000F87F46
:10070000F0B5F94D0C091E092C402E402F468BB038
:10071000A7437DD0B543FCD0002E7AD0002CFCD06E
:100720000D465D40ED0F2543AC1BFF25AD0464195C
:100730000894C502440DC9022143500DDC02044354
:100740000120C00701430443D2020191200C110C87
:1007500000958C46010423468B430A9161460904A7
:10076000E24D8A430991010A7D444919803909788B
:1007700005464D4301266D18F605751B6943C90CE6
:10078000640B891C4C436418B5012C1B250C2E04EA
:10079000B4434C434D43210C691889090591009DD0
:1007A000E90701D00121C90704912C460199670886
:1007B000CD072F434C08059DE10B4D432D0C2946D9
:1007C0006646754302950D4645432E46029D7D1BA8
:1007D000B44100950D465D4301942C0C2F040D4649
:1007E0005543AE462D0C3D43029503947546049C3B
:1007F0002D04641B049406D2029C039D641C0026F5
:1008000075410395029401AC70CC009F7D1B01E003
:100810003EE162E1B4410904009507910194059914
:10082000A4086143090C0C464443650BE7040C46DD
:1008300066467443A646640B3C4303950294744693
:10084000049DE4042C1B049406D2029C039D641CAA
:10085000002675410395029401AC70CC009F7D1B6E
:10086000B44101940C465C430095650FE7000C46CB
:100870005443A646640F3C43039502947446049D7A
:10088000E4002C1B049406D2029C039D641C0026E9
:1008900075410395029401AC70CC009F7D1BB4415F
:1008A000AE09AF06049DC900AD092F43049DA406FF
:1008B000AD060495079D344369180791059DE10B2A
:1008C0004D432D0C29466646754302950D4645431A
:1008D0002E46029D7D1BB44100950D465D4301945B
:1008E0002C0C2F040D465543AE462D0C3D4302956E
:1008F00003947546049C2D04641B049406D2029C48
:10090000039D641C002675410395029401AC70CCD4
:10091000009F7D1BB44101948C050694079C890AB5
:10092000611800950791019C0599A4086143090C81
:100930000D464543680BEF040D46644665436C0B5A
:100940003C43049FED047D1BAC4602D20025641C91
:100950006841009E019D371B85410846584301951B
:100960000C46460FC5005443600F28436546E4001B
:100970002C1B02D20025401C6E41019D3F1AB5413F
:100980002846BD09800628438446A009BF064E02BA
:100990000699A40676180743079D002068410A9926
:1009A000079019430020099B00906046FF191343EC
:1009B0004041E20F64003A43A4460446D71A8C41F2
:1009C000A04203D90120009020463A46C70F941850
:1009D00040416246D20F2243644664000494009C66
:1009E000BE466400D71AA446044602978C41774657
:1009F000002F01D1A04204D96046401C8446029ACF
:100A00002046C40FA64694184041049A0546D20FCA
:100A1000224364466400D31A8D417146002901D1F6
:100A2000A84202D928461A46641C10430122002815
:100A300000D0164361020020079B891904465C41DF
:100A40000223002C02DB491813466441089DCE0A9C
:100A50002D145D194B056705E10A2C050D19089940
:100A60003E43C9076940002B08D0934006D30022BB
:100A7000761C5141002B01D1760876001C4A002DCE
:100A800043DB154241D0AA433FD030460BB0F0BD06
:100A900006180D464D41174C7642AC411AD39518B5
:100AA0001C465C41134A6D42A24113D301225205F8
:100AB0004C00D4420AD15C00D4420BD04B4002D54A
:100AC00092021143E2E749004908DFE75940C90FA4
:100AD000C90718E000200849D8E7054801420DD1B0
:100AE0000342F7D0F2E700000000FF07043D0000DA
:100AF0000000F07F0000E0FF0000F87F114859403F
:100B00000143C01241400020C0E70123089A9B0620
:100B10009A4205DC032252078918C90FC907B5E7B5
:100B2000052252078918074A1143D2125140ADE7F6
:100B300070B515461C4602460B4628462146FFF76F
:100B4000DFFD70BDFFFFFF7F1F22030C02D10F22CC
:100B5000000402D0030E03D004E0002001467047D9
:100B60000002083A030F01D10001121F830F01D1C7
:100B70008000921E002801DB4000521E1205511811
:100B80004205C012411810467047C10FC90700D076
:100B90004042012292071143D6E701218907D3E79A
:100BA000F0B58B4C0F09254689B0BD437BD01D099C
:100BB0002646AE43FAD00E465E402740F60F3E432F
:100BC000254071D024012142FBD0FF24AD19A4049B
:100BD0002D1B039501252D05DB02DB0AC9022B43E2
:100BE000C90A29431E010901040F130F05012143FE
:100BF0001701880B820391432D098C46A90B1E43D4
:100C00008A039543B30B9A0396433F09BA0B9403A7
:100C1000A74302962E467E430497B6464E19D7192F
:100C20000C460196544305977E43371B7646BF1BFF
:100C30003601B646BE0B361900967646BC04371907
:100C4000009C01D3641C00946400002F01D0012695
:100C50003443029E049F754366467E4304967600A5
:100C600034196E0034190094029C019E1C196643CD
:100C7000751BAE46069465464519059C05956C4363
:100C8000594375460891691A0191049E01465143E2
:100C9000A41B0491611A009C0791E10605D061092B
:100CA0000122114302E072E06EE06109089D002715
:100CB0002C0A2D066918049D7C412A0A2D06691804
:100CC000019D6241AC0DAD026D185441079A910D22
:100CD000920255196141029A644658435443069B57
:100CE000059A5A43121A131B9A0E9B015B187A41FC
:100CF000010B0005C3185141220A200644195A412C
:100D00009A4200D2491C01204002814203D315239C
:100D10000226F64302E014230326F6432020C51AD8
:100D2000A9401746AF40DA400A4320460399D8400D
:100D30000914731819055118039A3843D207514002
:100D4000AC4009D00122944006D30022401C5141FE
:100D5000002C01D1400840001E4A934212D30122C8
:100D600003989206904207DB0520400709181A48AD
:100D70000143C012414004E0032040070818C10F9E
:100D8000C907002009B0F0BD0020F107FAE70518F7
:100D90000C464C4111486D42A04115D394181A4697
:100DA0005A410E48644290410ED301204A0040054A
:100DB000824209D35A00824206D35940C90F084AD9
:100DC000C90700201143DDE700200649DAE70000EB
:100DD0000000FF07FE070000FFFFFF7F0000E0FFAD
:100DE0000000F07F0000F87F0121C90501234118B0
:100DF00042001B06D3185B0E0AD0C1100722D20690
:100E0000891840075242D14201D5520089187047D3
:100E1000090208D50146002A03D0C10FC9070020E6
:100E2000704710467047420202D0002002497047C6
:100E3000072109050143F4E70000F87F0102C2150C
:100E400004D00123DB071943002A0ADB9E239A1AE8
:100E500002D40846D0407047FF224100120691425A
:100E600001D900207047C017C043704710B500F08B
:100E700089F8006810BD10B5044600F083F80460DE
:100E800010BD0000F0B53D4B02460C461C40002052
:100E9000002C63D03A4D8B4366D000296BDB0B0DE1
:100EA0001D05A94301252D0529430124FD33E340F8
:100EB00001D392184941FF3381339C468B02940D34
:100EC0000121234389074C42920200271B198C10F1
:100ED0005D1A04D42D1B02D42B46650049199218C3
:100EE0005B416408F4D15C1A08D40125ED07EE17C4
:100EF0005519744102D42A462346491C94185B4173
:100F0000012292071D46E61B8D4106D4B61A854183
:100F100003D42B46550034467F1924195B415208EF
:100F2000802AEFD1234300D0022338460A22D04042
:100F300001D3012213438A0510436246890A120530
:100F40008918002B09D00122D34002D30022401C73
:100F50005141002B01D140084000F0BD0B03134369
:100F600007D0C90FC907F0BD0803104303D10029FA
:100F700001DB1046F0BD00202946F0BD0000F07FE7
:100F80000000F87F00487047180020200048704794
:100F9000180020207546FFF7F9FFAE4605006946A8
:100FA0005346C008C000854618B020B5FFF7F6F8D4
:100FB00060BCB64600260027C0C5C0C5C0C5C0C5B8
:100FC000C0C5C0C5C0C5C0C5403D490849008D4623
:100FD000704710B50446C046C0462046FFF7CFF81C
:100FE00010BD000001491820ABBEFEE7260002003C
:100FF0007047000080B50120800700F039FF062807
:101000000AD1FFE705490120087083070448002141
:10101000032200F09DFB00E0FFE780BD7900202067
:101020003204000080B596B014AA1070139100200D
:101030000F900E900B900A90139800280AD0FFE7AB
:1010400014A80078002809D0FFE714A80078012828
:1010500004D0FFE715A90020087093E014A80078D9
:1010600000F05AF9119012A932200880FFE712A867
:1010700000884649884215D8FFE7119812A90988C7
:101080004900405AFFF789FD02460B460E980F991A
:10109000FFF706FB0F910E90FFE71298401C12A974
:1010A0000880E4E70E980F990022394BFFF778FD8E
:1010B0000D910C9012A932200880FFE712A8008839
:1010C0003249884223D8FFE7119812A909884900BC
:1010D000405AFFF762FD0C9A0D9BFFF7EEFA07915D
:1010E0000690069A079B0A9804900B980590104664
:1010F0001946FFF755FD049A059BFFF7D1FA0B91AE
:101100000A90FFE71298401C12A90880D6E70A98B7
:101110000B99002202921E4BFFF742FD03F0D6F816
:1011200009910890139901200390800208800C987F
:101130000D99FFF7FBF81399486008980999FFF794
:10114000F5F813998860099801900898009000F0CC
:1011500027F8FFF749FE024600980B460199FFF772
:101160001FFD029A0B4BFFF71BFD0B4A0B4BFFF7C2
:10117000C7FAFFF7DBF801460398139AD16015A967
:101180000870FFE715A8007816B080BD3104000094
:101190000000503F00408F400000F6C80C3CD64095
:1011A000004870470000204080B50249012000F04F
:1011B0005DFA80BD844E000080B58AB0099005A913
:1011C00000208870082008800998002804D1FFE7D3
:1011D000192040020990FFE709984749884203D344
:1011E000FFE746480990FFE709994808654A8018D3
:1011F000FEF7E2FF08900898002803D1FFE70120DE
:101200000890FFE708983E49884204D3FFE7012091
:1012100000060890FFE708983A494018000C07902C
:101220000798002803D1FFE701200790FFE7079800
:10123000FF210231884204D3FFE70120000207901A
:10124000FFE708980799FEF7B7FF06900698002871
:1012500003D1FFE701200690FFE706982A4988425C
:1012600004D3FFE7012000040690FFE70798401E23
:101270002649019108700698401E2549039108806F
:101280000798069941433F48FEF796FF01460398A9
:101290003A4A116000881F490880EB48009001F02D
:1012A00053FC009801990A7805A902918A7001F00F
:1012B000B7FB00980399098801F0E2FB00980399B5
:1012C000098801F00FFCE148049001F03DFC019A0F
:1012D0000299049812788A7001F0A2FB039904988D
:1012E000098801F0CDFB039904980988C91D01F014
:1012F000F9FB0AB080BDC04601093D0000093D0070
:1013000001000001FFFF000001000100910020200A
:10131000040020201000202082B0014601A80170A6
:101320000078012804D1FFE706480068009003E038
:10133000034800680090FFE7009802B07047C0467D
:10134000080020200C00202080B582B00B480068E7
:10135000002803D1FFE70B4801900CE00748016823
:101360000748FEF729FF0090009964317D20800135
:1013700048430190FFE7019802B080BD00002020A3
:101380005063100000127A0083B0014602A8017079
:101390000178012080070090EC480129019001D0DC
:1013A00000980190019803B07047C04680B582B0A4
:1013B0000146684601700078C007002816D0FFE794
:1013C000A348002100F040FF002804D1FFE79D4919
:1013D00001200870FFE79B480078C007002804D16F
:1013E000FFE701A90020087020E0FFE768460078C9
:1013F0008007002816D5FFE79548012100F024FF5B
:10140000002804D1FFE7EE4901200870FFE7EC480F
:101410000078C007002804D1FFE701A90020087068
:1014200004E0FFE701A901200870FFE701A80078A8
:1014300002B080BD80B596B015A912910870DF4941
:1014400000200B900870DE490870BE490870DD4826
:1014500001F07AFB7D4801F077FB01200A908007BC
:101460000C9000F0C7FDB9480D9000F0C3FD0C983A
:1014700000F01AFC0D9800F017FC0B9974480F90BF
:1014800000F0A9FE0A990F9800F0A5FE0B990C98A0
:10149000C9430E9100F0BEFB0D980E9900F0BAFB07
:1014A0000F986C4900F050FE0420109002F058FE96
:1014B0000520119002F054FE109802F00FFE1198D2
:1014C00002F00CFE12980078C007002818D0FFE741
:1014D00013A900200870FFE713A8007807280ED88A
:1014E000FFE701208007002100F098FC14A9088084
:1014F0001498FFE71398401C13A90870ECE7FFE766
:1015000015A800788007002817D5FFE713A9002049
:101510000870FFE713A8007807280DD8FFE7DC481C
:10152000002100F07BFC14A908801498FFE71398B1
:10153000401C13A90870EDE7FFE7474809900188B0
:10154000D24801F0CFFA09980088C11DD14801F0B6
:10155000C9FA15A80078C007002805D0FFE70120C8
:10156000800700F013FCFFE715A80078800700282B
:1015700004D5FFE7EF4800F009FCFFE7082000F082
:1015800053FD15A80078C007002825D0FFE70120EB
:101590000790800708900021069100F057FC0699FB
:1015A00002462B48059000F097FE059806992B4AB5
:1015B00000F07EFE05980699EA4A00F0A1FE059823
:1015C000069900F02EFE089800F0ECFB07990898A9
:1015D000090200F0F3FBFFE715A800788007002858
:1015E00023D5FFE7DD480490002100F02FFC0246E0
:1015F000174802900121039100F06EFE02980399B2
:10160000174A00F055FE02980399D64A00F078FE7A
:101610000298039900F005FE049800F0C3FB0399BB
:101620000498090200F0CAFBFFE700200190FFF7D1
:10163000ABFE019903460122084600F089F816B076
:1016400080BDC046790020200040084000808640D0
:1016500000A042400300000304002020920020204C
:10166000F608202081B0009001B0704780B58CB0A2
:101670000AAA079210700991FFF766FE0890099870
:10168000FFF7F0FF07980078FFF7D4FE2B48FFF72D
:10169000E9FF2B48FFF7E6FF0798007800F096F87F
:1016A000FFE70AA80078FFF781FE002829D1FFE7AD
:1016B0000898002820D1FFE70AA80390007800F0DE
:1016C000EBF803980178012001404B420A465A4149
:1016D00004928007A14A05920029069001D105983D
:1016E00006900499069B00200290052200F030F835
:1016F00002980BA908701DE00898401E089030BFA2
:10170000CFE70AA8007800F0C7F80E490120019041
:10171000087000200090FFF737FE009903469148BB
:10172000042200F015F80848FFF79CFF01980BA968
:101730000870FFE70BA800780CB080BD684E000071
:10174000714E0000780020207F4E000000200040F5
:1017500010B586B005AC208004A8017003A8027003
:1017600002930598144901910880049888700398A1
:10177000C87012480078012210400871784800783B
:1017800010404871DC48009001F000F9019A0146D0
:101790000098917101F074F8019988600298002115
:1017A000C94300F06FFB0199C8600298064A80584F
:1017B000086106B010BDC0467C00202079002020C2
:1017C00090002020004008400411000080B58AB03D
:1017D00009A90891087087480121079100F0D2FDFE
:1017E0000799C54800F0AAFF08980078C0070028AC
:1017F00013D0FFE70120800704902021059100F01D
:1018000009FA0498059900F0E7FA0420069002F01E
:1018100065FC069802F0D6FCFFE709A8007880076F
:10182000002812D5FFE74D4801902021029100F0D9
:10183000F1F90198029900F0CFFA0520039002F027
:101840004DFC039802F0BEFCFFE709A80078C00732
:10185000002804D0FFE7A84801F058F9FFE709A8DD
:1018600000788007002804D5FFE7314801F04EF9E1
:10187000FFE700200090FFF787FD00990346022252
:101880000846FFF765FF0AB080BDC046004008402B
:10189000002000400080864080B588B007A90691EE
:1018A00008709548049001F04FF9214801F04CF977
:1018B00004980121059100F041FF05994D4800F081
:1018C00061FD06980078C007002815D0FFE70120C9
:1018D0008007029000F08EFB029800F0E5F9029874
:1018E0000021C94300F096F90420039002F038FC6F
:1018F000039802F0F3FBFFE707A8007880070028B1
:1019000014D5FFE71548009000F074FB009800F034
:10191000CBF900980021C94300F07CF90520019023
:1019200002F01EFC019802F0D9FBFFE708B080BD71
:10193000008086400020004080B5084800F098FAFA
:10194000062809D1FFE70648012101700548032256
:10195000024BFFF7FDFE00E0FFE780BD00200040E6
:10196000900020203204000080B582B001A9002040
:1019700008700120C1061F4800F09AFD00010028F0
:1019800006D5FFE701980121084301A90870FFE788
:1019900001204106174800F08BFD8001002806D584
:1019A000FFE701980221084301A90870FFE7012021
:1019B0000106114800F07CFDC001002806D5FFE7B4
:1019C00001980421084301A90870FFE70120810460
:1019D000094800F06DFD4003002806D5FFE7019897
:1019E0000821084301A90870FFE701A8007802B0A8
:1019F00080BDC04600000A4000200A4080B58CB07F
:101A00000AA909910870EFF3108072B60B900120BB
:101A10000490810200913748019001F0E3F80099A9
:101A2000019801F0A7F80F2002F044FB019801F0A3
:101A3000B7F8019801F0E4F82F48029001F07AF825
:101A40000298049900F090FE0298049900F060FE5C
:101A5000029800F0A1FE294803900021059100F0B2
:101A6000A7FB0398049900F0A3FB0398022100F060
:101A70009FFB04988007079000F0B0FA079800F0E9
:101A800008F9079800F026F904990798090200F070
:101A900039F90798202100F04DF905990798C943B5
:101AA00000F0A0F80420069002F042FB069802F035
:101AB00001FB079800F014FA079800F053F910485A
:101AC000089001F0CDF9089801F016FA089801F095
:101AD000DDF909980078C007002803D1FFE701F07D
:101AE0006AFDFFE700F062FD00F072FD00F06AFDA4
:101AF0000CB080BD008010400040084000A0424073
:101B00000000034080B582B00190009101980078F8
:101B1000C007002801D1FFE714E000980068002802
:101B200005D0FFE700990868401E0860FFE70098AD
:101B30000068002806D1FFE701F03DFD0199002073
:101B40000870FFE702B080BD80B586B001F0E0FB11
:101B5000059001F044FD01F003FD0598002806D032
:101B6000FFE70598007CC007002806D1FFE71C4A64
:101B70000121084601F0D1FE29E00598C0683F2107
:101B8000090602F0C7FBFFF759F90490114A012139
:101B90000091084601F0C1FE0098049A06210291C6
:101BA0000523039301F07CFE00980B4A0C2101F001
:101BB000B4FE0099094A0220019001F0AEFE01989E
:101BC0000299039B059A126801F06AFEFFE706B0CE
:101BD00080BDC046514B00005E4B00004C4B0000E6
:101BE000564B000082B001900091009B0199154A6C
:101BF00088581843885002B07047C04682B00190A0
:101C00000091009B01990F4A88581843885002B0F0
:101C10007047C04682B001900091009B0199094A2B
:101C200088581843885002B07047C04682B001906F
:101C30000091009B0199034A88581843885002B0CC
:101C40007047C0464810000010B585B000920246AB
:101C500000980B9C0A9C099C089C079C049203AA70
:101C60001170029001930298019908430799084363
:101C700008990843099908430A9908430B990843AE
:101C800004991278920089182322D201885005B055
:101C900010BD81B0009000991120020288580123E4
:101CA0009843885001B0704781B00090009911208E
:101CB0000202885801239843885001B0704781B0D0
:101CC00000900099112002028858012398438850FF
:101CD00001B0704781B000900099AA4A885801234A
:101CE0001B029843885001B07047C04681B00090F5
:101CF0000099A44A885801231B029843885001B0D8
:101D00007047C04682B001900091009B0199314A12
:101D100088589843885002B07047C04682B00190FE
:101D20000091009B01992B4A88589843885002B033
:101D30007047C04682B001900091009B01992C4AE7
:101D400088589843885002B07047C04682B00190CE
:101D50000091009B0199264A88589843885002B008
:101D60007047C04681B0009000990120C202132044
:101D70004006885001B0704781B000900099012062
:101D8000C20213204006885001B0704781B0009015
:101D9000009911200202885801231843885001B08D
:101DA0007047000081B000900099764A885801235E
:101DB0001B021843885001B07047C04682B00190A2
:101DC0000091009B0199034A88581843885002B03B
:101DD0007047C0468810000082B001900091009BBF
:101DE0000199034A88581843885002B07047C0468A
:101DF0002810000081B0009000990120C202CB4859
:101E0000885001B07047C04681B000900099012011
:101E1000C202C648885001B07047C04684B00091E5
:101E200001460098039102A9087003980978890077
:101E300040182521C90140180190019802494058D5
:101E400080B204B07047C0460050550083B0009186
:101E500001460098029101A908700298097889004A
:101E600040180249401803B07047C04680625500D0
:101E700081B000900098812149014058C0B201B062
:101E80007047000082B001900091019802494058CB
:101E90000099084002B070473010000010B584B0BF
:101EA000079C069C039002910192009303985D4960
:101EB00040180299019A1143009A1143064A00F012
:101EC000BDF803982F4940180699079A1143034A11
:101ED00000F0B4F804B010BD0100130007001F1F8C
:101EE00081B000900099964A9648885001B070479A
:101EF00081B000900099924A9248885001B0704792
:101F000081B0009000998E4A8E48885001B0704789
:101F100080B582B00190009101980D494018009958
:101F20000978A922120689180A4A00F09BF801983C
:101F3000112109024018009949680722120600F091
:101F400091F8009840780199034A885002B080BD0A
:101F500008080000030000FF1011000080B584B0E5
:101F6000019101460198039102A908700398054A5E
:101F700080180978C9021F22D20200F05FF804B06D
:101F800080BDC0460811000080B582B0019000916C
:101F9000019811210902401800990122120400F051
:101FA0004DF802B080BD000082B00190684601800B
:101FB00000880199014A885002B07047141100004E
:101FC00082B001906846017000780F2108400199A5
:101FD00001229202885002B07047000081B0009048
:101FE0000099104A885801231B029843885001B079
:101FF0007047C04681B0009000990A4A8858012372
:102000001B029843885001B07047C04681B00090D1
:102010000099044A885801231B029843885001B054
:102020007047C0460411000082B001900199881EDB
:10203000001F00BFFCD2009002B0704784B0039034
:1020400002910192039800680090009801998843DA
:10205000009000980299019A114008430399086082
:1020600004B0704784B00390029101920398006815
:102070000090009801998843009000980299019A75
:10208000114008430399086004B0704784B003907E
:10209000029101920398006800900098019988438A
:1020A000009000980299019A114008430399086032
:1020B00004B0704784B003900291019203980068C5
:1020C0000090009801998843009000980299019A25
:1020D000114008430399086004B0704784B003902E
:1020E000029101920398006800900098019988433A
:1020F000009000980299019A1140084303990860E2
:1021000004B0704781B0009000990120C2021320F2
:102110004006885001B0704781B0009000990120BE
:10212000C202B448885001B07047C0460100002682
:1021300081B000900099ED4AED48885001B0704799
:1021400004080000030000B182B0019000910098E3
:1021500001998B4A885002B07047C04670B587B06D
:10216000009314460D46009902460E980D980C985F
:102170000B9B069205AA15700494039102A90B808B
:1021800001AB18800498039C20430E9C240120433B
:102190000D9C20431B881B0118430988084306999E
:1021A00012781201891809225202885007B070BDB6
:1021B00083B0009101460098029101A9087002982D
:1021C00009780901411809204202885802239843DE
:1021D000885003B0704783B0009101460098029187
:1021E00001A90870029809780901411809204202E2
:1021F000885802239843885003B0704783B00091F9
:1022000001460098029101A9087002980978090115
:10221000411809204202885802239843885003B08D
:10222000704783B0009101460098029101A908709F
:1022300002980978090141180920420288580223AE
:102240001843885003B0704783B00091014600984E
:10225000029101A9087002980978090140183349D0
:10226000405880B203B07047F0B589B00491014680
:102270000498089107A905910870069208980978B2
:10228000069F7A68BB68BC89FD893E697F690397B0
:10229000029601950094FFF761FF05990898097867
:1022A000069B1A785B7800F043F809B0F0BD000097
:1022B00084B0009202460098039202AA1170019025
:1022C00001980399127812018918024A885004B0C3
:1022D0007047C0460812000084B000920246009881
:1022E000039202AA117001900198039912781201C9
:1022F0008918024A885004B07047C0460412000092
:1023000085B000920A460099019202460198049213
:1023100003AA107002A801800088049912781201A3
:102320008918024A885005B07047C0460C12000058
:1023300010B586B0019303460198059304AB19705C
:1023400003A90A7002AA107005981B789B00C01898
:10235000044BC018097812781143BF22FFF796FE8C
:1023600006B010BD1011000082B001900091009BDA
:102370000199EC4A88581843885002B07047C0460B
:102380004810000082B001900091009801999522B8
:102390005201885002B0704782B0019000910098BD
:1023A000019995225201885002B0704782B0019085
:1023B0000091009B0199034A88581843885002B045
:1023C0007047C0462810000082B00190009100982C
:1023D0000199024A885002B07047C046D0120000EE
:1023E00081B0009000990120C2026948885001B074
:1023F0007047C0460100002682B00190009101980C
:10240000024940580099084002B070473810000057
:1024100010B584B0069C039002910192009302983B
:102420000199084300990843069908430E49084357
:10243000039989001D4A885004B010BD10B584B0BE
:10244000069C03900291019200930298019908431F
:1024500000990843069908430349084303998900F2
:10246000124A885004B010BD8100040081B0009071
:10247000009881000D4A8120885001B07047C04605
:1024800081B0009000988100084A0020885001B077
:102490007047C04682B001900091009880210843A7
:1024A00001998900014A885002B070470480424077
:1024B00082B00190009101982721C90140580099EC
:1024C000084002B0704782B0019000910198272126
:1024D000C90140580099084002B0704781B000908F
:1024E0000099304A3048885001B070470408000015
:1024F000030000B182B001900091009B0199034A52
:1025000088581843885002B07047C04690130000A6
:1025100082B00190009100980199024A885002B05F
:102520007047C0469012000082B0024601A80270B7
:102530000091009B007830214143034A885818439A
:10254000885002B07047C0462811404081B0014613
:10255000684601700178302048430249405801B074
:102560007047C0460011404081B0009000990120A2
:10257000C20213204006885001B0704781B000901D
:1025800000990120C202B248885001B07047C0468D
:102590000100002681B000900099024A024888504C
:1025A00001B0704704080000030000B11449086836
:1025B0000122904308607047114908680122904346
:1025C00008607047124908681022904308607047FD
:1025D0000B49086801221202904308607047C04608
:1025E0000749086801221202904308607047C046FC
:1025F0000349086801221202904308607047C046F0
:1026000008010B4002490868102210430860704717
:102610003C010B40084800687047C0460648006807
:102620007047C04681B0044800680321084000900C
:102630006846007801B0704704020B4081B0014643
:102640006846017000780249086001B07047C046D2
:1026500008030B4080B582B0014601A801700178E3
:102660002A480F22FFF7EAFC02B080BD80B582B095
:10267000014601A801800188012042020248FFF7BB
:10268000DDFC02B080BDC04638010B4080B500F0D3
:1026900025F80B49086804229043086080BDC046B5
:1026A00006480122026006490868042318430860AE
:1026B00016490868520510430860704740010B40F6
:1026C00010ED00E080B582B0014601A801700178EC
:1026D0000D480322FFF7B2FC02B080BD80B50A4965
:1026E00008680122930298430860084908681205A7
:1026F00090430860FFE7FFF791FF8003002801D5B2
:10270000FFE7F8E780BDC04600010B4004010B4025
:1027100082B00190009100980199124A885002B04D
:102720007047C0464810000082B0019000910098A8
:1027300001990C4A885002B07047C04682B001909F
:10274000009100980199074A885002B07047C0462E
:1027500082B00190009100980199024A885002B01D
:102760007047C0464810000082B001900091009B65
:1027700001992C4A88589843885002B07047C04647
:1027800082B001900091009B0199264A8858984395
:10279000885002B07047C04681B000900099012077
:1027A000C20213204006885001B0704781B00090EB
:1027B00000990120C20213204006885001B07047E2
:1027C00081B000900099064A0120885001B07047FE
:1027D00081B000900099024A0120885001B07047F2
:1027E0000811000084B0039002A8017001920399BF
:1027F000054A89180091019B009900788200885849
:102800001843885004B070475810000082B00190FF
:102810000091009B0199034A88581843885002B0E0
:102820007047C0462810000081B000900099012038
:10283000C2020748885001B07047C04681B000907E
:1028400000990120C2020248885001B07047C0467A
:102850000100002681B00090009881214901405874
:10286000C0B201B07047000082B0019000910198A1
:10287000024940580099084002B0704730100000EB
:1028800081B0009000980321C902405801B0704700
:1028900080B584B00390029103980299496800F0D2
:1028A000E5F8029800780190222856D80198810016
:1028B00001A040588746C046512900005B2900000E
:1028C000512900005B2900005B2900005B29000002
:1028D0005B2900005B2900005B2900005B290000E8
:1028E0005B2900005B2900005B2900005B290000D8
:1028F0005B2900005B290000452900005B290000DE
:10290000452900005B2900005B2900005B290000CD
:102910005B2900005B2900005B2900005B290000A7
:102920005B2900005B2900005B2900005B29000097
:102930005B2900005B290000452900005B2900009D
:102940004529000003980121490700F081F805E0BE
:102950000398002100F07CF800E0FFE7039802995B
:1029600009690022009200F045F8009B0398029943
:10297000C9681A4600F020F802990878097A0843D5
:1029800003997B4A885004B080BDC04681B0009056
:102990000098774940580121084001B07047C0466F
:1029A00081B000900099024A0248885001B07047F7
:1029B00004080000030000B110B586B00590049132
:1029C000039202A803700599084A891801910178B9
:1029D000019889004018019001980499039A1143C5
:1029E000034AFFF767FB06B010BDC0463018000071
:1029F0007777020084B00390029101A802700399D6
:102A0000064A8918009101780098890040180090C2
:102A100002980099086004B07047C0461018000082
:102A200082B001900091009800780199E74A88509F
:102A3000009840780199012212038850009880780C
:102A40000199024A885002B07047C0460C1100003C
:102A500080B582B0019000910198454940180099D5
:102A600003221207FFF726FB02B080BD82B001905F
:102A70000091009801990C4A885002B07047C046F6
:102A800082B00190009100980199074A885002B0E5
:102A90007047C04682B00190009100980199024AA7
:102AA000885002B07047C0460818000086B00092F7
:102AB0000A460099019202460198059204AA1070F4
:102AC00003A801700599064BC918029100780F21DF
:102AD0000840029912789200885006B07047C046AC
:102AE0004404000082B001900091009801990322F3
:102AF000D202885002B0704782B0019000910098D5
:102B000001990322D202885002B0704781B0009030
:102B10000099174A885801231843885001B070471C
:102B200081B000900099124A8858012318438850B8
:102B300001B0704781B0009000990D4A8858012378
:102B40009843885001B0704781B000900099084ABE
:102B5000885801239843885001B0704781B0009095
:102B60000099034A885801239843885001B0704760
:102B70000418000082B00190009100980199074A62
:102B8000885002B07047C04682B001900091009812
:102B90000199024A885002B07047C04648100000B0
:102BA00081B00090009911200202885801239843B7
:102BB000885001B0704781B0009000991120020246
:102BC000885801239843885001B0704781B0009025
:102BD000009911200202885801235B049843885011
:102BE00001B0704782B001900091009B0199034AA7
:102BF00088589843885002B07047C046281000009B
:102C000081B0009000990120C20213204006885034
:102C100001B0704781B0009000990120C2021320DA
:102C20004006885001B0704781B000900099112093
:102C30000202885801231843885001B070470000F1
:102C400081B0009000990120C202A448885001B0D0
:102C50007047C04681B0009000990120C2029F4891
:102C6000885001B07047C04681B000900098812123
:102C700049014058C0B201B07047000080B582B031
:102C8000019000910198FFF796FF01981121090228
:102C90004018009A11889378194392881143084A82
:102CA000FFF71CFA019893494018009A9179D3795B
:102CB0001943127A11437E22FFF710FA02B080BD49
:102CC0001867020081B000900098644940580121C3
:102CD000084001B07047C04681B0009000985F493D
:102CE00040580121084001B07047C04681B00090B3
:102CF00000985A4940580121084001B07047C04629
:102D000081B000900098554940580421084080083F
:102D100001B0704781B00090009850494058402160
:102D20000840800901B0704781B0009000984B497D
:102D30004058C0B2C00901B07047C04681B0009091
:102D4000009802494058C0B201B0704724110000F9
:102D500081B000900099744A0148885001B07047D2
:102D6000030000B180B584B00390029101920398F2
:102D70000B49401802990B4AFFF760F903980A497A
:102D8000401801993F22FFF759F90399594A8818C9
:102D9000895801221140FFF751F904B080BDC046A7
:102DA00010110000FFFF00001411000082B001901C
:102DB0000091009800780199654A88500098407801
:102DC000019901221203885002B0704708100000D8
:102DD00080B582B00190009101981121090240183C
:102DE00000990322D203FFF729F902B080BD82B017
:102DF000019068460170007801998922520188503B
:102E000002B0704780B582B0019068460170FFE75C
:102E10000198FFF789FF002801D0FFE7F8E7019844
:102E200069460978FFF7E3FF02B080BD82B00190E8
:102E30000091009908784A7810434988084301991D
:102E400011221202885000994868896809040843D1
:102E50000199024A885002B07047C046081100002C
:102E600081B00090009911200202885801239843F4
:102E7000885001B0704781B0009000991120020283
:102E8000885801239843885001B0704781B0009062
:102E900000990120C20213204006885001B07047FB
:102EA00081B0009000990120C20213204006885092
:102EB00001B0704781B0009000990120C20207481C
:102EC000885001B07047C04681B000900099012041
:102ED000C2020248885001B07047C0460100002677
:102EE00081B000900098034940580121084001B08A
:102EF0007047C0460411000081B0009000990A4A52
:102F00000A48885001B0704781B000900099064A85
:102F10000648885001B0704781B000900099024A7D
:102F20000248885001B0704704080000010000B159
:102F300082B001900091009800780199044A88506D
:102F400000984078019901221203885002B070471E
:102F50000810000080B584B00120FFF7F7FA039055
:102F6000039802281BD1FFE728480190082100910F
:102F7000FFF742FA0099024601980292FFF7F4F92E
:102F800001200221FFF7D0FA02A8007800070028EC
:102F900004D5FFE7EB4902200870FFE704E00120B9
:102FA0000321FFF7C1FAFFE704B080BDE549002027
:102FB0000870704780B582B00120C10600914204BC
:102FC000C3040F200021FFF739FAE8488021FFF7FA
:102FD00091FADE480078C007002808D1FFE7E348EF
:102FE0000821FFF7C1F9D94901200870FFE7DF4840
:102FF0000821FFF7DBF9012001900221FFF794FA85
:10300000019801F0F3F802B080BDC04600200A40EC
:1030100080B586B005A90870CB480078C0070028A5
:103020000ED0FFE705A80078C007002808D1FFE709
:103030001F480121FFF7EAFB022001F0D7F835E035
:103040001B480390FFF7FAFB0398FFF787FD0398EF
:1030500001210491FFF794FB03980499FFF778FB93
:103060000220029001F04EF803981249FFF7D8FCB5
:1030700003981149FFF70CFC039810490191FFF7E1
:1030800009FD01990398FFF737FD0398FFF7A0FBAF
:1030900003980499FFF7BAFB029801F0A7F8039888
:1030A000FFF73EFD0498A8490870FFE706B080BD11
:1030B00000000940F0440000F4440000FF7F0000DD
:1030C00080B58AB0B7480190FFF748FD2E480990B7
:1030D000FFF744FD019801210391FFF751FB01988F
:1030E0000399FFF735FB0198FFF760FB2748029033
:1030F00000210491FFF782F802980399FFF77EF808
:1031000002980221FFF77AF8039880070690FEF7ED
:103110007DFF1F480790FEF779FF0698FEF7CFFD69
:103120000798FEF7CCFD0698FEF7E0FD0399069898
:103130000902FEF7F3FD06982021FEF707FE049929
:103140000698C943FEF772FD0420059001F020F8AF
:10315000059800F0D7FF0698FEF7D2FE0698FEF716
:103160000BFE0798FEF708FE47480890FFF783FE1E
:103170000898FFF7D1FE0898FFF792FE0998FFF72D
:1031800015FB0AB080BDC0460080864000A04240CA
:103190000020004080B582B000F07AF90C48FFF7BB
:1031A000E3F90C48FEF7AEFF0B480090FFF7D6FCA2
:1031B0000098FFF7FBFA09480190FFF7CFFC019850
:1031C000FFF7F4FAC248FFF725FD02B080BDC04604
:1031D000008046400080014000208640000086407C
:1031E00080B588B0FEF7C0FB02A9087000F032F885
:1031F000FDF7DAFF002806D1FFE7FFF761FF07A917
:103200000020087021E0002003A9FDF70BFF002833
:1032100006D1FFE7FFF754FF07A90020087014E06C
:1032200069490868401C0860029808710398C880C2
:10323000069888600698C860012001900874FFF71E
:103240003FFF019807A90870FFE707A8007808B0BA
:1032500080BDC04680B50C48FFF736FE01208007D0
:10326000FEF7D2FD4F48FFF7E9FA1020FEF7DCFE2B
:1032700000F0B6FC00F0D2FB00F044FC00F078F85F
:103280000248FEF7D1FE80BD00000340007102003D
:1032900080B58F48FFF7DEFC1020FEF7C5FE00F07A
:1032A0007FFC00F053FE80BD80B582B0EFF310804C
:1032B00072B60190FFF77EFE0020FFF7A9FEFFF730
:1032C00069FF00F0C3F800F099F870480078022810
:1032D00004D0FFE7012000F015FFFFE76B480078FE
:1032E000012804D0FFE7022000F00CFFFFE7FFF702
:1032F0007FF9FFF7D5F962B664480078002802D15B
:10330000FFE730BFFFE7FFF7C1F902B080BDC0465D
:103310002D4870475D4800787047C04680B55B49CE
:103320000020087058490860274908600874064959
:10333000087006490870FFF73DFE0120FFF768FEA0
:1033400080BDC046FA112020FB1120205B112020F7
:1033500080B582B03C4808210191FFF7B4F801998B
:1033600008404142484102B080BDC04600200A40AA
:1033700080B582B00B480090FFF7F0FB0098012168
:103380000191FFF7FDF900980199FFF7E1F910208D
:1033900000F0B8FE00F07AFB19204002FDF70CFFA8
:1033A00002B080BD0040084080B5FFF7FFFDFFF789
:1033B00017FF00F09DF80348034900F007F800F0FC
:1033C00089F880BDBF4E00005C11202080B582B01E
:1033D000019000910098002806D0FFE70098007C3B
:1033E000C007002801D1FFE705E000990879C96806
:1033F00000F0ABFCFFE702B080BD000080B582B0FA
:1034000011480821FEF7F8FF019001A80078000795
:1034100000280DD5FFE70C480821FEF7A5FF012085
:1034200002210091FFF780F800981849087009E020
:10343000FFF78EFF002804D0FFE714490220087030
:10344000FFE7FFE702B080BD00200A4080B582B0F0
:103450000C480121FFF708FA019001A80078C00785
:1034600000280DD0FFE7074801210091FFF770F910
:103470000098054A1168491C116004490870FFE76B
:1034800002B080BD00000940FC112020FA1120206C
:1034900080B582B00D480190FFE70D48FFF71CFC96
:1034A000014600200029009005D0FFE70198411E49
:1034B00088410090FFE70098C007002804D0FFE78C
:1034C0000198401E0190E8E702B080BD00350C0075
:1034D0000080104080B52048FEF7A6FDFFF7D8FF1A
:1034E000024800F086FDFFF7D3FF80BD9F4E00002D
:1034F00080B582B0FFF7CCFE1748FEF795FD00209F
:10350000009000F043FDFFF7C3FF14480190FEF761
:103510008BFD009800F03AFDFFF7BAFF0198FEF727
:1035200083FD009800F032FDFFF7B2FF0198FEF72F
:103530007BFD009800F02AFDFFF7AAFF0198FEF737
:1035400073FD009800F022FDFFF7A2FF0198FEF73F
:103550006BFD02B080BDC04680380100801A0600B5
:1035600080B584B002A900200870FFE702A80078A7
:1035700007281EDCFFE702A800780021019100F077
:1035800019F9019803A90870FFE703A800787F28BC
:1035900009DCFFE7002000F02CFAFFE70398401C4D
:1035A00003A90870F1E7FFE70298401C02A9087020
:1035B000DCE704B080BD80B582B0AE2000F004FA34
:1035C0008D2000F001FA102000F0FEF9012001909A
:1035D00000F0C8F9019800F0DDF902B080BD80B5B7
:1035E0008D2000F0F1F9142000F0EEF9AF2000F08A
:1035F000EBF980BD80B584B00720FEF737FF0820C7
:10360000FEF734FFEF48019018210291FEF7C4FE47
:1036100001980299FEF7D8FE0120039000F0A2F96C
:10362000039800F0B7F904B080BDC04680B582B001
:1036300001A90870694600200870FFE76846007815
:10364000072815DCFFE701A8007869460A78802181
:10365000D140084000F09EF9012000F083F90020DD
:1036600000F080F9FFE70098401C69460870E5E724
:10367000012000F077F9002000F074F902B080BD5D
:1036800080B582B00120009000F084F9009800F02D
:1036900069F90020019000F07DF9019800F062F9CD
:1036A00002B080BD80B582B0002000F073F9012027
:1036B000019000F057F9019800F06CF902B080BD5C
:1036C00080B582B000200190FFE70198C0087C28F7
:1036D00012D8FFE700200090FFE70098C0087C2880
:1036E00005D8FFE7FFE70098401C0090F5E7FFE7EB
:1036F0000198401C0190E8E7FFF77CFFAE2000F046
:1037000063F9D52000F060F9802000F05DF9A82071
:1037100000F05AF93F2000F057F9D32000F054F997
:10372000002000F051F9402000F04EF9A12000F0F7
:103730004BF9C82000F048F9DA2000F045F91220D2
:1037400000F042F9812000F03FF9CF2000F03CF971
:10375000D92000F039F9F12000F036F9DB2000F033
:1037600033F9302000F030F9A42000F02DF9A62024
:1037700000F02AF98D2000F027F9142000F024F938
:10378000FFF72DFFFFF7ECFE02B080BD83B0029083
:10379000019101200090FFE70198411E019100284E
:1037A00005D0FFE70298009948430090F4E700989D
:1037B00003B0704780B584B0024603A8027002AA25
:1037C000019211700078B021084300F0FDF80198D3
:1037D00000780009103000F0F7F8019800780F2108
:1037E000084000F0F1F804B080BD000080B584B05E
:1037F00003AB187002A8017001A802700398400082
:10380000801E0299C9000839C0B2C9B2FFF7D2FFC1
:10381000694600200870FFE768460078072812DC38
:10382000FFE701A8007800011A49401869460978A5
:1038300040181A49405C00F0DCF8FFE70098401C93
:1038400069460870E8E703984000401E0299C900E5
:103850000839C0B2C9B2FFF7ADFF69460020087051
:10386000FFE768460078072812DCFFE701A8007828
:103870000001084940186946097840180649405C2B
:1038800000F0B7F8FFE70098401C69460870E8E7C9
:1038900004B080BD0845000008FEFFFF00FEFFFFEA
:1038A00010B58AB009AC207008A80170079206A86C
:1038B000037005A900200870FFE705A8007806A995
:1038C0000978884227DAFFE709A800780390089969
:1038D00005A80078091804910799019106A90978AB
:1038E000C04341180A200290FFF750FF014601989B
:1038F000FCF762FC0299FCF75FFC03980A46049906
:1039000030231A43C9B2FFF771FFFFE70598401C47
:1039100005A90870D1E70AB010BD80B584B003AB2B
:10392000187002A801700192694600200870FFE734
:10393000019869460978405C002811D0FFE703A888
:10394000007802996A461378C918019AD25CC9B204
:10395000FFF74CFFFFE70098401C69460870E7E757
:1039600004B080BD80B582B0014601A80170007826
:10397000002805D0FFE7D5481021FEF7C9FD04E077
:10398000D2481021FEF708FDFFE70820FEF74CFBA8
:1039900002B080BD80B582B0014601A801700078F8
:1039A000002805D0FFE7C9480821FEF7B1FD04E073
:1039B000C6480821FEF7F0FCFFE70820FEF734FBBD
:1039C00002B080BD00000A4080B582B001A900911C
:1039D0000870FFF755FE7820FFF728FE0020FFF75C
:1039E00025FE00980078FFF721FEFFF75BFE02B08E
:1039F00080BD80B582B001A900910870FFF740FE3C
:103A00007820FFF713FE4020FFF710FE00980078A3
:103A1000FFF70CFEFFF746FE02B080BD80B588B010
:103A200019490120069080070790FEF771FA069B5E
:103A30000798002105910191009159041A05FEF79C
:103A40002DFA0599069A0798049103910291019124
:103A5000009153020722FEF7F7F806990798090428
:103A6000FEF792FA07980221FEF79EFA0699079848
:103A7000FEF774FA06990798FEF7A2FA0798202134
:103A8000FEF7BCF808B080BDF84A000080B584B0ED
:103A9000144991480090FEF7C3FF00981249FEF7C1
:103AA000F7FE0098FEF78CFE00980021039101229A
:103AB0000192FEF797FE0098019A0399FEF7F6FF30
:103AC00000980199FEF730FE019A0399834802900D
:103AD000FEF788FE029803990222FEF7E7FF04B082
:103AE00080BDC046004B0000044B000080B5034A77
:103AF00003480021FEF7B8FB80BDC046184B00000C
:103B000000A0424080B5FFF7F1FF80BD80B584B0D2
:103B100014200221FEF7BEFC2E20FEF7B1FC34205B
:103B2000FEF7AEFC002303930093012002040292EF
:103B30003B201946FEF76CFC029A039B009336204B
:103B40001946FEF765FC029A039B00933320194641
:103B5000FEF75EFC029A039B00932B201946FEF7AA
:103B600057FC04B080BD80B582B000200190FEF704
:103B700065FD0198FEF7A6FD019800F06DF90320A0
:103B8000FEF768FDFEF718FDFEF72AFDFEF73AFD89
:103B90000198FEF76BFD019800F030F902B080BD8E
:103BA00080B582B00C49E8480190FFF7FFF8019812
:103BB0000A49FFF763F801980021FFF709F9019816
:103BC00004211622FFF7CEF80198FEF7FFFF0198B7
:103BD000FFF72AF802B080BD304B0000324B0000E6
:103BE00080B582B0094940480190FFF7A1F90198DA
:103BF0000749FFF71BF9FFE73B48FFF771F9012879
:103C000001D0FFE7F8E702B080BDC0463C4B0000A2
:103C1000404B000080B58CB02C480090FEF75EFC55
:103C20002B480190FEF75AFC2A480290FEF7B8FE96
:103C300029480390FEF7B4FE28480490FEF7B0FE32
:103C400027480590FEF7ACFED6480690FFF780F8AF
:103C500024480790FEF79EFC23480890FFF754F98C
:103C6000012080070990FEF743F920480A90FEF7EB
:103C70003FF91F480B90FEF75BFA0098FEF7B0FB88
:103C80000198FEF7ADFB0298FEF7CEFD0398FEF714
:103C9000CBFD0498FEF7C8FD0598FEF7C5FD069814
:103CA000FEF7CEFF0798FEF769FC0898FFF702F9C8
:103CB0000998FEF79FF80A98FEF79CF80B98FEF714
:103CC0002BFA1020FEF7B0F90CB080BD00000A40BE
:103CD00000200A40000086400040084000808640E6
:103CE0000020864000804640000003400020004045
:103CF0000080014010B586B004AC207003910292A0
:103D000001A803800298002805D0FFE701A80088D9
:103D1000062804D8FFE705A90020087011E00299E1
:103D2000A52008700498029948700298811C039895
:103D300000F050F802995A20887105A901200870F6
:103D4000FFE705A8007806B010BD80B586B0024632
:103D500004A8027003910078039901AA0723FFF7D2
:103D6000C9FF002804D1FFE705A90020087009E079
:103D700001A8072100F018F900F008F805A90120B2
:103D80000870FFE705A8007806B080BD80B582B056
:103D9000C6480190FFE7C648FEF7BCFF002809D0DF
:103DA000FFE7C348FEF7A2FF01460020002900906C
:103DB00005D0FFE70198411E88410090FFE7009879
:103DC000C007002804D0FFE70198401E0190E2E7F9
:103DD00002B080BD83B002900191029800900098DB
:103DE0000199087068464178019A51708178019A6A
:103DF0009170C0780199C87003B0704780B582B0E7
:103E00000090009800280CD1FFE7FFE7FEF702FCC6
:103E10000005002801D4FFE7F8E701A90120087098
:103E200016E0FFE7009800280ED0FFE7FEF7F2FB50
:103E30000005002804D5FFE701A90120087007E06C
:103E40000098401E0090EDE701A900200870FFE7F0
:103E500001A8007802B080BD80B582B000900098C3
:103E600000280BD1FFE7FFE7FEF7DCFB002801D0BD
:103E7000FFE7F9E701A90120087015E0FFE70098C6
:103E800000280DD0FFE7FEF7CDFB002804D1FFE7A7
:103E900001A90120087007E00098401E0090EEE79D
:103EA00001A900200870FFE701A8007802B080BDDA
:103EB00080B582B00A48FEF7CDFC01280DD1FFE79E
:103EC000074801210191FEF743FC0198054A11685A
:103ED000491C11600449087000E0FFE702B080BD92
:103EE00000000940FC112020FA11202080B500F0CC
:103EF00001F880BD80B582B06D48FEF7B5FE014681
:103F00000191012809D0FFE70198801E042812D3EF
:103F1000FFE701980B2813D1FFE7FFE76448FEF79E
:103F2000EFFE002806D1FFE76148FEF707FF00F02B
:103F300079F8F3E705E05E481E21FEF725FE00E074
:103F4000FFE702B080BDC0460080104080B5444904
:103F500000200880434908804449087006490880C9
:103F60000649087006490870064908705048064915
:103F7000FEF70AFE80BDC04670112020731120207C
:103F8000721120205A1120201F04000080B582B039
:103F9000014601A8017001784548FEF733FF02B0E1
:103FA00080BDC0460080104080B584B0039002A858
:103FB00001800398002801D1FFE718E001A9002043
:103FC0000880FFE701A8008802A9098888420EDA64
:103FD000FFE7039801A90988405CFFF7D7FF00F0CD
:103FE00047F8FFE70198401C01A90880EAE704B000
:103FF00080BD80B582B001900198002801D1FFE713
:104000000DE0FFE701980078002808D0FFE701984D
:104010000078FFF7BBFF0198401C0190F2E702B067
:1040200080BD000082B001A908700D480088411CC5
:104030007F2001406846018000880A49098888423B
:1040400004D1FFE709490120087007E001980449FD
:104050000B88054AD05400980880FFE702B07047EB
:10406000F8112020F611202074112020F4112020B6
:1040700080B582B00D480190FFE70D48FEF722FEA3
:10408000014600200029009005D0FFE70198411E5D
:1040900088410090FFE70098C007002804D0FFE7A0
:1040A0000198401E0190E8E702B080BD00350C0089
:1040B0000080104081B001466846017000214056E2
:1040C000002809D4FFE7684601781F20014001203D
:1040D000884016490860FFE701B0704781B001468B
:1040E0006846017000214056002809D4FFE7684661
:1040F00001781F200140012088400C490860FFE73B
:1041000001B0704781B001466846017000214056F9
:10411000002809D4FFE7684601781F2001400120EC
:10412000884002490860FFE701B0704780E200E084
:1041300081B00146684601700021405600280DD428
:10414000FFE7684601781F200140012088401C4994
:104150000860BFF34F8FBFF36F8FFFE701B0704769
:1041600081B00146684601700021405600280DD4F8
:10417000FFE7684601781F20014001208840104970
:104180000860BFF34F8FBFF36F8FFFE701B0704739
:1041900081B00146684601700021405600280DD4C8
:1041A000FFE7684601781F2001400120884004494C
:1041B0000860BFF34F8FBFF36F8FFFE701B0704709
:1041C00080E100E081B00146684601700021405660
:1041D000002809D4FFE7684601781F20014001202C
:1041E00088400C490860FFE701B0704781B0014684
:1041F0006846017000214056002809D4FFE7684650
:1042000001781F2001400120884002490860FFE733
:1042100001B0704700E100E080B584B00020039059
:1042200002A9087001900090FFF7F4FCFFF76EFC04
:10423000FFF799FCFFF72AFCFFF7B2FCFFF7D0FC71
:10424000FFF7ECFBFFF75EFCFFF73AFA1E4A01218D
:104250000846FFF762FBFFF7AEF9FFF75FF8FFE7ED
:1042600002A8007801210840FDF7C8FBFFF71CF801
:10427000FFF750F8012813D1FFE7FEF797FE0098EB
:10428000401C00900098002805D0FFE70020009017
:10429000FFF78AF8FFE702A801A9FDF733FC12E057
:1042A000FFF738F802280AD1FFE7FEF77FFEFDF797
:1042B0004BFC02A9012008700620019002E0FEF7E5
:1042C00075FEFFE7FFE7CBE7614B0000F8B5064658
:1042D0000C46FCF7D7FD051E0F4600D00120014318
:1042E00049000B484908411AC90F0DD0002E01D0D2
:1042F000012100E000210C4361004908401AC00F71
:1043000002D10120FCF7B7FD28463946F8BD000070
:104310000000F07F70B50125ED0704004C4020D46B
:10432000441A01D2001B0919C60D4B00F2B2FF2A34
:1043300029D01B0E2CD000020C0228432C43D31A88
:10434000DC40051910D2280A02D3401C6D0611D09A
:10435000761EF6058019FF2A00DA70BDC00DC00573
:1043600070BD694000F022F801200543C541521C90
:10437000761CE8E764089C40C90161408900E7D1E8
:104380000124A043E4E71B0E440200D0034870BDA3
:10439000002AFCD1C00FC00770BD00BF0000C07F65
:1043A00070B50125ED0704004C4022D4441A02D216
:1043B0006C40001B0919C60D4B00F2B2FF2A4BD00E
:1043C0001B0E50D000020C02A8432C43D31ADC4031
:1043D000051B05D5AD0019D36D08761E521E37D0CA
:1043E000F605280A01D2801970BD70416D0603D010
:1043F00070BD6940FFF794FF9C400902614049008D
:1044000001D0401E70BD0124A04370BD6D081DD0B9
:1044100001202B0C01D12D0410302B0E01D12D02C7
:1044200008302B0F01D12D01001DAB0F01D1AD00C4
:10443000801CEB0F01D16D00401C361A121A6D0062
:10444000680AF5054019012A02DB70BD002070BD25
:10445000C036300AC00770BD1B0E440201D1FF2BCD
:1044600000D1024870BD002AF0D070BD0000C07FAE
:1044700080807F7E7D7C7B7A7978777676757473A1
:10448000727171706F6E6E6D6C6C6B6A6A69686860
:10449000676666656464636362616160605F5F5EF6
:1044A0005E5D5D5C5C5B5B5A5A595958585757566C
:1044B00056555555545453535252525151505050D1
:1044C0004F4F4F4E4E4D4D4D4C4C4C4B4B4B4A4A23
:1044D0004A49494948484847474747464646454567
:1044E00045444444444343434342424242414141A0
:1044F0000200000002000000FF7F0000000000003A
:1045000000000000000000000000000000000000AB
:104510000000000000000000000000F800000000A3
:10452000000000333000000000100C06100C0600E4
:10453000000000000000000040C07840C07840004B
:10454000043F04043F040400007088FC08300000AD
:10455000001820FF211E0000F008F000E018000005
:1045600000211C031E211E0000F0088870000000BE
:104570001E2123241927211010160E000000000010
:104580000000000000000000000000E0180402002D
:10459000000000071820400000020418E00000009E
:1045A0000040201807000000404080F0804040009C
:1045B0000202010F01020200000000F000000000F2
:1045C0000101011F010101000000000000000000C6
:1045D00080B070000000000000000000000000003B
:1045E00000010101010101010000000000000000C4
:1045F000003030000000000000000000806018045F
:10460000006018060100000000E010080810E0003B
:10461000000F102020100F00001010F80000000004
:104620000020203F2020000000700808088870004B
:1046300000302824222130000030088888483000CB
:104640000018202020110E000000C02010F80000EB
:1046500000070424243F240000F808888808080084
:104660000019212020110E0000E010888818000099
:10467000000F112020110E0000380808C83808006B
:104680000000003F000000000070880808887000EB
:10469000001C222121221C0000E010080810E0006C
:1046A0000000312222110F00000000C0C0000000F5
:1046B000000000303000000000000080000000001A
:1046C0000000806000000000000080402010080012
:1046D00000010204081020004040404040404000DB
:1046E00004040404040404000008102040800000B6
:1046F0000020100804020100007048080808F000BB
:104700000000003036010000C030C828E810E0008A
:104710000718272423140B000000C038E000000015
:10472000203C23020227382008F88888887000007F
:10473000203F202020110E00C03008080808380053
:10474000071820202010080008F808080810E000CA
:10475000203F202020100F0008F88888E80810006B
:10476000203F20202320180008F88888E80810003F
:10477000203F200003000000C03008080838000077
:1047800007182020221E020008F808000008F80878
:10479000203F210101213F20000808F808080000FF
:1047A0000020203F2020000000000808F808080032
:1047B000C08080807F00000008F888C028180800AA
:1047C000203F20012638200008F8080000000000E3
:1047D000203F20202020300008F8F800F8F80800DA
:1047E000203F003F003F200008F830C00008F808D4
:1047F000203F200007183F00E01008080810E000E4
:104800000F10202020100F0008F808080808F000FA
:10481000203F210101010000E01008080810E0001D
:104820000F18242438504F0008F8888888887000B2
:10483000203F2000030C3020007088080808380052
:104840000038202121221C00180808F80808180048
:104850000000203F2000000008F808000008F808C9
:10486000001F202020201F000878880000C838087A
:10487000000007380E010000F80800F80008F800F2
:10488000033C0700073C030008186880806818088C
:1048900020302C03032C30200838C800C83808000A
:1048A0000000203F2000000010080808C838080059
:1048B0002038262120201800000000FE02020200FD
:1048C0000000007F40404000000C30C000000000AD
:1048D000000000010638C00000020202FE000000D5
:1048E000004040407F00000000000402020204007B
:1048F00000000000000000000000000000000000B8
:10490000808080808080808000020204000000009F
:104910000000000000000000000080808080000097
:104920000019242222223F2008F800808000000085
:10493000003F112020110E00000000808080000048
:10494000000E112020201100000000808088F80057
:10495000000E112020103F20000080808080000089
:10496000001F222222221300008080F088888818ED
:104970000020203F202000000000808080808000F8
:10498000006B94949493600008F80080808000008D
:10499000203F210000203F20008098980000000068
:1049A0000020203F20200000000000809898000098
:1049B00000C08080807F000008F8000080808000B8
:1049C000203F24022D302000000808F800000000DD
:1049D0000020203F20200000808080808080800098
:1049E000203F20003F20003F80800080808000002A
:1049F000203F210000203F200000808080800000B8
:104A0000001F202020201F008080008080000000E8
:104A100080FFA12020110E00000000808080800017
:104A2000000E112020A0FF80808080008080800008
:104A300020203F2120000100000080808080800035
:104A40000033242424241900008080E080800000AA
:104A50000000001F202000008080000000808000F7
:104A6000001F202020103F20808080000080808058
:104A700000010E30080601008080008000808080E8
:104A80000F300C030C300F0000808000808080000D
:104A90000020312E0E312000808080000080808038
:104AA00080818E70180601000080808080808000E8
:104AB0000021302C2221300000000000807C020206
:104AC00000000000003F404000000000FF00000028
:104AD00000000000FF0000000002027C80000000D7
:104AE0000040403F000000000006010102020404F3
:104AF00000000000000000000105000000000000B0
:104B00000800000002000000760200000000000023
:104B1000000000000000000017000000000000205E
:104B20000000000000010001000000000000030080
:104B30000800000010000000003000000800000025
:104B40000100000000000000000000005345513A41
:104B5000004355523A004E4F2044415441006D41AC
:104B6000004C50205265616479006368300D0A0082
:104B7000424547494E3A4144435F4652414D452CD8
:104B800053414D504C455F4E3D25752C46535F4873
:104B90005A3D25752C54494D45525F504552494F59
:104BA000443D25752C54494D45525F505245534361
:104BB000414C453D25752C4D4F44453D54494D458F
:104BC000525F4556454E545F53494E474C455F44EE
:104BD0004D412C4348414E4E454C5F53495A453D4B
:104BE000322C4348303D504132325F414443302CF7
:104BF0004348313D504132315F414443310D0A0059
:104C00004D53504D304733353037204144432072A7
:104C1000656164792C204255465F544F54414C3DA8
:104C200025752C20444953434152443D25752C2081
:104C300056414C49443D25752C2046535F485A3D0A
:104C400025752C2054494D45525F504552494F44DB
:104C50003D25752C2054494D45525F5052455343D4
:104C6000414C453D25752C204D4F44453D54494D03
:104C700045525F4556454E545F53494E474C455F3C
:104C8000444D410D0A00454E443A4144435F46526B
:104C9000414D450D0A004442473A25732C73746117
:104CA00067653D25752C696E6465783D25752C61B9
:104CB00064633D25752C646D61303D25752C646DF4
:104CC00061313D25752C7472756E3D25752C7463AC
:104CD0006E743D25752C7269733D307825303858D7
:104CE0002C63746C313D3078253038580D0A004102
:104CF000444325755F4646545F4841524D3A2575F9
:104D00002C25752C256C752C252E36662C252E33DE
:104D1000660D0A0041444325755F4646545F48418D
:104D2000524D3A6861726D6F6E69632C62696E2CC8
:104D300062696E5F687A2C6D61675F76726D732C45
:104D4000616E676C655F6465670D0A00424547499F
:104D50004E3A4144435F4652414D452C53414D50DC
:104D60004C455F4E3D25752C46535F485A3D257591
:104D70002C54494D45525F504552494F443D25758D
:104D80002C54494D45525F5052455343414C453D8B
:104D900025752C4D4F44453D54494D45525F455670
:104DA000454E545F53494E474C455F444D412C435B
:104DB00048414E4E454C5F53495A453D312C43487E
:104DC0003D25730D0A004552523A4144435F464621
:104DD000545F504152414D2C6368616E6E656C3D6D
:104DE00025750D0A004552523A4144435F555046DD
:104DF00052414D455F504152414D2C6368616E6E8A
:104E0000656C5F73697A653D25752C6368616E6EAC
:104E1000656C3D25750D0A00696E6465782C6368C4
:104E200025750D0A0041444325755F4646545F468B
:104E3000554E443A62696E3D25752C667265715F08
:104E4000687A3D256C750D0A000A206368310A00F6
:104E500025752C00504132325F41444330005041AF
:104E600032315F4144433100505245504152454434
:104E70000054494D45525F535441525445440044F7
:104E80004F4E4500414443305F454E54455200412A
:104E90004443305F414443315F454E5445520041E5
:104EA000544F4E0D0A41542B534C4545503D310D46
:104EB0000A004C505F4B4559325F53454E44004CFD
:104EC000505F54494D45525F53454E440000000029
:104ED000F04E00000000202018000000200100001B
:104EE000084F000018002020E812000048010000D0
:104EF000003200007602000092002020F6082020F8
:084F0000093D00000000000063
:04000005000000C136
:00000001FF
